:020000040800F2
:100000009004002001010008B5080008B1070008AD
:10001000010800084F060008571200080000000001
:100020000000000000000000000000003D0D00087E
:1000300053060008000000003D090008E10E00081A
:100040001B0100081B0100081B0100081B01000820
:100050001B0100081B0100081B0100081B01000810
:100060001B0100081B0100081B0100081B01000800
:100070001B0100081B0100081B0100081B010008F0
:100080001B0100081B0100081B0100081B010008E0
:100090001B0100081B0100081B0100081B010008D0
:1000A0001B0100081B0100081B0100081B010008C0
:1000B0001B0100081B0100081B0100081B010008B0
:1000C0001B0100081B0100081B0100081B010008A0
:1000D0001B010008011000081B0100081B0100089B
:1000E0001B0100081B0100081B010008DFF80CD0F1
:1000F00000F058FA00480047F1180008900400206A
:100100000648804706480047FEE7FEE7FEE7FEE7B1
:10011000FEE7FEE7FEE7FEE7FEE7FEE7E50E000886
:10012000ED0000082DE9FE4F804681EA0300C00F74
:100130000C46009021F0004123F00045B8EB02008E
:10014000A94105D24046214690461C460B46024630
:1001500023F00040104347D0270DC7F30A00C3F334
:100160000A510290401A019040286BDAC3F3130041
:1001700040F4801B0098924620B10023D2EB030A82
:1001800063EB0B0B01985946C0F14002504600F05A
:100190007BF906460D4650465946019A00F093F900
:1001A00010EB08006141002487EA115284EAE773EA
:1001B0001A4340D0009A62B3019A012A4FEA0752CB
:1001C00015DC001B61EB02014FF0004202EA07520E
:1001D000CDE90042001C41F5801132462B4600F06B
:1001E00093F903B0BDE8F08F40462146F9E7001BC4
:1001F00061EB0201001C41F5801300185B412018DF
:10020000A2F5001747EB030140EAD570B6196D411E
:1002100011E06D084FEA360645EAC0754FEA07520D
:10022000001B61EB0201001C41F5801149084FEAF7
:1002300030000019514132462B4603B0BDE8F04F63
:1002400000F053B90098012240000023D0EB0202D5
:1002500063EBE073009821464FEAE074B8EB0000CE
:1002600061EB0401E9E783F000435BE781F00041C3
:1002700058E72DE9FE4F81EA030404F0004421F021
:10028000004100944FF0000B23F0004350EA0104BA
:100290005ED052EA03045BD0C3F30A54C1F30A559B
:1002A0002C44A4F2F3340194A0FB0254C1F31301D3
:1002B00041F48011C3F3130343F4801301FB0244A0
:1002C00000FB034E840A970A44EA815447EA8357A5
:1002D000A4FB076802958D0A05FB07854FEA932C5E
:1002E00004FB0C542705029D4FEA065847EA1637CF
:1002F000B5EB08056EEB070C870E920E47EA8117E7
:1003000042EA8312A7FB0201B6EB0B0164EB000487
:100310002B0D43EA0C335E1844EB1C50DA46514671
:10032000E7FB0201C5F313044FEA0B3343EA14530E
:100330004FEA0432019C43EA0603A4F10C04029440
:10034000009CCDE900B400F0DFF803B0BDE8F08F09
:1003500000200146F9E72DE9F04D81EA030404F09D
:10036000004B21F0004514464FF0000A23F00041F5
:1003700050EA050220D054EA01021DD0C5F30A5705
:100380000246C5F31303C1F31300C1F30A5640F448
:10039000801543F48013A7EB0608101BD64608F21D
:1003A000FD3873EB050002D308F1010801E0921853
:1003B0005B41B8F1000F03DA00200146BDE8F08D83
:1003C00000204FF48011064684460EE0171B73EBA5
:1003D000050705D3121B63EB050306434CEA010C2A
:1003E00049084FEA300092185B4150EA0107EDD10D
:1003F00052EA030012D082EA040083EA05010843AE
:1004000005D0101BAB4106D20122002306E00022DA
:100410004FF0004302E06FF0010253101AEB0600A8
:100420004CEB085110EB0A0041EB0B01BDE8F04D1D
:1004300000F05BB80EB5C10F80EAE0700844CA074F
:10044000002140F233438DE80E000A460B4600F0CF
:100450005BF803B000BDC1F30A5210B5C1F313013C
:1004600040F2FF3341F480119A4201DA002010BDBE
:1004700040F233439A42A2F2334203DC524200F08C
:1004800012F810BD904010BD202A04DB203A00FA7B
:1004900002F1002070479140C2F1200320FA03F3DB
:1004A000194390407047202A04DB203A21FA02F0D9
:1004B0000021704721FA02F3D040C2F1200291409E
:1004C000084319467047202A06DBCB17203A41FA29
:1004D00002F043EAE07306E041FA02F3D040C2F1D1
:1004E0002002914008431946704710B5141E73F15D
:1004F000000408DA401C41F1000192185B411A43E4
:1005000001D120F0010010BD2DE9F04D92469B462F
:1005100011B1B1FA81F202E0B0FA80F220329046D5
:10052000FFF7B2FF04460F4640EA0A0041EA0B011A
:1005300053465A46084313D0114653EA010019D0D6
:10054000C8F140025046FFF7AEFF05460E46504642
:1005500059464246FFF798FF084305D0012004E0C2
:1005600020463946BDE8F08D0020054346EAE07696
:100570002C4337430A986305E40AA0EB08000022E5
:10058000FD0A44EA47540A3002D500200146E9E753
:10059000010510196941DDE9084500196941BDE807
:1005A000F04DA2E7064C074D06E0E06840F001037D
:1005B00094E8070098471034AC42F6D3FFF79AFD51
:1005C000081C0008281C000870B521F000430343F4
:1005D0000CD0C1F30A550024D5EB040564EB0403E9
:1005E000D617AD1AB34102DB0020014670BD2018BA
:1005F00041EB025170BD0EB540F233410291002132
:10060000CDE900110A460B46FFF77EFF03B000BD9F
:1006100070B5C1F30A5201F000450024C1F3130183
:1006200040F2FF3341F480119A4201DA002070BD9C
:1006300040F233439A42A2F2334203DC5242FFF7C4
:1006400032FF00E090402C43F1D0404270BD00BF2B
:10065000FEE7704700B5034603E04FF47A7000F000
:1006600005F81800A3F10103F7D100BD00EBC001AC
:10067000C9004FF0E0225161002191610521116113
:1006800000BF4FF0E021096901F480310029F8D062
:1006900004214FF0E022116170472DE9F04102463C
:1006A00000250026002000230024002791F803C025
:1006B0000CF00F0591F803C00CF0100CBCF1000F0A
:1006C00003D091F802C04CEA050591F800C0BCF1D6
:1006D000000F31D0146800202BE04FF0010C0CFA11
:1006E00000F3B1F800C00CEA03069E4220D183005B
:1006F0004FF00F0C0CFA03F7BC4305FA03FC4CEA6D
:10070000040491F803C0BCF1280F06D14FF0010C8E
:100710000CFA00FCC2F814C00AE091F803C0BCF166
:10072000480F05D14FF0010C0CFA00FCC2F810C0C4
:10073000401C0828D1D31460B1F800C0BCF1FF0FF1
:1007400034DD546800202EE000F1080C4FF0010861
:1007500008FA0CF3B1F800C00CEA03069E4221D15E
:1007600083004FF00F0C0CFA03F7BC4305FA03FCAF
:100770004CEA040491F803C0BCF1280F05D100F144
:10078000080C08FA0CF8C2F8148091F803C0BCF108
:10079000480F07D100F1080C4FF0010808FA0CF8D7
:1007A000C2F81080401C0828CED35460BDE8F08108
:1007B00000BFFEE770B50646EF231A460021084643
:1007C00000F07DF900240AE0002504E0304600F046
:1007D0007DFA681C85B2F02DF8DB601C84B2F02C29
:1007E000F2DB70BD70B504460D4616462B46224618
:1007F0002946204600F063F9304600F067FA70BDE4
:1008000000BFFEE700B587B00121042000F0A8F882
:100810000121082000F0A4F80121880300F090F8DD
:1008200010208DF81B0041F60800ADF818000320D9
:100830008DF81A0006A91C48FFF72FFF4FF420403F
:10084000ADF8180018208DF81B0003208DF81A0051
:1008500006A91648FFF721FF0020ADF8100001207F
:10086000ADF80C000220ADF80A000720ADF8140026
:100870000020ADF808004FF44040ADF8040000201F
:10088000ADF812004FF48270ADF806004FF400701E
:10089000ADF80E0001A9064800F0F3F80121044864
:1008A00000F0D8F807B000BD00080140000C01407E
:1008B000003800407047000070B5002100230F226F
:1008C000C47804B3154C246804F4E064C4F5E0640F
:1008D000210AC1F10403CA40447804FA03F1847880
:1008E0001440214309010E4C0678A155047804F008
:1008F0001F050124AC4005786D11AD0005F1E02520
:10090000C5F8004109E0047804F01F050124AC405B
:10091000044D0678761145F8264070BD0CED00E0D8
:1009200000E400E080E100E002490143024A116076
:10093000704700000000FA050CED00E07047000071
:1009400029B1064AD2690243044BDA6104E0034A42
:10095000D2698243014BDA61704700000010024007
:1009600029B1064A92690243044B9A6104E0034AA2
:1009700092698243014B9A61704700000010024067
:1009800030B500210022002400232D4D6D6805F0B4
:100990000C0121B1042905D0082923D105E0294DF6
:1009A000056022E0274D05601FE0254D6D6805F4C8
:1009B0007012234D6D6805F48034022505EB9242D8
:1009C0001CB9214D554305600BE01D4D6D6805F4C4
:1009D00000351DB11C4D5543056002E0194D5543CE
:1009E000056002E0174D056000BF00BF144D6D6843
:1009F00005F0F0010909154D6B5C0568DD404560A7
:100A00000F4D6D6805F4E061090A104D6B5C456897
:100A1000DD4085600A4D6D6805F46051C90A0B4DD3
:100A20006B5C4568DD40C560054D6D6805F440416F
:100A3000890B074D6B5CC568B5FBF3F5056130BDEF
:100A40000010024000127A0000093D000000002062
:100A50001000002021B1028842F04002028004E030
:100A600002884FF6BF731A4002807047024600208A
:100A700013890B400BB1012000E0002070478181F9
:100A8000704710B50022028802F441520B884C884E
:100A900023438C882343CC8823430C8923434C89EC
:100AA00023438C892343CC8923431A430280838BBD
:100AB0004FF2FF74234083830B8A038210BD2DE91C
:100AC000F04107460C4615461E462A2000F0F2F873
:100AD000384600F0FBF8284600F0F8F82B2000F02C
:100AE000E9F8204600F0F2F8304600F0EFF82C204C
:100AF00000F0E0F8BDE8F08110B5FFF783FE4FF499
:100B00000060634908603220FFF7A4FD4FF40060E5
:100B10005F49091F08603220FFF79CFD08205C49EF
:100B2000091F0860362000F0C5F8002000F0F0F83A
:100B30003A2000F0BFF8052000F0EAF8B22000F0FB
:100B4000B9F80C2000F0E4F80C2000F0E1F80020E7
:100B500000F0DEF8332000F0DBF8332000F0D8F8A6
:100B6000B72000F0A7F8352000F0D2F8BB2000F045
:100B7000A1F8192000F0CCF8C02000F09BF82C2040
:100B800000F0C6F8C22000F095F8012000F0C0F88F
:100B9000C32000F08FF8122000F0BAF8C42000F053
:100BA00089F8202000F0B4F8C62000F083F80F2068
:100BB00000F0AEF8D02000F07DF8A42000F0A8F8F6
:100BC000A12000F0A5F8E02000F074F8D02000F09B
:100BD0009FF8042000F09CF80D2000F099F81120F7
:100BE00000F096F8132000F093F82B2000F090F816
:100BF0003F2000F08DF8542000F08AF84C2000F0DF
:100C000087F8182000F084F80D2000F081F80B2000
:100C100000F07EF81F2000F07BF8232000F078F829
:100C2000E12000F047F8D02000F072F8042000F036
:100C30006FF80C2000F06CF8112000F069F8132018
:100C400000F066F82C2000F063F83F2000F060F818
:100C5000442000F05DF8512000F05AF82F2000F0F9
:100C600057F81F2000F054F81F2000F051F8202002
:100C700000F04EF8232000F04BF8212000F01AF885
:100C8000112000F017F8292000F014F810BD000022
:100C90001408014010B5044621460548FFF7EFFE51
:100CA00000BF02210248FFF7E1FE0028F9D010BD85
:100CB0000038004010B504464FF4805002490860E7
:100CC0002046FFF7E7FF10BD1408014010B50446A9
:100CD0004FF480500C49086021120C48FFF7CFFEFA
:100CE00000BF02210948FFF7C1FE0028F9D02146C4
:100CF0000648FFF7C4FE00BF02210448FFF7B6FE16
:100D00000028F9D010BD0000100801400038004054
:100D100010B504464FF48050064908602146064845
:100D2000FFF7ADFE00BF02210348FFF79FFE00283A
:100D3000F9D010BD10080140003800407047000095
:100D400000B587B001218803FFF70AFE01210420C6
:100D5000FFF706FE18208DF817004FF40070ADF86D
:100D6000140003208DF8160005A92148FFF795FC13
:100D700048208DF817004FF48060ADF81400032070
:100D80008DF8160005A91A48FFF787FC4FF461207B
:100D900001900020ADF810000C20ADF80E000020EE
:100DA000ADF80C00ADF80A00ADF8080001A9114833
:100DB00000F0E0F9012240F225510E4800F0B5F9AB
:100DC0004FF4A060FFF7B0FD25208DF8180001203A
:100DD0008DF81B008DF819008DF81A0006A8FFF792
:100DE0006BFD0121034800F06AF907B000BD000067
:100DF000000801400038014010B500F001F810BDB6
:100E00000CB50020019000903348006840F4803019
:100E10003149086000BF3048006800F4003000909D
:100E20000198401C0190009818B90198B0F5A06F86
:100E3000F1D12948006800F4003010B10120009081
:100E400001E0002000900098012843D12348006869
:100E500040F01000214908600846006820F00300B7
:100E600008600846006840F0020008601A484068C0
:100E7000194948600846406848600846406840F4A0
:100E8000806048600846406820F47C10486008464E
:100E9000406840F4E81048600846006840F0807000
:100EA000086000BF0C48006800F000700028F9D00E
:100EB0000948406820F00300074948600846406838
:100EC00040F00200486000BF0348406800F00C009A
:100ED0000828F9D10CBD000000100240002002409B
:100EE0007047000010B51348006840F00100114938
:100EF000086008464068104908400E4948600846A6
:100F000000680E4908400B4908600846006820F454
:100F1000802008600846406820F4FE0048604FF4D6
:100F20001F008860FFF768FF4FF000600449086009
:100F300010BD0000001002400000FFF8FFFFF6FEA9
:100F400008ED00E021B1028842F00102028004E0D5
:100F500002884FF6FE731A40028070470022028812
:100F60001D4B98420ED01D4B98420BD0B0F1804FD4
:100F700008D01B4B984205D01A4B984202D01A4B0E
:100F8000984204D14FF68F731A404B881A43174B7F
:100F9000984207D0164B984204D04FF6FF431A40B0
:100FA000CB881A4302808B8883850B8803850A4B84
:100FB00098420BD0094B984208D00E4B984205D06E
:100FC0000D4B984202D00D4B984201D10B7A03860B
:100FD0000123838270470000002C0140003401404F
:100FE0000004004000080040000C004000100040D9
:100FF000001400400040014000440140004801400E
:1010000010B540F22551214800F065F801283CD187
:101010001E4800F01BF9C4B21D48007858B94B2C8B
:101020002DD11C48007850BB0120194908700020C0
:101030001949087023E01648007801280FD10D2CBB
:1010400003D102201249087019E0144812490978A6
:10105000445411480078401C0F4908700FE00C48B8
:10106000007802280BD10A2C09D100200849087009
:101070000A49094A1278885401200649087040F24A
:101080002551024800F00CF800BF10BD00380140A7
:101090001500002014000020160000202800002069
:1010A00010B50022002340F66A14A14200D100BF0F
:1010B0000A1201249440A3B2DC43048010BD21B184
:1010C000828942F40052828104E082894DF6FF73E6
:1010D0001A408281704770B5024600240023002523
:1010E000002040F66A16B14200D100BFC1F342159C
:1010F00001F01F03012606FA03F3012D02D19689A0
:10110000334006E0022D02D1168A334001E0968A70
:1011100033400C12012606FA04F41688344013B149
:101120000CB1012000E0002070BDF0B503460024A2
:1011300000260025002040F66A17B94200D100BF02
:101140001846C1F3421401F01F06012707FA06F5FD
:10115000012C01D10C3004E0022C01D1103000E050
:1011600014301AB107682F43076002E00768AF43E5
:101170000760F0BD2DE9F04786B005460E46002415
:10118000A24600BFA1460027B08900B100BF2F468C
:101190002C8A4CF6FF700440F08804432C82AC8902
:1011A0004EF6F3100440B088318908437189084332
:1011B0000443AC81AC8A4FF6FF400440B08904433D
:1011C000AC8201A8FFF7DCFB1F48874202D1DDF8A3
:1011D00010A001E0DDF80CA0A88900F4004040B1A7
:1011E0000AEBCA0000EB0A1031684900B0FBF1F8C5
:1011F00007E00AEBCA0000EB0A1031688900B0FB77
:10120000F1F86420B8FBF0F004012009642101FB2F
:101210001089A88900F4004040B1322000EBC900D9
:10122000B0FBF1F000F00700044308E0322000EBCF
:1012300009106421B0FBF1F000F00F0004432C8191
:1012400006B0BDE8F08700000038014001468888FC
:10125000C0F30800704700BFFEE7490050EAC12014
:1012600018BF04204A0D18BF40F0010040F2FF7281
:10127000B2EB515F08BF40F00200012808BF052013
:10128000704700002DE9F74F144694B00021C4E9DF
:1012900002111599079121F00045C9498D4206DCDC
:1012A0001599C4E9000117B00020BDE8F08FC549C9
:1012B000DFF814A3A9423CDD0799C44E0029C44FAE
:1012C000C44A1599534619DDFEF7CDFF554506D0A2
:1012D000C14AC24BFEF7C7FFC4E900010AE04FF064
:1012E000D352BE4BFEF7BFFF32463B46FEF7BBFF75
:1012F000C4E9000117B00120BDE8F08FFEF712FF2E
:10130000554506D0B44AB54BFEF70CFFC4E90001C1
:101310000AE04FF0D352B14BFEF704FF32463B4692
:10132000FEF700FFC4E9000117B04FF0FF30BDE841
:10133000F08FAB49A942159978DB21F00041834633
:101340008846A84AA84BFEF794FF0022A74BFEF759
:10135000E9FEFFF75DF90990FFF76CF806460F46C6
:101360009C4A5346FEF785FF43465A46FEF77EFFEA
:1013700080468A46984A994B30463946FEF779FFAF
:101380002A0D01250B9242465346FEF76FFF032DAF
:10139000C4E9000139D00B98C1F30A51401A05EB9A
:1013A00045111139814230DA9148C346784400EB47
:1013B0000510CDF80CA00C90D0E90023304639463A
:1013C000FEF757FF02460B460491069058460399D4
:1013D000FEF749FF80468A4602460B465846039967
:1013E000FEF741FF049B069AFEF73DFF83460C98EB
:1013F00003913946D0E902233046FEF73AFF5A46B8
:10140000039BFEF730FF6D1CBDE707980028A2BFC5
:10141000099817B0BDE8F08F616881F00041616004
:10142000099817B04042BDE8F08FFFE78446159851
:10143000C1F31301C0F30A50A0F2F5304FEA60186F
:1014400000F01F06C6F120001390002006900790C0
:1014500041F4801E05206D4676B1664A08EB000116
:101460007A4452F8213002EB8101B3404A68139963
:1014700022FA01F1194305E05F4908EB00027944C3
:1014800051F82210A1FB0E27A1FB0C131A449A421B
:1014900034BF0123002303EB070A05EB8003D3E9E4
:1014A00001B70F448F4234BF0121002193448B4484
:1014B00011B1934502D903E0934501D2012100E027
:1014C0000021C3E901B7514445F82010011EA0F1E5
:1014D0000100C1DC0298059F00F10050800F1290BE
:1014E0000298DDE903568000FEF7A4FF83462846F4
:1014F0000D91FFF780F86FF01D02FFF765F8CDE959
:101500000E013046FFF777F86FF03D02FFF75CF809
:1015100080468A463846FFF76EF86FF05D02FFF7A7
:1015200053F80746424653461191FEF7FBFDDDE9AD
:101530000E23FEF7F7FD5A460D9BFEF7F3FD00253F
:101540000E465A4628460D9BFEF78DFEDDE90E231A
:10155000FEF789FE42465346FEF785FE3A46119B4A
:10156000FEF784FEDFF898A0244A5346FEF781FE7A
:1015700007468846234A244B31462846FEF779FE23
:101580003A464346FEF7CEFD074688464FF0A8424E
:10159000534631462846FEF76CFE3A464346FEF770
:1015A000C1FD159A12F0004F04D0129A81F000414B
:1015B00052421292C4E90001129817B0BDE8F08FB0
:1015C000FB21E93F7CD90240FB21F93F7370032ED8
:1015D0008A19A33B000040543163621A61B4D03DC4
:1015E000FB21394183C8C96D305FE43F0000E03F13
:1015F00068070000E4060000C6060000182D4454E9
:10160000FB21F93D3326A611460B113C2DE9FF4D78
:1016100021F0004807460C46B8F1795F08DAFEF77A
:10162000F7FF002801BF0020324904B0BDE8F08D6B
:101630003A46234610461946FEF71BFE054602466B
:101640002D480E460B460621784400F05DF82A46E8
:101650003346FEF70EFEDDE9022382468B4638460E
:101660002146FEF706FE04460F4652465B462846D4
:101670003146FEF7FEFD22463B46FEF7F4FD0746E7
:101680008A464FF0FF3228463146FEF79DFF1B4A3F
:1016900090450ADA3A465346FEF7E5FD04B00022CB
:1016A000BDE8F04D134BFEF7E1BD154A4245A8BF1A
:1016B000A8F500154FF00004B8BF124D22462B4686
:1016C000FEF7D1FD0646884622462B4600200949F2
:1016D000FEF7C9FD04460D463A465346304641469C
:1016E000FEF7C1FD04B022462B46BDE8F04DFEF7E3
:1016F000BDBD00000000F03F9C0400003333D33F29
:101700000000E93F0000D23F2DE9F0414F1E00EB01
:10171000C7010446D1E9000115461E4637F006020E
:101720000DD02A463346FEF7A4FD7F1E04EBC70307
:10173000D3E90023FEF7F6FC37F00602F1D1022FC1
:1017400025D0042F13D0062F18BFBDE8F0812A46FC
:101750003346FEF78EFDD4E90A23FEF7E3FC2A4662
:101760003346FEF786FDD4E90823FEF7DBFC2A4664
:101770003346FEF77EFDD4E90623FEF7D3FC2A4666
:101780003346FEF776FDD4E90423FEF7CBFC2A4668
:101790003346FEF76EFDD4E90223FEF7C3FC2A466A
:1017A0003346FEF766FDD4E90023BDE8F041FEF7BD
:1017B000B9BC00002DE9FF4D054621F0004084B082
:1017C0000C46B0F1795F0BDA2846FFF746FD042896
:1017D00008BF00F06FF8284608B02146BDE8F08D3C
:1017E0002A460B461046FEF744FD06460F462A469B
:1017F0002346FEF73EFD804626488A4632463B4653
:1018000005217844FFF780FF83461098029160B36A
:10181000214A224B40465146FEF72BFDCDE90001FF
:101820005A4640465146029BFEF723FD82468846B3
:10183000DDE906014FF0FF32FEF7C6FE5246434691
:10184000FEF711FD32463B46FEF713FDDDE90623A8
:10185000FEF709FDDDE90023FEF705FD08B02A4685
:101860002346BDE8F04DFEF701BD0B465A46304613
:101870003946FEF7FEFC084A084BFEF753FC424689
:101880005346FEF7F6FC08B02A462346BDE8F04D65
:10189000FEF748BCDA030000495555555555C5BFFC
:1018A0000122FEF791BE0022134610461146FEF7B4
:1018B00052BD0000024A00201107FEF785BE00005D
:1018C00001FDFFFF02E008C8121F08C1002AFAD17B
:1018D00070477047002001E001C1121F002AFBD1B0
:1018E0007047000001490860704700002400002094
:1018F0008CB000BFFFF700F90020FEF75BFFFFF799
:101900001FFA3220FEF7A6FE01210846FFF718F85D
:101910004FF6FF70ADF8280045480088401E80B2A1
:10192000ADF824000020ADF82A00ADF8260009A982
:101930004FF08040FFF712FB01218807FFF702FB01
:1019400074E04FF000096EE0002431E009EB040080
:10195000FEF770FD07460022364BFEF7FCFC0546FD
:10196000354A364BFEF785FC00224FF08043CDE927
:101970000001FEF77EFCCDE9020100F065F80022CF
:101980002F4BCDE90401FEF774FC824600222D4B5B
:10199000FEF7C8FBCDE90601FEF75DFD80B24FF60C
:1019A000FF72014608902046FEF71CFF601CC4B27F
:1019B000F02CCBDB002430E009EB0400FEF73AFD0D
:1019C00000221C4BCDE90001FEF7C5FC82461A4AF5
:1019D0001A4BFEF74EFC054600224FF08043FEF7FF
:1019E00048FC074600F030F80022154BCDE9020113
:1019F000FEF73FFC0022134BCDE90401FEF792FBFA
:101A0000CDE90601FEF727FD80B2002201460890CD
:101A10002046FEF7E7FE601CC4B2F02CCCDB09F1D7
:101A2000020000F0FF09B9F1F00F8DDB89E700003B
:101A30002200002000006E401F85EB51B81E0940B7
:101A400000005EC000005E4000B5254B21F0004262
:101A500087B09A4203DC0022134600922BE0214B10
:101A60009A4208D140B94FF00100FFF73BFFFFF762
:101A70001AFF07B000BD03DBFFF712FF07B000BD80
:101A800002AAFFF7FFFB10F003014FF001000DD099
:101A9000012914D002291AD00DF1080C9CE80F007E
:101AA000FFF7B4FD07B081F0004100BD0DF1080C57
:101AB00000909CE80F00FFF77DFE07B000BD0DF120
:101AC000080C9CE80F00FFF7A1FD07B000BD0DF169
:101AD000080C00909CE80F00FFF76CFEE2E70000A6
:101AE000FB21E93F0000F07F4C5555555555A53F6A
:101AF0007751C1166CC156BF9015CB19A001FA3EA3
:101B0000AD529C804F7E92BEC4B1B4BD9EEE213ECC
:101B1000D43888BEE9FAA8BD00004054FB21F93F43
:101B20003163621A61B4D03D0000601A61B4D03DE7
:101B30007370032E8A19A33B0000002E8A19A33B61
:101B4000C14920259A837B39000000000000000075
:101B50006E83F9A22915444ED15727FCC0DD34F518
:101B6000999562DB4190433CAB6351FE61C5BBDE9E
:101B70003A6E24B7E0D24D42EA2E49061C92D109B2
:101B80001CEB1DFE3EA729B1F53582E88444BB2E2F
:101B900026709CE9417E5FB439D69139F43953837C
:101BA0008B5F849C3B28F9BDFF97F81F0F9805DEDB
:101BB0008B112FEF1F6D0A5ACF7E366DB709CB27D9
:101BC000663F464F2DEA5F9EC7BA27757BF1E5EB6E
:101BD000F739073DEA92528AB15FFB6B085D8D1FB2
:101BE000A6F810111111813FD561C119A0012ABFBA
:101BF0007DFEB157E31DC73EEB9C2B8AE6E55ABE3E
:101C00007CD5CF5A3AD9E53D281C000800000020B9
:101C100028000000C4180008501C000828000020FC
:101C200068040000D418000800000000010203044A
:101C30000102030406070809020406080000000068
:101C400000000000000000000000E80300000000A9
:04000005080000ED02
:00000001FF
