:020000040800F2
:100000008004002001010008F1030008F302000849
:10001000F702000875010008130A0008000000003C
:100020000000000000000000000000007105000852
:100030007901000800000000790400083507000875
:100040001B0100081B0100081B0100081B01000820
:100050001B0100081B0100081B0100081B01000810
:100060001B0100081B0100081B0100081B01000800
:100070001B0100081B0100081B0100081B010008F0
:100080001B0100081B0100081B0100081B010008E0
:100090001B0100081B0100081B0100081B010008D0
:1000A0001B0100081B0100081B0100081B010008C0
:1000B0001B0100081B0100081B0100081B010008B0
:1000C0001B0100081B0100081B0100081B010008A0
:1000D0001B010008990700081B0100081B0100080C
:1000E0001B0100081B0100081B010008DFF80CD0F1
:1000F00000F02EF800480047C50C000880040020DE
:100100000648804706480047FEE7FEE7FEE7FEE7B1
:10011000FEE7FEE7FEE7FEE7FEE7FEE73907000839
:10012000ED00000830B50B460146002020220124D6
:1001300009E021FA02F59D4205D303FA02F5491BB5
:1001400004FA02F52844151EA2F10102F1DC30BDCB
:10015000064C074D06E0E06840F0010394E8070014
:1001600098471034AC42F6D3FFF7C4FF280D0008BF
:10017000480D000800BFFEE7704700B5034603E0E6
:100180004FF47A7000F005F81800A3F10103F7D1DD
:1001900000BD00EBC001C9004FF0E0225161002119
:1001A00091610521116100BF4FF0E021096901F45F
:1001B00080310029F8D004214FF0E022116170470E
:1001C0002DE9F041024600250026002000230024EE
:1001D000002791F803C00CF00F0591F803C00CF054
:1001E000100CBCF1000F03D091F802C04CEA0505D9
:1001F00091F800C0BCF1000F31D0146800202BE052
:100200004FF0010C0CFA00F3B1F800C00CEA030641
:100210009E4220D183004FF00F0C0CFA03F7BC4331
:1002200005FA03FC4CEA040491F803C0BCF1280F62
:1002300006D14FF0010C0CFA00FCC2F814C00AE021
:1002400091F803C0BCF1480F05D14FF0010C0CFA36
:1002500000FCC2F810C0401C0828D1D31460B1F8CB
:1002600000C0BCF1FF0F34DD546800202EE000F127
:10027000080C4FF0010808FA0CF3B1F800C00CEAC2
:1002800003069E4221D183004FF00F0C0CFA03F7B6
:10029000BC4305FA03FC4CEA040491F803C0BCF12A
:1002A000280F05D100F1080C08FA0CF8C2F81480E8
:1002B00091F803C0BCF1480F07D100F1080C4FF0D2
:1002C000010808FA0CF8C2F81080401C0828CED3A8
:1002D0005460BDE8F0810246002093680B400BB1EA
:1002E000012000E0002070470AB1016100E0416197
:1002F000704700BFFEE700BFFEE7000008B5012120
:10030000042000F0BBF810208DF80300B020ADF8F9
:10031000000003208DF8020069460B48FFF750FFEC
:1003200048208DF803004020ADF8000003208DF830
:10033000020069460448FFF743FF012000F04EF831
:10034000002000F041F808BD0008014010B5402130
:100350000148FFF7C0FF10BD0008014010B50020A4
:1003600000F03CF810BD10B5012000F037F810BDCA
:1003700070B505460026002417E080212141294060
:1003800009B1012100E00021084600F013F8012026
:1003900000F01AF8FFF7DAFF10B180202041064381
:1003A000002000F011F8601CC4B2082CE5DB3046D8
:1003B00070BD000010B50446224680210148FFF7B9
:1003C00093FF10BD0008014010B5044622462021CD
:1003D0000148FFF789FF10BD0008014010B5044631
:1003E000224610210148FFF77FFF10BD00080140A1
:1003F0007047000070B5002100230F22C47804B3B9
:10040000154C246804F4E064C4F5E064210AC1F1E9
:100410000403CA40447804FA03F184781440214369
:1004200009010E4C0678A155047804F01F0501243B
:10043000AC4005786D11AD0005F1E025C5F800412F
:1004400009E0047804F01F050124AC40044D06784F
:10045000761145F8264070BD0CED00E000E400E0A8
:1004600080E100E002490143024A11607047000048
:100470000000FA050CED00E07047000029B1064AC3
:1004800092690243044B9A6104E0034A92698243F1
:10049000014B9A61704700000010024030B5002106
:1004A0000022002400232D4D6D6805F00C0121B1C0
:1004B000042905D0082923D105E0294D056022E053
:1004C000274D05601FE0254D6D6805F47012234D22
:1004D0006D6805F48034022505EB92421CB9214D6C
:1004E000554305600BE01D4D6D6805F400351DB1E9
:1004F0001C4D5543056002E0194D5543056002E06F
:10050000174D056000BF00BF144D6D6805F0F00188
:100510000909154D6B5C0568DD4045600F4D6D6840
:1005200005F4E061090A104D6B5C4568DD408560AB
:100530000A4D6D6805F46051C90A0B4D6B5C456846
:10054000DD40C560054D6D6805F44041890B074DE0
:100550006B5CC568B5FBF3F5056130BD001002406A
:1005600000127A0000093D00000000201000002069
:100570007047000000B587B001218803FFF77EFFB8
:1005800001210420FFF77AFF18208DF817004FF49F
:100590000070ADF8140003208DF8160005A921485D
:1005A000FFF70EFE48208DF817004FF48060ADF87D
:1005B000140003208DF8160005A91A48FFF700FE65
:1005C0004FF4E13001900020ADF810000C20ADF8A0
:1005D0000E000020ADF80C00ADF80A00ADF80800E0
:1005E00001A9114800F0A0F9012240F225510E485E
:1005F00000F074F94FF4A060FFF734FF25208DF868
:10060000180001208DF81B008DF819008DF81A00D4
:1006100006A8FFF7EFFE0121034800F01CF907B020
:1006200000BD0000000801400038014010B504463C
:100630002146054800F0E9F900BF8021024800F09A
:1006400016F90028F9D010BD0038014010B500F0AF
:1006500001F810BD0CB500200190009033480068EF
:1006600040F480303149086000BF3048006800F431
:10067000003000900198401C0190009818B9019832
:10068000B0F5A06FF1D12948006800F4003010B136
:100690000120009001E0002000900098012843D143
:1006A0002348006840F010002149086008460068AF
:1006B00020F0030008600846006840F0020008606F
:1006C0001A4840681949486008464068486008462A
:1006D000406840F4806048600846406820F47C1020
:1006E00048600846406840F4E810486008460068E2
:1006F00040F08070086000BF0C48006800F0007097
:100700000028F9D00948406820F0030007494860F4
:100710000846406840F00200486000BF0348406857
:1007200000F00C000828F9D10CBD000000100240B8
:10073000002002407047000010B51348006840F0E8
:1007400001001149086008464068104908400E49F8
:100750004860084600680E4908400B490860084692
:10076000006820F4802008600846406820F4FE00FD
:1007700048604FF41F008860FFF768FF4FF000608B
:100780000449086010BD0000001002400000FFF89E
:10079000FFFFF6FE08ED00E010B540F225512148BC
:1007A00000F072F801283CD11E4800F029F9C4B2CB
:1007B0001D48007858B94B2C2DD11C48007850BBEF
:1007C00001201949087000201949087023E01648D3
:1007D000007801280FD10D2C03D102201249087096
:1007E00019E0144812490978445411480078401C13
:1007F0000F4908700FE00C48007802280BD10A2C32
:1008000009D10020084908700A49094A1278885419
:1008100001200649087040F22551024800F00CF80A
:1008200000BF10BD0038014015000020140000205A
:10083000160000201C00002010B50022002340F606
:100840006A14A14200D100BF0A1201249440A3B24D
:10085000DC43048010BD21B1828942F400528281C0
:1008600004E082894DF6FF731A4082817047024688
:100870000020B1F5007F00D100BF13880B400BB101
:10088000012000E00020704770B5024600240023DC
:100890000025002040F66A16B14200D100BFC1F326
:1008A000421501F01F03012606FA03F3012D02D1C0
:1008B0009689334006E0022D02D1168A334001E0CA
:1008C000968A33400C12012606FA04F41688344046
:1008D00013B10CB1012000E0002070BDF0B503465B
:1008E000002400260025002040F66A17B94200D1F6
:1008F00000BF1846C1F3421401F01F06012707FA92
:1009000006F5012C01D10C3004E0022C01D110308D
:1009100000E014301AB107682F43076002E007684F
:10092000AF430760F0BD00002DE9F04786B00546F3
:100930000E460024A24600BFA1460027B08900B1A0
:1009400000BF2F462C8A4CF6FF700440F088044309
:100950002C82AC894EF6F3100440B08831890843EC
:10096000718908430443AC81AC8A4FF6FF400440D0
:10097000B0890443AC8201A8FFF790FD1F4887426D
:1009800002D1DDF810A001E0DDF80CA0A88900F488
:10099000004040B10AEBCA0000EB0A103168490080
:1009A000B0FBF1F807E00AEBCA0000EB0A1031686F
:1009B0008900B0FBF1F86420B8FBF0F004012009D5
:1009C000642101FB1089A88900F4004040B1322065
:1009D00000EBC900B0FBF1F000F00700044308E0B1
:1009E000322000EB09106421B0FBF1F000F00F00A1
:1009F00004432C8106B0BDE8F087000000380140B8
:100A000001468888C0F308007047C1F3080282805D
:100A1000704700BFFEE710B5FFF770FC10BD2DE971
:100A2000F04104460E46174600F071F8FFF796FCB9
:100A30000220FFF79DFCC4F30740FFF799FCC4F3C5
:100A40000720FFF795FCE0B2FFF792FC002504E0D9
:100A5000705DFFF78DFC681C85B2BD42F8DBFFF7C7
:100A600082FC00F03DF8BDE8F0812DE9F04104463C
:100A70000E461746FFF772FC0320FFF779FCC4F31C
:100A80000740FFF775FCC4F30720FFF771FCE0B2E5
:100A9000FFF76EFC002504E0FF20FFF769FC7055AE
:100AA0006D1CBD42F8D3FFF75EFCBDE8F08110B5C8
:100AB000044600F02CF8FFF751FC2020FFF758FC0B
:100AC000C4F30740FFF754FCC4F30720FFF750FCC2
:100AD000E0B2FFF74DFCFFF746FC00F001F810BD57
:100AE00010B542F21074FFF739FC0520FFF740FC07
:100AF00002E0641E04B906E0FF20FFF739FC00F0B5
:100B000001000028F5D100BFFFF72DFC10BD10B586
:100B1000FFF724FC0620FFF72BFCFFF724FC10BD99
:100B20000FB4054B10B503A9044A029800F018F859
:100B300010BC5DF814FB0000B50C00081800002084
:100B400002E008C8121F08C1002AFAD17047704796
:100B5000002001E001C1121F002AFBD170470000F4
:100B60002DE9FF4F89B09B460446002506E0252865
:100B70000BD05A460B999047641C6D1C20780028B6
:100B8000F5D10DB02846BDE8F08F0027B846012208
:100B9000474900E0074314F8013F203B02FA03F005
:100BA0000842F7D120782E2819D114F8010F47F008
:100BB00004072A280ED06FF02F022078A0F1300110
:100BC00009290CD808EB880102EB410100EB010870
:100BD000641CF2E70A98641C50F8048B0A90207891
:100BE0000028CED0642808D0692806D075281ED0E9
:100BF0005A460B9990476D1C58E00A994FF00A0924
:100C000001C90A91002802DA40422D2102E039058B
:100C100004D52B218DF82010012103E0F90704D021
:100C20002021F7E78A4608AE0DE00021FAE70A998D
:100C30004FF00A0901C90A91F7E74946FFF772FA2E
:100C4000303106F8011D0028F7D1ADEB060000F1A8
:100C50002009780701D44FF00108C84502DDA8EB50
:100C6000090000E000208046002706E008A85A4658
:100C7000C05D0B9990476D1C7F1C5745F6DB04E067
:100C800030205A460B9990476D1CB8F10001A8F12D
:100C90000108F5DC05E016F8010B5A460B99904760
:100CA0006D1CB9F10001A9F10109F4DC641C65E7D0
:100CB0000928010070B504460D46E0B2FFF7B6FC06
:100CC000204670BDE4B0002403E032A80455601C47
:100CD000C4B2C82CF9DBFFF79EFE0020FFF7E7FE49
:100CE000C82232A90020FFF79AFEC82269460020D8
:100CF000FFF7BBFEFFF73EFC10E0002409E01DF803
:100D0000041007A0FFF70CFF0120FFF736FA601C64
:100D1000C4B2C82CF3DB0A20FFF72FFAEDE700007E
:100D20004E756D3A25640A00480D00080000002049
:100D30001C000000400B0008640D00081C0000208F
:100D400064040000500B00080000000001020304CE
:100D50000102030406070809020406080000000057
:040D6000000000008F
:04000005080000ED02
:00000001FF
