:020000040800F2
:10000000700600208901000855060008A5030008B5
:10001000F90400083B020008010C00080000000081
:10002000000000000000000000000000FD090008C2
:100030003F02000800000000DB090008E90A000890
:10004000A3010008A3010008A3010008A301000800
:10005000A3010008A3010008A3010008A3010008F0
:10006000A3010008A3010008A3010008A3010008E0
:10007000A3010008A3010008A3010008A3010008D0
:10008000A3010008A3010008A3010008A3010008C0
:10009000A3010008A3010008A3010008A3010008B0
:1000A000A3010008A3010008A3010008A3010008A0
:1000B000A3010008A3010008A3010008A301000890
:1000C000A3010008A3010008A3010008A301000880
:1000D000A30100084D0B0008A3010008A3010008BC
:1000E000A3010008A3010008A301000800F002F822
:1000F00000F03AF80AA090E8000C82448344AAF188
:100100000107DA4501D100F02FF8AFF2090EBAE885
:100110000F0013F0010F18BFFB1A43F0010318473B
:1001200084110000A4110000103A24BF78C878C1DF
:10013000FAD8520724BF30C830C144BF04680C60ED
:10014000704700000023002400250026103A28BF35
:1001500078C1FBD8520728BF30C148BF0B60704739
:100160001FB51FBD10B510BD00F031F81146FFF7E7
:10017000F7FF00F047FD00F04FF803B4FFF7F2FF80
:1001800003BC00F053F800000948804709480047C5
:10019000FEE7FEE7FEE7FEE7FEE7FEE7FEE7FEE737
:1001A000FEE7FEE704480549054A064B7047000094
:1001B000ED0A0008ED000008700000207006002025
:1001C000700200207002002070477047704775462B
:1001D00000F028F8AE4605006946534620F00700B7
:1001E000854618B020B5FFF7DDFFBDE820404FF091
:1001F00000064FF000074FF000084FF0000B21F011
:100200000701AC46ACE8C009ACE8C009ACE8C009DD
:10021000ACE8C0098D4670470446AFF30080204625
:10022000FFF7ABFF0048704710000020014918207D
:10023000ABBEFEE726000200704700BFFEE7704736
:1002400000EBC001C9004FF0E02251610021916133
:100250000521116100BF4FF0E021096901F48031EF
:100260000029F8D004214FF0E022116170472DE9F8
:10027000F04102460025002600200023002400272C
:1002800091F803C00CF00F0591F803C00CF0100CAE
:10029000BCF1000F03D091F802C04CEA050591F8BB
:1002A00000C0BCF1000F31D0146800202BE04FF0EB
:1002B000010C0CFA00F3B1F800C00CEA03069E42F0
:1002C00020D183004FF00F0C0CFA03F7BC4305FA62
:1002D00003FC4CEA040491F803C0BCF1280F06D1DA
:1002E0004FF0010C0CFA00FCC2F814C00AE091F8BF
:1002F00003C0BCF1480F05D14FF0010C0CFA00FC13
:10030000C2F810C0401C0828D1D31460B1F800C056
:10031000BCF1FF0F34DD546800202EE000F1080C22
:100320004FF0010808FA0CF3B1F800C00CEA03061C
:100330009E4221D183004FF00F0C0CFA03F7BC430F
:1003400005FA03FC4CEA040491F803C0BCF1280F41
:1003500005D100F1080C08FA0CF8C2F8148091F8E5
:1003600003C0BCF1480F07D100F1080C4FF00108A1
:1003700008FA0CF8C2F81080401C0828CED354604C
:10038000BDE8F0810246002093680B400BB10120CC
:1003900000E000207047016170470AB1016100E090
:1003A0004161704700BFFEE72DE9F05F06460F464A
:1003B00090469946DDE90AAB3B2000F067F8044619
:1003C0003C2000F063F8054645EA042000B2308086
:1003D0003D2000F05BF804463E2000F057F805464B
:1003E00045EA042000B238803F2000F04FF8044670
:1003F000402000F04BF8054645EA042000B2A8F87A
:100400000000432000F042F80446442000F03EF88B
:10041000054645EA042000B2A9F80000452000F096
:1004200035F80446462000F031F8054645EA042038
:1004300000B2AAF80000472000F028F8044648203F
:1004400000F024F8054645EA042000B2ABF80000AD
:10045000BDE8F09F10B500F051F801216B2000F0CD
:1004600034F800216C2000F030F80921192000F048
:100470002CF806211A2000F028F818211B2000F083
:1004800024F818211C2000F020F810BD70B5044697
:1004900000F0B6F8D02000F08FF800F059F82046B0
:1004A00000F08AF800F054F800F0AAF8D12000F02B
:1004B00083F800F04DF800F05AF80546012000F0EE
:1004C0006FF800F092F8284670BD70B505460C46EE
:1004D00000F096F8D02000F06FF800F039F82846C8
:1004E00000F06AF800F034F8204600F065F800F0FB
:1004F0002FF800F07AF870BD00BFFEE708B50121C3
:10050000082000F06BFA14208DF803004FF44060CF
:10051000ADF8000003208DF8020069460448FFF79B
:10052000A6FE4FF440610248FFF735FF08BD00000A
:10053000000C014010B54FF400610448FFF722FFA2
:1005400004460A20FFF77CFE204610BD000C014047
:1005500010B5012000F070F8012000F05FF8FFF7FF
:10056000E9FF0446002000F059F8204610BD70B5A0
:100570000025012000F060F800240DE0012000F0CB
:100580004DF8FFF7D7FF10B1802020410543002030
:1005900000F044F8601CC4B2082CEFDB284670BDA4
:1005A00010B50446204600F047F8012000F036F868
:1005B000002000F033F810BD70B50546002411E0AE
:1005C00080212141294009B1012100E00021084694
:1005D00000F032F8012000F021F8002000F01EF8B1
:1005E000601CC4B2082CEBDB70BD10B5002000F01D
:1005F00023F8012000F012F8012000F01DF810BDD2
:1006000010B5012000F018F8012000F007F80020D4
:1006100000F012F8002000F001F810BD10B50446FB
:1006200022464FF480610348FFF7B7FE0A20FFF728
:1006300007FE10BD000C014010B5044622464FF4E1
:1006400000610348FFF7A9FE0A20FFF7F9FD10BD7E
:10065000000C0140704770B500240EE000212046D8
:1006600000F0F3F8002504E0002000F0A6F9681C73
:10067000C5B2802DF8DB601CC4B2082CEEDB70BD67
:1006800008B50121082000F0A9F914208DF8030015
:1006900003208DF802004FF48070ADF80000694629
:1006A0000A48FFF7E4FD4FF40070ADF8000069461A
:1006B0000648FFF7DCFD012211020448FFF76DFE3A
:1006C000012251020148FFF768FE08BD000C0140FD
:1006D00070B50546002419E080202041284008B16B
:1006E000012000E0002002464FF400710E48FFF7A1
:1006F00054FE012211020C48FFF74FFE00224FF476
:1007000080710948FFF749FE601CC4B2082CE3DB86
:10071000012211020448FFF740FE00224FF48071CD
:100720000148FFF73AFE70BD000C014010B50122F0
:1007300051020A48FFF731FE012211020748FFF774
:100740002CFE00224FF400710448FFF726FE002221
:100750004FF480710148FFF720FE10BD000C0140EE
:1007600010B500224FF400710648FFF716FE012273
:1007700011020448FFF711FE012251020148FFF760
:100780000CFE10BD000C014070B5002406E00025F1
:1007900000E06D1CB5F57A7FFBD3641CB4F57A7F5D
:1007A000F5D3FFF76DFFAE2000F0F7F8D52000F08D
:1007B000F4F8802000F0F1F8A82000F0EEF83F20D7
:1007C00000F0EBF8D32000F0E8F8002000F0E5F8A6
:1007D000402000F0E2F8A12000F0DFF8C82000F08F
:1007E000DCF8DA2000F0D9F8122000F0D6F88120E9
:1007F00000F0D3F8CF2000F0D0F8D92000F0CDF8E9
:10080000F12000F0CAF8DB2000F0C7F8302000F03B
:10081000C4F8A42000F0C1F8A62000F0BEF88D2096
:1008200000F0BBF8142000F0B8F8AF2000F0B5F8E5
:10083000FFF711FF70BD10B50246012000E05043E4
:100840000B00A1F10101FAD110BD70B505460C46AF
:1008500045F0B00000F0A1F8102141EA141000F0BA
:100860009CF804F00F0000F098F870BD2DE9F041FD
:1008700005460E461746721ED206110E6A1E520615
:10088000100EFFF7E2FF002409E0A7F12001134A50
:1008900002EB0111085D00F090F8601CC4B2082C56
:1008A000F3DB721ED206110E6A1E012303EB420215
:1008B000D0B2FFF7CAFF00240BE0A7F12001074ADE
:1008C00002EB011204F10801505C00F076F8601CA4
:1008D000C4B2082CF1DBBDE8F0810000B40C0008C4
:1008E0002DE9F04781460E4690461F4600241DE044
:1008F000381B411E1020FFF79EFFB8FBF0F000F000
:100900000F050A2D08DA05F13000C2B23019C1B264
:100910004846FFF7ABFF07E005F13700C2B23019D8
:10092000C1B24846FFF7A2FF601CC4B2BC42DFDB85
:10093000BDE8F0872DE9F0478146884615461E46FA
:10094000002D06DB2B2241464846FFF78FFF2F463E
:1009500005E02D2241464846FFF788FF6F420024FC
:1009600017E0301B411E0A20FFF765FFB7FBF0F0D0
:100970000A21B0FBF1F201FB120000F1300A08EB92
:100980000400401CC1B252464846FFF76FFF601C8E
:10099000C4B2B442E5DBBDE8F08710B50446FFF70A
:1009A000C5FE7820FFF794FE0020FFF791FE204659
:1009B000FFF78EFEFFF7D4FE10BD10B50446FFF71B
:1009C000B5FE7820FFF784FE4020FFF781FE204629
:1009D000FFF77EFEFFF7C4FE10BD704729B1064A3F
:1009E00092690243044B9A6104E0034A926982438C
:1009F000014B9A617047000000100240704710B52B
:100A000000F002F810BD00000CB50020019000902D
:100A10003348006840F480303149086000BF3048F6
:100A2000006800F4003000900198401C019000988C
:100A300018B90198B0F5A06FF1D12948006800F409
:100A4000003010B10120009001E0002000900098DB
:100A5000012843D12348006840F010002149086074
:100A60000846006820F0030008600846006840F06F
:100A7000020008601A484068194948600846406802
:100A800048600846406840F4806048600846406816
:100A900020F47C1048600846406840F4E810486044
:100AA0000846006840F08070086000BF0C4800688D
:100AB00000F000700028F9D00948406820F00300D9
:100AC000074948600846406840F00200486000BF9F
:100AD0000348406800F00C000828F9D10CBD000064
:100AE00000100240002002407047000010B513487B
:100AF000006840F00100114908600846406810494C
:100B000008400E494860084600680E4908400B49F5
:100B100008600846006820F48020086008464068A5
:100B200020F4FE0048604FF41F008860FFF767FF65
:100B30004FF000600449086010BD00000010024042
:100B40000000FFF8FFFFF6FE08ED00E010B540F2F0
:100B50002551094800F025F801280CD1064800F07D
:100B60004AF80649087001200549087040F22551ED
:100B7000014800F007F810BD0038014000000020D7
:100B80000200002010B50022002340F66A14A142A2
:100B900000D100BF0A1201249440A3B2DC430480B8
:100BA00010BD70B50246002400230025002040F649
:100BB0006A16B14200D100BFC1F3421501F01F0314
:100BC000012606FA03F3012D02D19689334006E08F
:100BD000022D02D1168A334001E0968A33400C126E
:100BE000012606FA04F41688344013B10CB1012032
:100BF00000E0002070BD01468888C0F308007047FF
:100C000000BFFEE71CB5FFF7BFFDFFF723FC43E085
:100C100022482349234B244ACDE900102349244884
:100C2000FFF7C2FB7520FFF731FC04460223224682
:100C300004210846FFF754FE04231D48B0F90020A4
:100C400001210846FFF776FE04231848B0F900207A
:100C500001210220FFF76EFE04231348B0F90020A3
:100C600001210320FFF766FE04230E48B0F900209F
:100C700008210120FFF75EFE04230948B0F9002097
:100C800008210220FFF756FE04230448B0F9002093
:100C900008210320FFF74EFEBAE700000E000020F7
:100CA0000C0000200A0000200800002006000020A0
:100CB0000400002000000000000000000000000010
:100CC00000000000000000F80000000000000033F9
:100CD0003000000000100C06100C060000000000A0
:100CE0000000000040C07840C0784000043F040489
:100CF0003F040400007088FC08300000001820FF4A
:100D0000211E0000F008F000E018000000211C0384
:100D10001E211E0000F00888700000001E21232400
:100D20001927211010160E0000000000000000001E
:100D300000000000000000E01804020000000007AE
:100D40001820400000020418E000000000402018B5
:100D500007000000404080F0804040000202010F88
:100D600001020200000000F0000000000101011F6C
:100D700001010100000000000000000080B07000D0
:100D80000000000000000000000000000001010160
:100D900001010101000000000000000000303000EF
:100DA00000000000000000008060180400601806C9
:100DB0000100000000E010080810E000000F102003
:100DC00020100F00001010F8000000000020203F4D
:100DD00020200000007008080888700000302824D7
:100DE0002221300000300888884830000018202078
:100DF00020110E000000C02010F80000000704249D
:100E0000243F240000F808888808080000192120E1
:100E100020110E0000E0108888180000000F11203B
:100E200020110E0000380808C83808000000003FF4
:100E3000000000000070880808887000001C222153
:100E400021221C0000E010080810E0000000312200
:100E500022110F00000000C0C000000000000030A0
:100E600030000000000000800000000000008060F2
:100E70000000000000008040201008000001020473
:100E8000081020004040404040404000040404045A
:100E90000404040000081020408000000020100816
:100EA00004020100007048080808F000000000304B
:100EB00036010000C030C828E810E00007182724D9
:100EC00023140B000000C038E0000000203C230287
:100ED0000227382008F8888888700000203F2020EA
:100EE00020110E00C030080808083800071820201C
:100EF0002010080008F808080810E000203F202013
:100F000020100F0008F88888E8081000203F2020F3
:100F10002320180008F88888E8081000203F2000E7
:100F200003000000C030080808380000071820201F
:100F3000221E020008F808000008F808203F2101DE
:100F400001213F20000808F8080800000020203F89
:100F50002020000000000808F8080800C0808080F9
:100F60007F00000008F888C028180800203F2001F2
:100F70002638200008F8080000000000203F20204C
:100F80002020300008F8F800F8F80800203F003F63
:100F9000003F200008F830C00008F808203F20007B
:100FA00007183F00E01008080810E0000F1020208C
:100FB00020100F0008F808080808F000203F210161
:100FC00001010000E01008080810E0000F182424B8
:100FD00038504F0008F8888888887000203F20002B
:100FE000030C3020007088080808380000382021E1
:100FF00021221C00180808F8080818000000203FEB
:101000002000000008F808000008F808001F202051
:1010100020201F000878880000C838080000073822
:101020000E010000F80800F80008F800033C070073
:10103000073C0300081868808068180820302C03DB
:10104000032C30200838C800C83808000000203FB2
:101050002000000010080808C838080020382621A1
:1010600020201800000000FE020202000000007FA5
:1010700040404000000C30C00000000000000001B3
:101080000638C00000020202FE000000004040409E
:101090007F000000000004020202040000000000C3
:1010A0000000000000000000000000008080808040
:1010B0008080808000020204000000000000000028
:1010C00000000000000080808080000000192422C1
:1010D00022223F2008F8008080000000003F1120FD
:1010E00020110E000000008080800000000E112002
:1010F00020201100000000808088F800000E1120E0
:1011000020103F200000808080800000001F2222ED
:1011100022221300008080F0888888180020203F59
:10112000202000000000808080808000006B94946C
:101130009493600008F8008080800000203F210028
:1011400000203F2000809898000000000020203FF1
:1011500020200000000000809898000000C08080DF
:10116000807F000008F8000080808000203F24027B
:101170002D302000000808F8000000000020203F6B
:10118000202000008080808080808000203F200020
:101190003F20003F8080008080800000203F2100B1
:1011A00000203F200000808080800000001F202061
:1011B00020201F00808000808000000080FFA12090
:1011C00020110E000000008080808000000E1120A1
:1011D00020A0FF80808080008080800020203F2130
:1011E00020000100000080808080800000332424E3
:1011F00024241900008080E0808000000000001F8F
:10120000202000008080000000808000001F20203F
:1012100020103F20808080000080808000010E3000
:101220000806010080800080008080800F300C0361
:101230000C300F0000808000808080000020312E64
:101240000E312000808080000080808080818E7040
:101250001806010000808080808080000021302CF2
:101260002221300000000000807C0202000000000B
:10127000003F404000000000FF00000000000000B0
:10128000FF0000000002027C800000000040403FA0
:10129000000000000006010102020404000000003A
:1012A00000000000C4120008000000201000000030
:1012B00028010008D4120008100000206006000079
:1012C00044010008000000000000000000000000D1
:0412D000000000001A
:04000005080000ED02
:00000001FF
