:020000040800F2
:100000008008002001010008D9050008C704000885
:10001000CB040008450300086F0F00080000000033
:10002000000000000000000000000000D10A0008ED
:100030004903000800000000C3090008750C00080F
:100040001B0100081B0100081B0100081B01000820
:100050001B0100081B0100081B0100081B01000810
:100060001B0100081B0100081B0100081B01000800
:100070001B0100081B0100081B0100081B010008F0
:100080001B0100081B0100081B0100081B010008E0
:100090001B0100081B0100081B0100081B010008D0
:1000A0001B0100081B0100081B0100081B010008C0
:1000B000D90C00081B0100081B0100081B010008E7
:1000C0001B0100081B0100081B0100081B010008A0
:1000D0001B010008190D00081B0100081B01000886
:1000E0001B0100081B0100081B010008DFF80CD0F1
:1000F00000F018F800480047910F00088008002021
:100100000648804706480047FEE7FEE7FEE7FEE7B1
:10011000FEE7FEE7FEE7FEE7FEE7FEE7790C0008F4
:10012000ED000008064C074D06E0E06840F00103D2
:1001300094E8070098471034AC42F6D3FFF7DAFF93
:100140009C180008BC18000821B1826842F0010226
:10015000826003E0826822F00102826070470146FB
:1001600000208A6802F004020AB1012000E00020A9
:100170007047014600208A6802F008020AB1012097
:1001800000E000207047000030B502460020002348
:1001900050680F4C20400D790C6844EA0524204338
:1001A000506090680B4C2040D1E902542C434D79AB
:1001B00044EA450420439060D06A20F470000C7C2F
:1001C000641EE4B2234340EA0350D06230BD000015
:1001D000FFFEF0FFFDF7F1FFF0B504460D460020ED
:1001E0000021092D11DDE068A5F10A0606EB46079E
:1001F000072606FA07F18843A5F10A0606EB46062C
:1002000003FA06F10843E0600CE0206905EB4507BE
:10021000072606FA07F1884305EB450603FA06F1BF
:1002200008432061072A0FDA606B561E06EB86072B
:100230001F2606FA07F18843561E06EB860605FAC6
:1002400006F10843606322E00D2A0FDA206BD61F07
:1002500006EB86071F2606FA07F18843D61F06EB32
:10026000860605FA06F10843206310E0E06AA2F171
:100270000D0606EB86071F2606FA07F18843A2F152
:100280000D0606EB860605FA06F10843E062F0BDAE
:10029000816841F0080181607047816841F0040184
:1002A0008160704700B587B00121480200F096FBDD
:1002B0000121042000F092FB4FF4004000F082FB8B
:1002C00000208DF81B000220ADF8180003208DF8E7
:1002D0001A0006A9194800F05BF80523012211460F
:1002E0001748FFF779FF0020019004904FF4602039
:1002F000039000208DF809008DF8080001208DF88A
:10030000140001A90E48FFF73FFF01210C48FFF739
:100310001BFF0B48FFF7BCFF00BF0948FFF729FF91
:100320000128FAD00648FFF7B8FF00BF0448FFF7DE
:1003300016FF0128FAD007B000BD000000080140F8
:100340000024014000BFFEE7704700B5034603E00C
:100350004FF47A7000F005F81800A3F10103F7D10B
:1003600000BD00EBC001C9004FF0E0225161002147
:1003700091610521116100BF4FF0E021096901F48D
:1003800080310029F8D004214FF0E022116170473C
:100390002DE9F0410246002500260020002300241C
:1003A000002791F803C00CF00F0591F803C00CF082
:1003B000100CBCF1000F03D091F802C04CEA050507
:1003C00091F800C0BCF1000F31D0146800202BE080
:1003D0004FF0010C0CFA00F3B1F800C00CEA030670
:1003E0009E4220D183004FF00F0C0CFA03F7BC4360
:1003F00005FA03FC4CEA040491F803C0BCF1280F91
:1004000006D14FF0010C0CFA00FCC2F814C00AE04F
:1004100091F803C0BCF1480F05D14FF0010C0CFA64
:1004200000FCC2F810C0401C0828D1D31460B1F8F9
:1004300000C0BCF1FF0F34DD546800202EE000F155
:10044000080C4FF0010808FA0CF3B1F800C00CEAF0
:1004500003069E4221D183004FF00F0C0CFA03F7E4
:10046000BC4305FA03FC4CEA040491F803C0BCF158
:10047000280F05D100F1080C08FA0CF8C2F8148016
:1004800091F803C0BCF1480F07D100F1080C4FF000
:10049000010808FA0CF8C2F81080401C0828CED3D6
:1004A0005460BDE8F0810246002093680B400BB118
:1004B000012000E000207047016170470AB101612E
:1004C00000E04161704700BFFEE700BFFEE70000AB
:1004D00008B50121082000F081FA14208DF80300EE
:1004E0004FF44070ADF8000003208DF8020069461B
:1004F0000448FFF74DFF4FF440710248FFF7DCFF5F
:1005000008BD0000000C014010B54FF40071044814
:10051000FFF7C9FF04460A20FFF723FF204610BD5E
:10052000000C014010B5012000F04AF8012000F055
:100530003BF8FFF7E9FF0446002000F035F82046BD
:1005400010BD70B50546002411E0802121412940ED
:1005500009B1012100E00021084600F031F8012036
:1005600000F022F8002000F01FF8601CC4B2082C34
:10057000EBDB70BD10B5002000F022F8012000F088
:1005800013F8012000F01CF810BD10B5012000F098
:1005900017F8012000F008F8002000F011F8002002
:1005A00000F002F810BD000010B5044622464FF4DA
:1005B00080710248FFF782FF10BD0000000C01406F
:1005C00010B5044622464FF400710248FFF776FF4B
:1005D00010BD0000000C01407047000070B5002104
:1005E00000230F22C47804B3154C246804F4E0649B
:1005F000C4F5E064210AC1F10403CA40447804FA56
:1006000003F184781440214309010E4C0678A1556A
:10061000047804F01F050124AC4005786D11AD008D
:1006200005F1E025C5F8004109E0047804F01F0554
:100630000124AC40044D0678761145F8264070BD83
:100640000CED00E000E400E080E100E0024901433D
:10065000024A1160704700000000FA050CED00E04E
:1006600000200CE0002106E00022064B03EBC01343
:100670005A544A1CD1B28029F6DB421CD0B2082859
:10068000F0DB7047180000202DE9F04304460D46CA
:1006900016461F46284630E0234629E04FEAE07C14
:1006A00000EB5C7C4FEAEC0CDFF8588008EBCC1CCC
:1006B0001CF803C002464FEAE07800EB58784FEA96
:1006C000E808A0EBC8094FF0010808FA09F82CEA7D
:1006D000080C01464FEAE07800EB58784FEAE8084A
:1006E000DFF8209009EBC81808F803C0591CCBB2FA
:1006F000A1199942D2DC411CC8B2E9198142CBDC74
:10070000BDE8F0831800002010B5FFF7E1FE64207B
:10071000FFF71BFEAE2000F021F9D52000F01EF9F6
:10072000802000F01BF9A82000F018F93F2000F00D
:1007300015F9D32000F012F9002000F00FF9402045
:1007400000F00CF9A12000F009F9C82000F006F92A
:10075000DA2000F003F9122000F000F9812000F007
:10076000FDF8CF2000F0FAF8D92000F0F7F8F120DA
:1007700000F0F4F8DB2000F0F1F8302000F0EEF8A3
:10078000A42000F0EBF8A62000F0E8F88D2000F09F
:10079000E5F8142000F0E2F8AF2000F0DFF8642064
:1007A000FFF7D3FD10BD70B504460D4645F0B0000F
:1007B00000F0D4F804F00F0000F0D0F8102141EA66
:1007C000241000F0CBF870BDF8B506460F4614466D
:1007D0001D46062D0ED1A4F1200000EB40000D496E
:1007E00001EB40000823062239460090304600F015
:1007F00015F80DE0082D0BD1A4F12000064901EBFE
:1008000000101023082239460090304600F006F808
:10081000F8BD0000AC150008BC0F00082DE9F0473A
:1008200007460C4690469946DDF820A04B464246C6
:1008300021463846FFF728FF002655E03D464DE0AB
:100840002046E21704EB527206EBE2022C4B03EB5C
:10085000C212525D2146E31704EB5373DB10A4EB85
:10086000C30308FB065CACEB070C1AF80CC00CFACF
:1008700003FC42EA0C02E31704EB537306EBE303B9
:10088000DFF87CC00CEBC3135A55E21704EB52722D
:1008900006EBE202521C634603EBC212525DE31701
:1008A00004EB5373DB10A4EBC303C3F1080308FB91
:1008B000065CACEB070C1AF80CC04CFA03FC42EADD
:1008C0000C02E31704EB537306EBE3035B1CDFF846
:1008D00030C00CEBC3135A55681CC5B207EB0800B7
:1008E000A842ADDC701CC6B2A9F10100C11700EB33
:1008F0005171012202EBE101B1429FDCBDE8F087BA
:10090000180000202DE9F0410646884615461F468E
:10091000002409E02A5D04FB0761C8B23B4641465A
:10092000FFF752FF601CC4B2285D0028F2D1BDE879
:10093000F081000010B500240BE021460020FFF7F5
:1009400032FF054901EBC410802100F01DF8601C46
:10095000C4B2082CF1DB10BD1800002010B504460D
:10096000FFF713FE7820FFF7ECFDFFF7DBFD00201B
:10097000FFF7E7FDFFF7D6FD2046FFF7E2FDFFF7A3
:10098000D1FDFFF7F7FD10BD70B505460E46FFF728
:10099000FCFD7820FFF7D5FDFFF7C4FD4020FFF7F1
:1009A000D0FDFFF7BFFD002406E0285DFFF7C9FD7D
:1009B000FFF7B8FD601CC4B2B442F6DBFFF7DAFD06
:1009C00070BD704701460020034A506820F4404043
:1009D00008435060704700000010024029B1064AE9
:1009E00092690243044B9A6104E0034A926982438C
:1009F000014B9A61704700000010024030B50021A1
:100A00000022002400232D4D6D6805F00C0121B15A
:100A1000042905D0082923D105E0294D056022E0ED
:100A2000274D05601FE0254D6D6805F47012234DBC
:100A30006D6805F48034022505EB92421CB9214D06
:100A4000554305600BE01D4D6D6805F400351DB183
:100A50001C4D5543056002E0194D5543056002E009
:100A6000174D056000BF00BF144D6D6805F0F00123
:100A70000909154D6B5C0568DD4045600F4D6D68DB
:100A800005F4E061090A104D6B5C4568DD40856046
:100A90000A4D6D6805F46051C90A0B4D6B5C4568E1
:100AA000DD40C560054D6D6805F44041890B074D7B
:100AB0006B5CC568B5FBF3F5056130BD0010024005
:100AC00000127A0000093D00000000201000002004
:100AD0007047000000B587B001218803FFF77EFF53
:100AE00001210420FFF77AFF18208DF817004FF43A
:100AF0000070ADF8140003208DF8160005A92148F8
:100B0000FFF746FC48208DF817004FF48060ADF8E1
:100B1000140003208DF8160005A91A48FFF738FCC9
:100B20004FF4E13001900020ADF810000C20ADF83A
:100B30000E000020ADF80C00ADF80A00ADF808007A
:100B400001A9114800F0A2F9012240F225510E48F6
:100B500000F077F94FF4A060FFF778FD25208DF8BD
:100B6000180001208DF81B008DF819008DF81A006F
:100B700006A8FFF733FD0121034800F02CF907B068
:100B800000BD0000000801400038014010B500F031
:100B900001F810BD0CB500200190009033480068AA
:100BA00040F480303149086000BF3048006800F4EC
:100BB000003000900198401C0190009818B90198ED
:100BC000B0F5A06FF1D12948006800F4003010B1F1
:100BD0000120009001E0002000900098012843D1FE
:100BE0002348006840F0100021490860084600686A
:100BF00020F0030008600846006840F0020008602A
:100C00001A484068194948600846406848600846E4
:100C1000406840F4806048600846406820F47C10DA
:100C200048600846406840F4E8104860084600689C
:100C300040F08070086000BF0C48006800F0007051
:100C40000028F9D00948406820F0030007494860AF
:100C50000846406840F00200486000BF0348406812
:100C600000F00C000828F9D10CBD00000010024073
:100C7000002002407047000010B51348006840F0A3
:100C800001001149086008464068104908400E49B3
:100C90004860084600680E4908400B49086008464D
:100CA000006820F4802008600846406820F4FE00B8
:100CB00048604FF41F008860FFF768FF4FF0006046
:100CC0000449086010BD0000001002400000FFF859
:100CD000FFFFF6FE08ED00E010B50121880700F0E7
:100CE0000AF8012803D10121800700F001F810BDA6
:100CF000CA430282704730B5024600200023002418
:100D0000158A05EA0103958905EA010413B10CB1BE
:100D1000012000E0002030BD10B540F225512148EF
:100D200000F065F801283CD11E4800F01BF9C4B260
:100D30001D48007858B94B2C2DD11C48007850BB69
:100D400001201949087000201949087023E016484D
:100D5000007801280FD10D2C03D102201249087010
:100D600019E0144812490978445411480078401C8D
:100D70000F4908700FE00C48007802280BD10A2CAC
:100D800009D10020084908700A49094A1278885494
:100D900001200649087040F22551024800F00CF885
:100DA00000BF10BD003801401500002014000020D5
:100DB000160000201804002010B50022002340F681
:100DC0006A14A14200D100BF0A1201249440A3B2C8
:100DD000DC43048010BD21B1828942F4005282813B
:100DE00004E082894DF6FF731A408281704770B526
:100DF0000246002400230025002040F66A16B14276
:100E000000D100BFC1F3421501F01F03012606FA0D
:100E100003F3012D02D19689334006E0022D02D161
:100E2000168A334001E0968A33400C12012606FAF6
:100E300004F41688344013B10CB1012000E0002006
:100E400070BDF0B50346002400260025002040F6C2
:100E50006A17B94200D100BF1846C1F3421401F02D
:100E60001F06012707FA06F5012C01D10C3004E01A
:100E7000022C01D1103000E014301AB107682F4362
:100E8000076002E00768AF430760F0BD2DE9F04757
:100E900086B005460E460024A24600BFA1460027A4
:100EA000B08900B100BF2F462C8A4CF6FF70044079
:100EB000F08804432C82AC894EF6F3100440B088CD
:100EC00031890843718908430443AC81AC8A4FF6E9
:100ED000FF400440B0890443AC8201A8FFF78EFDB7
:100EE0001F48874202D1DDF810A001E0DDF80CA018
:100EF000A88900F4004040B10AEBCA0000EB0A10D8
:100F000031684900B0FBF1F807E00AEBCA0000EBDA
:100F10000A1031688900B0FBF1F86420B8FBF0F0EA
:100F200004012009642101FB1089A88900F4004014
:100F300040B1322000EBC900B0FBF1F000F0070037
:100F4000044308E0322000EB09106421B0FBF1F00B
:100F500000F00F0004432C8106B0BDE8F0870000CC
:100F60000038014001468888C0F30800704700BF80
:100F7000FEE702E008C8121F08C1002AFAD1704734
:100F80007047002001E001C1121F002AFBD1704709
:100F9000FFF788F9FFF79EFDFFF7B6FBFFF760FB51
:100FA000062304A200210846FFF7ACFCFFF7C2FCB1
:100FB00000BFFEE7566F6C6167653A0000000000F5
:100FC000000000000000000000000000000000F829
:100FD00000000000000000333000000000160E008A
:100FE000160E0000000000000000000040C0784025
:100FF000C0784000043F04043F040400007088FCF3
:1010000008300000001820FF211E0000F008F0004A
:10101000E018000000211C031E211E0000F00888BB
:10102000700000001E212324192721100000001643
:101030000E0000000000000000000000000000E0C2
:1010400018040200000000071820400000020418E5
:10105000E00000000040201807000000404080F041
:10106000804040000202010F01020200000000F077
:10107000000000000101011F01010100000000004B
:101080000000000000B07000000000000000000040
:101090000000000000010101010101010000000049
:1010A00000000000003030000000000000000000E0
:1010B00080601804006018060100000000E01008BD
:1010C0000810E000000F102020100F00001010F892
:1010D000000000000020203F2020000000700808D1
:1010E0000888700000302824222130000030088851
:1010F000884830000018202020110E000000C02079
:1011000010F8000000070424243F240000F8088899
:10111000880808000019212020110E0000E0108826
:1011200088180000000F112020110E000038080858
:10113000C83808000000003F000000000070880868
:1011400008887000001C222121221C0000E01008E9
:101150000810E0000000312222110F00000000C042
:10116000C00000000000003030000000000000C09F
:10117000C0000000000080B070000000000080404F
:1011800020100800000102040810200040404040E8
:10119000404040000404040404040400000810203B
:1011A0004080000000201008040201000070480880
:1011B0000808F0000000003036010000C030C828E8
:1011C000E810E0000718272423140B000000C038A3
:1011D000E0000000203C23020227382008F888881D
:1011E00088700000203F202020110E00C030080829
:1011F00008083800071820202010080008F8080800
:101200000810E000203F202020100F0008F88888F8
:10121000E8081000203F20202320180008F88888C4
:10122000E8081000203F200003000000C03008083C
:101230000838000007182020221E020008F80800C5
:101240000008F808203F210101213F20000808F88C
:10125000080800000020203F2020000000000808AF
:10126000F8080800C08080807F00000008F888C06F
:1012700028180800203F20012638200008F8080020
:1012800000000000203F20202020300008F8F80057
:10129000F8F80800203F003F003F200008F830C069
:1012A0000008F808203F200007183F00E010080859
:1012B0000810E0000F10202020100F0008F8080888
:1012C0000808F000203F210101010000E01008089B
:1012D0000810E0000F18242438504F0008F88888C0
:1012E00088887000203F2000030C302000708808A0
:1012F000080838000038202121221C00180808F8AE
:10130000080818000000203F2000000008F808002E
:101310000008F808001F202020201F0008788800FF
:1013200000C83808000007380E010000F80800F86F
:101330000008F800033C0700073C03000818688019
:101340008068180820302C03032C30200838C8008F
:10135000C83808000000203F2000000010080808DE
:10136000C83808002038262120201800000000FE80
:10137000020202000000007F40404000000C30C02C
:1013800000000000000000010638C0000002020258
:10139000FE000000004040407F00000000201008D8
:1013A0000408102000000000000000000000000001
:1013B000000000008080808080808080000204081F
:1013C000000000000000000000000000000080801D
:1013D000808000000019242222223F2008F800808B
:1013E00080000000003F112020110E00000000804E
:1013F00080800000000E11202020110000000080DD
:101400008088F800000E112020103F20000080800E
:1014100080800000001F222222221300008080F022
:10142000888888180020203F20200000000080804D
:1014300080808000006B94949493600008F8008092
:1014400080800000203F210000203F2000809898ED
:10145000000000000020203F20200000000000804D
:101460009898000000C08080807F000008F800008D
:1014700080808000203F24022D302000000808F8E2
:10148000000000000020203F20200000808080809D
:1014900080808000203F20003F20003F00808000AF
:1014A0008080000000203F2100203F20000080803D
:1014B00080800000001F202020201F0080800080EE
:1014C0008000000080FFA12020110E00000000809D
:1014D00080808000000E112020A0FF80808080008E
:1014E0008080800020203F212000010000008080BB
:1014F000808080000033242424241900008080E0B0
:10150000808000000000001F20200000808000007C
:1015100000808000001F202020103F20808080005D
:101520000080808000010E3008060100808000806D
:10153000008080800F300C030C300F000080800092
:10154000808080000020312E0E31200080808000BD
:101550000080808080818E7018060100008080806D
:10156000808080000021302C22213000000000000B
:10157000807C020200000000003F404000000000AC
:10158000FF00000000000000FF0000000002027CDD
:10159000800000000040403F00000000008040400C
:1015A0008000008000000000000101000000000039
:1015B00000000000002F00000000070007000014DA
:1015C0007F147F1400242A7F2A12002313086462E8
:1015D00000364955225000000007000000001C2280
:1015E0004100000041221C000014083E08140008BD
:1015F000083E0808000000A060000008080808086D
:10160000000060600000002010080402003E514904
:10161000453E0000427F40000042615149460021A2
:1016200041454B31001814127F10002745454539BC
:10163000003C4A4949300001710905030036494917
:10164000493600064949291E0000363600000000D0
:10165000563600000008142241000014141414141B
:10166000000041221408000201510906003E4955BC
:10167000592E007C1211127C007F49494936003EE8
:1016800041414122007F4141221C007F494949419B
:10169000007F09090901003E4149497A007F080895
:1016A000087F0000417F4100002040413F01007F52
:1016B00008142241007F40404040007F020C027F1E
:1016C000007F0408107F003E4141413E007F090930
:1016D0000906003E4151215E007F09192946004656
:1016E000494949310001017F0101003F4040403F2D
:1016F000001F2040201F003F4038403F0063140877
:101700001463000708700807006151494543000051
:101710007F414100000204081020000041417F0089
:101720000004020102040040404040400000010269
:101730000400002054545478007F48444438003852
:101740004444442000384444487F003854545418DA
:1017500000087E0901020018A4A4A47C007F0804EC
:1017600004780000447D4000004080847D00007FBC
:10177000102844000000417F4000007C04180478D9
:10178000007C0804047800384444443800FC2424D5
:1017900024180018242418FC007C080404080048BD
:1017A0005454542000043F444020003C4040207CDE
:1017B000001C2040201C003C4030403C00442810CD
:1017C0002844001CA0A0A07C004464544C440000A9
:1017D000087F41000000007F00000000417F0800FA
:1017E000000804081008E4BDA000008060F807406D
:1017F00020180F08C80808281800010000FF001072
:101800000C0340807F0001061800E5A5BD00101004
:10181000F01F10F000808282E2928A8680004022CF
:1018200015081661000040807F0000000000E4B849
:101830009600202020FE2020FF202020FF202020B6
:1018400020000000007F404047444444474040405F
:101850000000E7958C00000000FE929292FE9292AA
:1018600092FE0000000008080484621E010001FED0
:1018700002040408080000000000FFFFFFFFFFFF54
:10188000FFFFFFFFFFFFFFFFFFFFFFFFFFFFFFFF68
:10189000FFFFFFFFFFFFFFFFFFFF0000BC18000876
:1018A0000000002018000000720F0008D418000883
:1018B0001800002068080000820F000800000000E7
:1018C00001020304010203040607080902040608D2
:0418D0000000000014
:04000005080000ED02
:00000001FF
