:020000040800F2
:10000000600A00206D010008D1040008C103000847
:10001000C50300083F020008FD07000800000000BB
:10002000000000000000000000000000AD06000815
:1000300043020008000000008B0600089907000832
:100040008701000887010008870100088701000870
:100050008701000887010008870100088701000860
:100060008701000887010008870100088701000850
:100070008701000887010008870100088701000840
:100080008701000887010008870100088701000830
:100090008701000887010008870100088701000820
:1000A0008701000887010008870100088701000810
:1000B0008701000887010008870100088701000800
:1000C00087010008870100088701000887010008F0
:1000D00087010008870100088701000887010008E0
:1000E00087010008870100088701000800F002F876
:1000F00000F02CF80AA090E8000C82448344AAF196
:100100000107DA4501D100F021F8AFF2090EBAE893
:100110000F0013F0010F18BFFB1A43F0010318473B
:10012000B0190000C019000000230024002500269B
:10013000103A28BF78C1FBD8520728BF30C148BF4A
:100140000B6070471FB51FBD10B510BD00F044F81F
:100150001146FFF7F7FF00F0D5FE00F062F803B498
:10016000FFF7F2FF03BC00F063F800000948804786
:1001700009480047FEE7FEE7FEE7FEE7FEE7FEE789
:10018000FEE7FEE7FEE7FEE704480549054A064BA1
:10019000704700009D070008ED0000086004002083
:1001A000600A00206006002060060020704770474B
:1001B000704710B500F008F8006810BD10B504468F
:1001C00000F002F8046010BD0048704700040020F1
:1001D00000487047000400207546FFF7F9FFAE465F
:1001E00005006946534620F00700854618B020B543
:1001F000FFF7CAFFBDE820404FF000064FF00007B0
:100200004FF000084FF0000B21F00701AC46ACE8BE
:10021000C009ACE8C009ACE8C009ACE8C0098D462B
:1002200070470446AFF300802046FFF798FF0000B8
:1002300001491820ABBEFEE726000200704700BF50
:10024000FEE7704700B5034603E04FF47A7000F014
:1002500005F81800A3F10103F7D100BD00EBC001C0
:10026000C9004FF0E0225161002191610521116127
:1002700000BF4FF0E021096901F480310029F8D076
:1002800004214FF0E022116170472DE9F041024650
:1002900000250026002000230024002791F803C039
:1002A0000CF00F0591F803C00CF0100CBCF1000F1E
:1002B00003D091F802C04CEA050591F800C0BCF1EA
:1002C000000F31D0146800202BE04FF0010C0CFA25
:1002D00000F3B1F800C00CEA03069E4220D183006F
:1002E0004FF00F0C0CFA03F7BC4305FA03FC4CEA81
:1002F000040491F803C0BCF1280F06D14FF0010CA3
:100300000CFA00FCC2F814C00AE091F803C0BCF17A
:10031000480F05D14FF0010C0CFA00FCC2F810C0D8
:10032000401C0828D1D31460B1F800C0BCF1FF0F05
:1003300034DD546800202EE000F1080C4FF0010875
:1003400008FA0CF3B1F800C00CEA03069E4221D172
:1003500083004FF00F0C0CFA03F7BC4305FA03FCC3
:100360004CEA040491F803C0BCF1280F05D100F158
:10037000080C08FA0CF8C2F8148091F803C0BCF11C
:10038000480F07D100F1080C4FF0010808FA0CF8EB
:10039000C2F81080401C0828CED35460BDE8F0811C
:1003A0000246002093680B400BB1012000E00020C2
:1003B0007047016170470AB1016100E04161704717
:1003C00000BFFEE700BFFEE708B50121082000F0EE
:1003D0005DF914208DF803004FF44070ADF8000073
:1003E00003208DF8020069460448FFF74EFF4FF4E2
:1003F00040710248FFF7DDFF08BD0000000C01401E
:1004000010B54FF400710448FFF7CAFF04460A20F4
:10041000FFF724FF204610BD000C014010B501205D
:1004200000F04AF8012000F03BF8FFF7E9FF04462E
:10043000002000F035F8204610BD70B505460024B8
:1004400011E080212141294009B1012100E0002172
:10045000084600F031F8012000F022F8002000F0FA
:100460001FF8601CC4B2082CEBDB70BD10B5002077
:1004700000F022F8012000F013F8012000F01CF831
:1004800010BD10B5012000F017F8012000F008F8A9
:10049000002000F011F8002000F002F810BD00006C
:1004A00010B5044622464FF480710248FFF783FFDF
:1004B00010BD0000000C014010B5044622464FF468
:1004C00000710248FFF777FF10BD0000000C0140EB
:1004D0007047000000200CE0002106E00022064BDF
:1004E00003EBC0135A544A1CD1B28029F6DB421CDC
:1004F000D0B20828F0DB70470000002070B503463A
:10050000CC1701EB5474E4100B4D05EBC414E45C00
:100510000A46CD1701EB5575ED10A1EBC506012577
:10052000B5402C430846CD1701EB5575ED10024E32
:1005300006EBC515EC5470BD0000002010B5FFF7A8
:1005400043FF6420FFF77EFEAE2000F06BF8D5205D
:1005500000F068F8802000F065F8A82000F062F84C
:100560003F2000F05FF8D32000F05CF8002000F09E
:1005700059F8402000F056F8A12000F053F8C820A8
:1005800000F050F8DA2000F04DF8122000F04AF8A0
:10059000812000F047F8CF2000F044F8D92000F087
:1005A00041F8F12000F03EF8DB2000F03BF830206D
:1005B00000F038F8A42000F035F8A62000F032F85A
:1005C0008D2000F02FF8142000F02CF8AF2000F060
:1005D00029F86420FFF736FE10BD70B504460D46BD
:1005E00045F0B00000F01EF804F00F0000F01AF81B
:1005F000102141EA241000F015F870BD10B5002458
:100600000BE021460020FFF7E8FF054901EBC4108D
:10061000802100F01DF8601CC4B2082CF1DB10BD75
:100620000000002010B50446FFF72BFF7820FFF7ED
:1006300004FFFFF7F3FE0020FFF7FFFEFFF7EEFEDB
:100640002046FFF7FAFEFFF7E9FEFFF70FFF10BDA8
:1006500070B505460E46FFF714FF7820FFF7EDFE54
:10066000FFF7DCFE4020FFF7E8FEFFF7D7FE00248F
:1006700006E0285DFFF7E1FEFFF7D0FE601CC4B284
:10068000B442F6DBFFF7F2FE70BD704729B1064AAF
:1006900092690243044B9A6104E0034A92698243DF
:1006A000014B9A617047000000100240704710B57E
:1006B00000F002F810BD00000CB500200190009081
:1006C0003348006840F480303149086000BF30484A
:1006D000006800F4003000900198401C01900098E0
:1006E00018B90198B0F5A06FF1D12948006800F45D
:1006F000003010B10120009001E00020009000982F
:10070000012843D12348006840F0100021490860C7
:100710000846006820F0030008600846006840F0C2
:10072000020008601A484068194948600846406855
:1007300048600846406840F4806048600846406869
:1007400020F47C1048600846406840F4E810486097
:100750000846006840F08070086000BF0C480068E0
:1007600000F000700028F9D00948406820F003002C
:10077000074948600846406840F00200486000BFF2
:100780000348406800F00C000828F9D10CBD0000B7
:1007900000100240002002407047000010B51348CE
:1007A000006840F00100114908600846406810499F
:1007B00008400E494860084600680E4908400B4949
:1007C00008600846006820F48020086008464068F9
:1007D00020F4FE0048604FF41F008860FFF767FFB9
:1007E0004FF000600449086010BD00000010024096
:1007F0000000FFF8FFFFF6FE08ED00E000BFFEE797
:10080000490050EAC12018BF04204A0D18BF40F02B
:10081000010040F2FF72B2EB515F08BF40F00200EE
:10082000012808BF052070472DE9F74F144694B002
:100830000021C4E902111599079121F00045C94929
:100840008D4206DC1599C4E9000117B00020BDE80F
:10085000F08FC549DFF814A3A9423CDD0799C44EC7
:100860000029C44FC44A1599534619DD00F03EFFD4
:10087000554506D0C14AC24B00F038FFC4E900011B
:100880000AE04FF0D352BE4B00F030FF32463B46F9
:1008900000F02CFFC4E9000117B00120BDE8F08F83
:1008A00000F08AFB554506D0B44AB54B00F084FBF6
:1008B000C4E900010AE04FF0D352B14B00F07CFBD9
:1008C00032463B4600F078FBC4E9000117B04FF018
:1008D000FF30BDE8F08FAB49A942159978DB21F0D4
:1008E000004183468846A84AA84B00F0F5FD002247
:1008F000A74B00F061FB00F067FD099000F0C1FD1F
:1009000006460F469C4A534600F0E6FD43465A46CB
:1009100000F0E0FE80468A46984A994B30463946B8
:1009200000F0DAFD2A0D01250B924246534600F0F5
:10093000D1FE032DC4E9000139D00B98C1F30A514F
:10094000401A05EB45111139814230DA9148C3460E
:10095000784400EB0510CDF80CA00C90D0E90023F2
:100960003046394600F0B8FD02460B460491069029
:100970005846039900F0BAFE80468A4602460B4666
:100980005846039900F0B2FE049B069A00F0AEFEB2
:1009900083460C9803913946D0E90223304600F093
:1009A0009BFD5A46039B00F0A1FE6D1CBDE7079816
:1009B0000028A2BF099817B0BDE8F08F616881F0E8
:1009C00000416160099817B04042BDE8F08FFFE731
:1009D00084461598C1F31301C0F30A50A0F2F53014
:1009E0004FEA601800F01F06C6F1200013900020A7
:1009F0000690079041F4801E05206D4676B1664A48
:100A000008EB00017A4452F8213002EB8101B34037
:100A10004A68139922FA01F1194305E05F4908EB8E
:100A20000002794451F82210A1FB0E27A1FB0C1300
:100A30001A449A4234BF0123002303EB070A05EB53
:100A40008003D3E901B70F448F4234BF0121002155
:100A500093448B4411B1934502D903E0934501D2ED
:100A6000012100E00021C3E901B7514445F82010FD
:100A7000011EA0F10100C1DC0298059F00F10050A9
:100A8000800F12900298DDE90356800000F0F9FC17
:100A9000834628460D9100F00BFD6FF01D0200F01B
:100AA00041FFCDE90E01304600F002FD6FF03D023E
:100AB00000F038FF80468A46384600F0F9FC6FF0B7
:100AC0005D0200F02FFF074642465346119100F0A9
:100AD00073FADDE90E2300F06FFA5A460D9B00F021
:100AE0006BFA00250E465A4628460D9B00F0FEFD87
:100AF000DDE90E2300F0FAFD4246534600F0F6FD14
:100B00003A46119B00F0E6FDDFF898A0244A5346D0
:100B100000F0E2FC07468846234A244B314628462B
:100B200000F0DAFC3A46434600F046FA07468846AB
:100B30004FF0A84253463146284600F0CDFC3A46D5
:100B4000434600F039FA159A12F0004F04D0129A79
:100B500081F0004152421292C4E90001129817B08C
:100B6000BDE8F08FFB21E93F7CD90240FB21F93F32
:100B70007370032E8A19A33B000040543163621A3C
:100B800061B4D03DFB21394183C8C96D305FE43F7A
:100B90000000E03F8C10000008100000EA0F000089
:100BA000182D4454FB21F93D3326A611460B113C68
:100BB0002DE9FF4D21F0004807460C46B8F1795F5A
:100BC00008DA00F001FC002801BF0020324904B01F
:100BD000BDE8F08D3A4623461046194600F07CFCED
:100BE000054602462D480E460B460621784400F085
:100BF0005DF82A46334600F06FFCDDE902238246A9
:100C00008B463846214600F067FC04460F465246A4
:100C10005B462846314600F05FFC22463B4600F02A
:100C200065FD07468A464FF0FF322846314600F000
:100C300079FE1B4A90450ADA3A46534600F056FDC3
:100C400004B00022BDE8F04D134B00F043BD154A3F
:100C50004245A8BFA8F500154FF00004B8BF124DDB
:100C600022462B4600F042FD0646884622462B4689
:100C70000020094900F03AFD04460D463A46534625
:100C80003046414600F032FD04B022462B46BDE816
:100C9000F04D00F01FBD00000000F03FC00D00004F
:100CA0003333D33F0000E93F0000D23F2DE9F0414C
:100CB0004F1E00EBC7010446D1E9000115461E4650
:100CC00037F006020DD02A46334600F005FC7F1EA1
:100CD00004EBC703D3E9002300F06EF937F00602F6
:100CE000F1D1022F25D0042F13D0062F18BFBDE855
:100CF000F0812A46334600F0EFFBD4E90A2300F0E6
:100D00005BF92A46334600F0E7FBD4E9082300F0FC
:100D100053F92A46334600F0DFFBD4E9062300F0FE
:100D20004BF92A46334600F0D7FBD4E9042300F000
:100D300043F92A46334600F0CFFBD4E9022300F002
:100D40003BF92A46334600F0C7FBD4E90023BDE84F
:100D5000F04100F031B900002DE9FF4D054621F0CA
:100D6000004084B00C46B0F1795F0BDA2846FFF7FB
:100D700047FD042808BF00F06FF8284608B0214658
:100D8000BDE8F08D2A460B46104600F0A5FB06464E
:100D90000F462A46234600F09FFB804626488A4697
:100DA00032463B4605217844FFF780FF8346109882
:100DB000029160B3214A224B4046514600F08CFB21
:100DC000CDE900015A4640465146029B00F084FBA3
:100DD00082468846DDE906014FF0FF3200F0A2FDB1
:100DE0005246434600F082FC32463B4600F074FB1C
:100DF000DDE9062300F07AFCDDE9002300F076FC53
:100E000008B02A462346BDE8F04D00F063BC0B460F
:100E10005A463046394600F05FFB084A084B00F05E
:100E2000CBF84246534600F057FB08B02A4623460B
:100E3000BDE8F04D00F0C0B8FE0C00004955555516
:100E40005555C5BF012200F06DBD00221346104666
:100E5000114600F061B90000024A0020110700F0BD
:100E600061BD000001FDFFFF00B5244B21F00042F1
:100E700087B09A42DCBF0022134629DD204B9A42FC
:100E800008D140B94FF00100FFF798F9FFF7DDFFF7
:100E900007B000BD03DBFFF7D5FF07B000BD02AA16
:100EA000FFF7C2FC10F0030104BF0DF1080C9CE831
:100EB0000F000DD0012001290ED0022914D00DF110
:100EC000080C00909CE80F00FFF746FF07B000BD3C
:100ED000FFF76EFE07B000BD0DF1080C00909CE816
:100EE0000F00FFF739FF05E00DF1080C9CE80F003B
:100EF000FFF75EFE07B081F0004100BDFB21E93F36
:100F00000000F07F8AB0FFF719FBFFF7E3FA48E033
:100F10004FF0000B42E04FF0000A31E00AEB4B00CB
:100F200000F0AFFA064600221E4B00F0F5F804462A
:100F300000224FF0804300F0CFFA1B4A1B4BCDE953
:100F4000000100F0C9FACDE90201FFF78DFF002290
:100F5000174BCDE9040100F0BFFA80460022154B83
:100F600000F02AF8CDE9060100F05EFAC0B20146B1
:100F700008905046FFF7C2FA0AF1010000F0FF0A9C
:100F8000BAF1800FCADBFFF739FB3220FFF75AF9BD
:100F9000FFF7A0FA0BF1010000F0FF0BBBF1400FCF
:100FA000B9DBB5E7000060401F85EB51B81E094072
:100FB000000040C00000404010B591EA030F48BF58
:100FC00083F0004300F19A83841A71EB030C05D27D
:100FD000121943EB0C03001B61EB0C01DFF824E159
:100FE0004FEA1154A4EB135C1EEA430F18BF9EEAAC
:100FF000445F73D023EA0E03DCF1200E21EA045192
:1010000043F4801332D322FA0CFE10EB0E0023FAC5
:101010000CFE41EB0E01CCF1200E03FA0EFE10EB9C
:101020000E0051F10001B1F5801FCCF1200E32D23B
:1010300001EB045112FA0EF2BDE8104058BF7047A0
:10104000401C38BF5FEA420218BF7047002814BF37
:1010500020F0010041F100014FEA410313F5001FA8
:1010600038BF7047A1F1C04100F02EBB012A43EB0D
:101070000302ACF1200CDCF11F0E32BF4FF0000E6A
:1010800023FA0CF310EB030041EB0451B4EB115FB6
:10109000D0D0A1EB045101F5801149085FEA30007E
:1010A00001EB04510ED350F1000038BF12FA0EFECE
:1010B00008D1BDE81040C9E7401C38BF5FEA4202D2
:1010C000CAD1C3E7BDE810404FEA410313F5001F42
:1010D00038BF7047A1F1C04100F0F6BA9EEA445F04
:1010E00008D011EA5E0FBDE8104004BF01F00041D6
:1010F00000207047BDE8104070B500F097FA00BFBF
:1011000064FBBE3E0000E0FF02494FF0000000F02B
:10111000D7BB00BF0000F87F2DE9C04130B4DFF835
:10112000A0C23CEA111418BF3CEA131400F0EC8092
:1011300081EA03051CEA111444EAD57418BF1CEABD
:10114000131500F0C780A4EB05044FF0004545EAF5
:10115000C12145EAC32341EA505143EA525304F105
:101160007F74994204F500344FEAC0204FEAC2224E
:1011700008BF904200F09C804FEA13650FF24016C2
:10118000765D4FEA134506FB05F7C7F1807706FB4E
:1011900007F74FEAD737A7FB03687642C8F58038D0
:1011A000A7FB06CE38BFA8F1010807FB08E64FF001
:1011B000000EA6FB028CE6FB03CEDCF1000CCEF1A8
:1011C000004E38BFAEF1010EA6FB0C584FF00007E1
:1011D0004FF00005E6FB0E87A1FB08C6A0FB07CE7B
:1011E00016EB0E0645F10005E1FB076515F1E04E33
:1011F0007EBFA4F580345FEA46066D4116F1800794
:1012000045F100054FEA17274FEA066647EA0567EA
:10121000A6F1DE46B6F1805F4FEA15251FD93846A4
:1012200024F0010C05EBC471BCF1FE6F01EB0C1155
:1012300002D8F0BCBDE8008124425CBF01F5801EED
:101240009EEAC47F02D4F0BCBDE80081244238D4B9
:10125000F0BCA1F1C041BDE8004100F035BA4FEA51
:10126000D22242EA43524FEAD323A7FB02864FEA37
:10127000D02040EA415007FB03661EEA0E0F4FEAFA
:10128000D12105FB026658BFA6EB0056B6EB00560F
:101290004FEA520E4EEAC37E18EB0E0E56EB530E7B
:1012A000BDD518EB02085E417F1C55F10005B6E77D
:1012B0004FF480154FF000074FF000064FF0000884
:1012C000ADE7F0BC4FF0000001F1C04101F000417A
:1012D000BDE8008111EA0C1F0CEA131500D00CE0E8
:1012E00013EA0C1F00F025804FF00000F0BC81EAEB
:1012F000030101F00041BDE80081F0BCBDE8004100
:1013000081EA030100F0E0B9F0BCBDE8004170B52E
:1013100000F08CF9097EFC3E00F007B881EA030179
:101320004FF0000001F00041704781EA030100F036
:10133000CBB9F0BCBDE800414FF000002149704737
:10134000FFFDFBF9F7F5F4F2F0EEEDEBE9E8E6E48A
:10135000E3E1E0DEDDDBDAD8D7D5D4D3D1D0CFCD11
:10136000CCCBCAC8C7C6C5C4C2C1C0BFBEBDBCBB4A
:10137000BAB9B8B7B6B5B4B3B2B1B0AFAEADACAB45
:10138000AAA9A8A8A7A6A5A4A3A3A2A1A09F9F9E1F
:101390009D9C9C9B9A9999989797969595949393D1
:1013A000929191908F8F8E8E8D8C8C8B8B8A898968
:1013B00088888787868585848483838282818180EB
:1013C0000000FF070000F87F4FEA41034FEA535344
:1013D000A3F58063D3F11E03C8BFD3F1210C0CDD4C
:1013E0004FF0004242EAC12242EA505232FA03FC74
:1013F0008CEAE17CACEBE1707047102BC4BF00209D
:10140000704703F5787CBCF1FF3F04D06FF00042D9
:1014100082EA2100704770B500F008F949922480F3
:1014200000207047F2E700004FEA1153A3F58063F4
:10143000D3F11E03A8BFD3F1200C08DB4FF000420C
:1014400042EAC12252EA505232FA03F0704709428E
:101450000BD4102BC4BF0020704703F5787CBCF17F
:10146000FF3F05D04FF0FF3070474FF0000070474E
:1014700070B500F0DBF800BF49922480002070476F
:10148000F0E710F0004248BF4042B0FA80F310FA93
:1014900003F10AD0C3F11D0303F580634FEA415005
:1014A00002EB035202EBD12170474FF0000070476E
:1014B000B0FA80F310FA03F10AD0C3F11D0303F56B
:1014C00080634FEA41504FEA035202EBD12170474B
:1014D0004FF0000070470000DFF848C170B51CEA0B
:1014E000111E1EBF1CEA13159EEA0C0F95EA0C0F85
:1014F00000F06F8081EA030423EA4C134EEAD47EA5
:1015000021EA4C1141F4801143F48013AE44A1FB55
:10151000024CA0FB0365AEF17F7E361955EB0C053E
:10152000A1FB034C4CF10003A0FB021C16EB0C06C4
:10153000654153F10003094218BF46F0010613F458
:10154000007F0BD14FEA03314FEA0530340341EA03
:10155000155140EA16506FF003020AE04FEAC3212A
:101560004FEAC520F40241EA555140EA56506FF067
:10157000020202EB2E4201EB025585EACE710AD03F
:101580005FEA440C18BF24F0004450F1000041F120
:10159000000120EAD47040F2FE7C624500D270BDAA
:1015A000A84214BF4FF080444FF04044002E08BFC3
:1015B0000024BEF1806FA8BFA1F1C041BDE870401A
:1015C00080F282804FF0000001F1C04101F0004143
:1015D00070479EEA0C0F0CEA131518BF95EA0C0F22
:1015E00006D04FF0000081EA030E0EF0004170BDFE
:1015F00000F01CF88900013E00F007B800F009B8BF
:101600004FEA430C5FEA5C5C08D081EA030100F01A
:101610005BB84FEA410C5FEA5C5CF6D14FF000002A
:10162000014970470000FF070000F87F0EF1020E2D
:101630002EF0030E5EF8046B364205D4012A43EB0C
:10164000030515F5001F12D8012841EB010C1CF50C
:10165000001F0CD80ED14FEAD17C15F5001F0CEB02
:101660004C0C0CF1020C08BF4CEBD37C04E04FF0A7
:10167000080C01E04FEAD37C0CEB4C0526FA05F68A
:1016800006F00706B6F1040C06D20EEB860CBDE898
:1016900070404CF0010C6047DFE80CF0090B0202CF
:1016A0004FF000414FF00000A1F5002170BD194638
:1016B0001046012851EB010418BFD4F5001484BF73
:1016C000002001F0004170BD0808A0F500114FEAAC
:1016D0003101704791EA030F10B581F000413FF5E9
:1016E00073AC83F0004300F009B8000010B591EA34
:1016F000030F48BF83F000433FF566AC841A71EBDB
:10170000030C07D212198CF0004C43EB0C03001BA6
:1017100061EB0C01DFF8A4E14FEA1154A4EB135C78
:101720001EEA430F18BF9EEA445F00F0B08023EA30
:101730006E03524221EA0451C3EB6E0338BF5B1EB5
:10174000DCF1200E25D322FA0CFE10EB0E0043FA3A
:101750000CFE41EB0E01CCF1200E03FA0EFE10EB55
:101760000E0051F10001CCF1200E29D412FA0EF234
:1017700001EB0451BDE8104058BF7047401C1CBF2E
:10178000B2F1004F704700280CBF491C20F0010047
:10179000704712EB020E43EB030218BF4FF0010E2D
:1017A0004EEA4202ACF1200CDCF11E0E54D943FA91
:1017B0000CFE10EB0E0051F1FF31CCF11E0ED5D511
:1017C0000EF1010E12FA0EFE404141EB010101EB58
:1017D000445C5FEA5C5C10D910EBDE7001EB0451F5
:1017E00038BFBEF1004FBDE8104018BF7047002859
:1017F0000CBF491C20F00100704730D24FEAD42CB6
:1018000011F5001124F400641BD0B1FA81F20B3AF7
:10181000A41AA41ED2F12003914030FA03F3194315
:10182000904001EBCC71002C01EB0451BDE810405D
:10183000A8BF704701F1C0414FF0000001F0004126
:101840007047B0FA80F310FA03F100D110BDE41A2A
:10185000173C4805C90AE4E701EB045110BD4910E3
:1018600001EB0451BDE810404FEA300002E04FF0B8
:10187000000170474A0008BF0042F8D0B2F5001FCF
:1018800028BF704701F000414FF0000070479EEA0A
:10189000445F07D011EA5E0FBDE8104004BF00218D
:1018A00000207047BDE8104070B5FFF7BFFE00BFD5
:1018B00040DFF63E83F00041104670470000E0FF35
:1018C0000CF00F03092B08BF082000F059800A2BE9
:1018D0000BD0082B18BF704708BF1CF0400F0AD070
:1018E0004FF000004FF0000170471CF0400F18BF90
:1018F0004FF0004070471CF0100F08D020F07043EC
:1019000000F07F4242EAD3014FEA4370704700F093
:10191000604021F07F4242EA000201F07F4040EA4D
:10192000727070474FF0FF0C4CF4E06C1CEA1153DE
:101930001CBF9CEA030C9445C2BFDA4201EB025182
:101940007047002B0DD0BCF1000F0FD0002A01F022
:101950000041A4BF41F0E04141F07F614FF0000041
:10196000704701F000414FF00000704750EA01332A
:101970004FF09B0C18BF4CF0806C7FF4C5AB7047E8
:101980001CF4801F11D01CF4E02F03D06FEACC317F
:10199000490070474FF04050EFF3008222F0704250
:1019A00042EA000282F3008870474FF0000070475F
:1019B0004C5555555555A53F7751C1166CC156BF6D
:1019C0009015CB19A001FA3EAD529C804F7E92BE7D
:1019D000C4B1B4BD9EEE213ED43888BEE9FAA8BD9C
:1019E00000004054FB21F93F3163621A61B4D03DDD
:1019F0000000601A61B4D03D7370032E8A19A33BB6
:101A00000000002E8A19A33BC14920259A837B3907
:101A100000000000000000006E83F9A22915444E6A
:101A2000D15727FCC0DD34F5999562DB4190433CEA
:101A3000AB6351FE61C5BBDE3A6E24B7E0D24D42C6
:101A4000EA2E49061C92D1091CEB1DFE3EA729B1C6
:101A5000F53582E88444BB2E26709CE9417E5FB454
:101A600039D69139F43953838B5F849C3B28F9BD77
:101A7000FF97F81F0F9805DE8B112FEF1F6D0A5A85
:101A8000CF7E366DB709CB27663F464F2DEA5F9E66
:101A9000C7BA27757BF1E5EBF739073DEA92528A21
:101AA000B15FFB6B085D8D1FA6F810111111813F0E
:101AB000D561C119A0012ABF7DFEB157E31DC73E04
:101AC000EB9C2B8AE6E55ABE7CD5CF5A3AD9E53D48
:101AD000E01A000800000020600A00002801000849
:04000005080000ED02
:00000001FF
