:020000040800F2
:100000003841002001010008B90E0008AB0A0008C1
:10001000C10B00085D070008031D00080000000078
:10002000000000000000000000000000411800086F
:100030004D09000800000000410F0008051A0008E3
:100040001B0100081B0100081B0100081B01000820
:100050001B0100081B0100081B0100081B01000810
:100060001B0100081B0100081B0100081B01000800
:100070001B0100081B0100081B0100081B010008F0
:100080001B0100081B0100081B0100081B010008E0
:100090001B0100081B0100081B0100081B010008D0
:1000A0001B0100081B0100081B0100081B010008C0
:1000B0001B0100081B0100081B0100081B010008B0
:1000C0001B0100081B0100081B0100081B010008A0
:1000D0001B010008691A00081B0100081B01000829
:1000E0001B0100081B0100081B010008DFF80CD0F1
:1000F00000F054F900480047013100083841002061
:100100000648804706480047FEE7FEE7FEE7FEE7B1
:10011000FEE7FEE7FEE7FEE7FEE7FEE7091A000856
:10012000ED00000840EA01039B0703D009E008C97D
:10013000121F08C0042AFAD203E011F8013B00F8AC
:10014000013B521EF9D27047D2B201E000F8012BF8
:10015000491EFBD270470022F6E710B513460A4647
:1001600004461946FFF7F0FF204610BDCAB2401EF4
:1001700010F8011F8A4202D00029F9D100207047EF
:1001800010B5002200E0521C835C8C5CA34201D1BC
:10019000002BF8D1D8B2E1B2401A10BD30B50446F8
:1001A0000020034600E05B1C934203D2E05CCD5C80
:1001B000401BF8D030BD00000FB400B58DB010A9C1
:1001C00009900B9000914FF0FF300A9000200C90A6
:1001D00005480690054807906A4609A80F9900F05F
:1001E000AFF80DB05DF814FB5D0300087B03000859
:1001F0002DE9FF5FD2E901A74FF000089169994608
:100200001446DDF838B0464601988847054659EA55
:100210000B0005D009E0A169761C019888470546C6
:10022000216A284688470028F5D1681C03D05FEA78
:10023000CA7005D015E04FF0FF3004B0BDE8F09F64
:100240002068011D2160D0F800800AE05FEACA70D2
:1002500001D108F8015BA169761C7F1E01988847CF
:100260000546002F1ADD681C18D0B9F1000F0DD01B
:10027000E81705EBD060421120F01F0059F822105A
:100280002A1A012090400142E0D107E0BBF1000FA3
:10029000DCD1216A284688470028D7D0E169019837
:1002A0008847BBF1000F07D1002E05DD5FEACA7059
:1002B00002D1002188F80010A068B84203DDBBF12C
:1002C000000F03D017B16FF00100B6E73046B4E776
:1002D0002DE9F05F0546002092469B46884606467B
:1002E000814640241BE0284641464746224600F00E
:1002F00076F853465A46C01A914110D31146184613
:10030000224600F05DF82D1A67EB01084F462246A1
:100310000120002100F054F817EB00094E41201E87
:10032000A4F10104DFDC484631462A464346BDE8D5
:10033000F09F00000268114413780160184670476E
:10034000D1600449516104491162002111611146D3
:1003500000F05AB835030008FF030008426842B1B4
:10036000016811F8013B23B1521EC0E90012184682
:1003700070470121C160881E704742685AB1C36846
:10038000016843B983688B4205D0491E521CC0E9FD
:100390000012002070474FF0FF307047064C074DA9
:1003A00006E0E06840F0010394E807009847103445
:1003B000AC42F6D3FFF79EFED0380008F0380008B4
:1003C000202A04DB203A00FA02F100207047914015
:1003D000C2F1200320FA03F3194390407047202A0A
:1003E00004DB203A21FA02F00021704721FA02F3DF
:1003F000D040C2F120029140084319467047C0B274
:100400004FF4F05100F096B92DE9F34F8BB04FF057
:10041000000801F10C000C464FF0010B46460DF1AF
:10042000080A0190626901210198904705002DD0CA
:10043000252D2CD0216A8847C0B16269012101981D
:100440009047216A88470028F7D1411E62690198C8
:10045000904700E0761CA1690B988847216A88477D
:100460000028F7D1E1690B988847DBE7A1690B9871
:1004700088470746A84201D1761CD3E7E1690B986B
:1004800088477F1C02D1B8F1000F6FD046E10027EA
:1004900062693D463946019890472A2804D162692D
:1004A0000121019890470125DFF8849262690121BA
:1004B00001989047A0F130010A290AD24F45E5DCA6
:1004C00007EB870100EB4107303FDFD445F0100513
:1004D000ECE7E90601D46FF000476C280AD04C28FD
:1004E00014D0682815D06A280DD074281CD07A281A
:1004F0001AD01DE062690121019890476C2802D052
:1005000045F0040514E045F002050DE045F0200536
:100510000AE06269012101989047682802D045F0FD
:10052000080505E045F400656269012101989047DE
:10053000C4E9015765283DD019DC58287AD00CDC75
:10054000452837D004DC252826D0412831D131E098
:1005500046282FD047282CD12CE05B2877D0612863
:1005600028D063287CD0642823D15AE0D0E06F28BB
:1005700048D008DC66281DD067281BD0692821D008
:100580006E2816D127E0702845D0732868D07528CA
:1005900047D078280DD14DE0A1690B9888470546D2
:1005A00025283FF469AFE1690B9888476D1C3FF43B
:1005B0006AAFB3E023466A466FF001000B99AFF3D0
:1005C00000809EE045F040006060A80723464FF0A1
:1005D000000236D43EE0E8077FF447AF2068011DF3
:1005E00021600068290501D506701BE7290701D5A0
:1005F000068017E7A90703D5F117C0E9006111E7E5
:1006000006600FE745F040006060A80723464FF002
:10061000080216D41EE040F60E0125EA01006060D3
:1006200016E045F040006060A80723464FF00A023C
:1006300007D40FE045F040006060A80708D52346C6
:1006400010226FF001000B99AFF3008059E007E032
:10065000234610226FF001000B99AFF3008050E0A9
:100660004FF000094F464B46632802D05B2806D066
:1006700040E0E80601D40120A06001273AE0626969
:100680000121019890475E2805D14FF00109626968
:10069000494601989047216939B900210A465346D5
:1006A00043F82120491C0829FADBB0B3216969B954
:1006B000C11700EBD16253110AEB830122F01F0234
:1006C000821A01200B68904003430B60626901218C
:1006D000019890475D28E8D1B9F1000F09D00020BA
:1006E000514651F82020D24341F82020401C0828D0
:1006F000F7DB02AB224600976FF001000B99FFF782
:1007000077FD00280CDA401C08D1BBF1000F05D0A2
:100710004FF0FF300DB0BDE8F08FFFE74046F9E73E
:10072000E90701D108F1010806444FF0000B79E612
:10073000CCCCCC0C7F2801D9002208E0064A02EB81
:100740005002C007127800D1120902F00F020120F6
:1007500090400840704700009038000800BFFEE756
:1007600000F0805111B10349086001E0024948607E
:1007700070470000040402400000024021B10268FA
:1007800042F00102026004E002684FF6FE731A4074
:100790000260704701684FF6FE721140016000214F
:1007A000016041608160C1604B49884208D14A497B
:1007B0000839496841F00F01474A083A51608AE018
:1007C00045491431884208D143490839496841F004
:1007D000F001414A083A51607DE03F4928318842A2
:1007E00008D13D490839496841F470613A4A083AEC
:1007F000516070E038493C31884208D136490839A7
:10080000496841F47041344A083A516063E0324922
:100810005031884208D130490839496841F4702183
:100820002D4A083A516056E02B496431884208D17C
:1008300029490839496841F47001274A083A51604A
:1008400049E025497831884208D123490839496867
:1008500041F07061204A083A51603CE01F498842EB
:1008600006D1011F096841F00F01021F116032E03B
:100870001A491431884208D11849091F096841F002
:10088000F001164A121F116025E0144928318842F0
:1008900008D11249091F096841F470610F4A121FFB
:1008A000116018E00D493C31884208D10B49091FFD
:1008B000096841F47041094A121F11600BE00749B1
:1008C0005031884207D10549091F096841F4702158
:1008D000024A121F116070470800024008040240DB
:1008E00001460020002201F0805313B1054B1A6825
:1008F00001E0054B1A6802EA01030BB1012000E098
:1009000000207047000402400000024010B50022A1
:10091000026847F6F0739A430C6A8B6823430C69AC
:1009200023434C6923438C692343CC6923434C6A9A
:1009300023438C6A23431A430260CB6843600B68ED
:1009400083604B68C36010BD41607047704700B55D
:10095000034603E04FF47A7000F005F81800A3F1A5
:100960000103F7D100BD00EBC001C9004FF0E02248
:100970005161002191610521116100BF4FF0E0211B
:10098000096901F480310029F8D004214FF0E022F8
:10099000116170472DE9F041024600250026002034
:1009A00000230024002791F803C00CF00F0591F8F4
:1009B00003C00CF0100CBCF1000F03D091F802C082
:1009C0004CEA050591F800C0BCF1000F31D0146865
:1009D00000202BE04FF0010C0CFA00F3B1F800C03E
:1009E0000CEA03069E4220D183004FF00F0C0CFA54
:1009F00003F7BC4305FA03FC4CEA040491F803C076
:100A0000BCF1280F06D14FF0010C0CFA00FCC2F823
:100A100014C00AE091F803C0BCF1480F05D14FF0B3
:100A2000010C0CFA00FCC2F810C0401C0828D1D3FD
:100A30001460B1F800C0BCF1FF0F34DD5468002031
:100A40002EE000F1080C4FF0010808FA0CF3B1F8A1
:100A500000C00CEA03069E4221D183004FF00F0C28
:100A60000CFA03F7BC4305FA03FC4CEA040491F8C2
:100A700003C0BCF1280F05D100F1080C08FA0CF8EE
:100A8000C2F8148091F803C0BCF1480F07D100F1FF
:100A9000080C4FF0010808FA0CF8C2F81080401C4E
:100AA0000828CED35460BDE8F08100BFFEE7000007
:100AB0002DE9F04106460F4614461D46681E83B2D6
:100AC000601E82B23946304600F074FD4FF480500B
:100AD000044908604FF46151034800F095F9BDE8FE
:100AE000F0810000100801409800002030B591B05E
:100AF0000546294606A801F0E0FF044634B1224627
:100B0000294617A001F062F911B030BD20E0694616
:100B100006A802F0DEF8044614B99DF8090000B9F1
:100B200017E09DF809002E2800D111E09DF808007B
:100B300000F0100028B10DF1090114A001F046F9F0
:100B400005E00DF1090115A0009A01F03FF900BF81
:100B5000DDE700BF06A801F07AFE00BFD4E7000081
:100B6000E697A0E6B395E68993E5BC80E79BAEE502
:100B7000BD953A202573EFBC8CE99499E8AFAFE7B7
:100B8000A0813A2025640D0A000000005BE79BAEBF
:100B9000E5BD955D2025732F0D0A00005BE6968765
:100BA000E4BBB65D2025732028E5A4A7E5B08F3A05
:100BB00020256C7520E5AD97E88A82290D0A000092
:100BC00000BFFEE700B587B00121042000F0DAF98C
:100BD0000121080300F0D6F918208DF81B00A02091
:100BE000ADF8180003208DF81A0006A92048FFF779
:100BF000D1FE10208DF81B00ADF8180003208DF8F1
:100C00001A0006A91A48FFF7C5FE48208DF81B00F8
:100C10004020ADF8180003208DF81A0006A91448EA
:100C2000FFF7B8FE3820ADF810000120ADF80C0039
:100C30000220ADF80A000720ADF814000020ADF83E
:100C40000800ADF80400ADF812004FF48270ADF862
:100C500006004FF40070ADF80E0001A9054800F041
:100C60008BFC0121034800F067FC07B000BD0000C9
:100C7000000801400030014000B587B00121880321
:100C800000F070F901210C2000F07CF910208DF8A3
:100C90001B0041F60800ADF8180003208DF81A007B
:100CA00006A91C48FFF776FE4FF42040ADF8180067
:100CB00018208DF81B0003208DF81A0006A916488D
:100CC000FFF768FE0020ADF810000120ADF80C0021
:100CD0000220ADF80A000720ADF814000020ADF89E
:100CE00008004FF44040ADF804000020ADF81200B9
:100CF0004FF48270ADF806004FF40070ADF80E00AE
:100D000001A9064800F038FC0121044800F014FC59
:100D100007B000BD00080140000C01400038004051
:100D200000B58BB00121084600F00CF91D48FFF713
:100D300031FD1D4800900020019002900390049026
:100D40008020059000200690079008904FF40050F6
:100D5000099000200A9069461248FFF7D7FD114814
:100D60001430FFF717FD1048009010480190102034
:100D70000290002003900490059006900790089040
:100D80004FF40050099000200A906946054814303D
:100D9000FFF7BCFD0122032103480C3800F0D8FB0B
:100DA0000BB000BD1C0002400C3001401E000020B2
:100DB00030B58BB005460C460121084600F0C2F85C
:100DC000012202210E4800F0C3FB0D480C300090B8
:100DD000019510200290039400200490802005903B
:100DE00000200690079008904FF4005009900020D2
:100DF0000A9069460348FFF789FD0BB030BD00003B
:100E0000003800405800024070B504460D460021ED
:100E10000C48FFF7B3FC29460A48FFF795FD09483F
:100E20005838446601210748FFF7A8FC00BF4FF47B
:100E30000030FFF755FD0028F9D04FF40030FFF7E0
:100E40008FFC70BD5800024070B504460D46164632
:100E500000211848FFF792FC002116481430FFF7D4
:100E60008DFC14481C388562C46331461148FFF775
:100E70006BFD31460F481430FFF766FD01210D4828
:100E8000FFF77CFC01210B481430FFF777FC00BF13
:100E90004FF40070FFF724FD0028F9D000BF202098
:100EA000FFF71EFD0028FAD04FF40870FFF758FC3A
:100EB00070BD00001C0002407047000070B50021AA
:100EC00000230F22C47804B3154C246804F4E064B2
:100ED000C4F5E064210AC1F10403CA40447804FA6D
:100EE00003F184781440214309010E4C0678A15582
:100EF000047804F01F050124AC4005786D11AD00A5
:100F000005F1E025C5F8004109E0047804F01F056B
:100F10000124AC40044D0678761145F8264070BD9A
:100F20000CED00E000E400E080E100E00249014354
:100F3000024A1160704700000000FA050CED00E065
:100F40007047000029B1064A52690243044B5A61B6
:100F500004E0034A52698243014B5A617047000022
:100F60000010024029B1064AD2690243044BDA61FB
:100F700004E0034AD2698243014BDA617047000002
:100F80000010024029B1064A92690243044B9A615B
:100F900004E0034A92698243014B9A617047000062
:100FA0000010024030B500210022002400232D4D06
:100FB0006D6805F00C0121B1042905D0082923D161
:100FC00005E0294D056022E0274D05601FE0254D15
:100FD0006D6805F47012234D6D6805F480340225A8
:100FE00005EB92421CB9214D554305600BE01D4DA8
:100FF0006D6805F400351DB11C4D5543056002E0D8
:10100000194D5543056002E0174D056000BF00BF54
:10101000144D6D6805F0F0010909154D6B5C05680C
:10102000DD4045600F4D6D6805F4E061090A104D23
:101030006B5C4568DD4085600A4D6D6805F4605164
:10104000C90A0B4D6B5C4568DD40C560054D6D6898
:1010500005F44041890B074D6B5CC568B5FBF3F5A2
:10106000056130BD0010024000127A0000093D0009
:1010700000000020100000207FB5684600F03AF81C
:1010800010B1002004B070BD9DF8000000F0C00059
:10109000402809D19DF809009DF8081000EB0120B7
:1010A000401C84B2A50220E09DF8050000F00F006E
:1010B0009DF80A1000EBD1109DF8091001F0030112
:1010C00000EB4100861C9DF8080080119DF8071078
:1010D00000EB81009DF8061001F0030100EB812078
:1010E000441CA6F1090004FA00F52846CAE74FF4AB
:1010F0000070704770B5054601220021092000F0FC
:101100004DF9044624B91021284600F0E1F80446C0
:101110001020034908600CB1012070BD0020FCE7DD
:10112000100801407CB5002000900190FFF74AFDB7
:10113000FFF7F6FD102063490860002604E0FF2059
:1011400000F022F9701C86B2282EF8DB10205D49D1
:10115000091D086000BF95220021084600F01EF915
:101160000446012CF7D100205749087087224FF41C
:10117000D571082000F012F90446012C47D1002552
:1011800006E0FF2000F000F90DF80500681CC5B26C
:10119000042DF6DB9DF80200012879D19DF80300AB
:1011A000AA2875D14FF6FE7600BF01220021372014
:1011B00000F0F4F801229107292000F0EFF804462E
:1011C00024B13000A6F101018EB2EED1002E5FD025
:1011D000012200213A2000F0E1F8002858D1002532
:1011E00006E0FF2000F0D0F80DF80500681CC5B23D
:1011F000042DF6DB9DF8000000F0400018B1062039
:101200003149087044E004202F49087040E0012271
:101210000021372000F0C2F801220021292000F02F
:10122000BDF80446012C17DC0220274908704FF650
:10123000FE7600BF01220021372000F0AFF8012226
:101240000021292000F0AAF80446BCB13000A6F124
:1012500001018EB2EED111E001201B4908704FF65A
:10126000FE7600BF01220021104600F097F80446E8
:1012700024B13000A6F101018EB2F3D12EB10122CA
:101280005102102000F08AF810B100200E490870B9
:1012900010200C49086000210C4800F04DF90B4863
:1012A000008820F03800094908800846008840F08E
:1012B000080008800121054800F03EF90248007846
:1012C0007CBD0000100801401D00002000300140DE
:1012D00070B505460E4610200A49086000BFFF2081
:1012E00000F052F80446FE2CF9D132462946064851
:1012F000FFF7AAFDFF2000F047F8FF2000F044F8B8
:10130000002070BD140801401E0000202DE9F041AE
:1013100005460E4617461A480078062800D06D028A
:10132000012E0CD101222946112000F037F8044685
:10133000FCB971023846FFF7CBFF044619E00122E1
:101340002946122000F02AF8044600BF4FF400712D
:101350003846FFF7BDFF044607F50077701EC0B2A0
:10136000060001D0002CF1D0012200210C2000F059
:1013700015F81020034908600020BDE8F081000046
:101380001D0000201008014001B582B0012201A912
:1013900002A8FFF759FD9DF804000EBD2DE9F041AC
:1013A00005460C46904610201A490860FF20FFF7BA
:1013B000EBFF10201749091D086000BFFF20FFF751
:1013C000E3FF0746FF2FF9D145F04000FFF7DCFFB0
:1013D000200EFFF7D9FFC4F30740FFF7D5FFC4F392
:1013E0000720FFF7D1FFE0B2FFF7CEFF4046FFF73F
:1013F000CBFF0C2D02D1FF20FFF7C6FF00BFFF205F
:10140000FFF7C2FF064606F080000028F7D13046FD
:10141000BDE8F081100801402DE9F04107460D4676
:1014200000BFFF20FFF7B0FF0646FF2EF9D1284688
:10143000FFF7AAFFFD2D1AD0002404E0385DFFF766
:10144000A3FF601C84B2B4F5007FF7DBFF20FFF739
:101450009BFFFF20FFF798FFFF20FFF795FF044653
:1014600004F01F00052802D00220BDE8F081002012
:10147000FBE7000010B510200849086000BF0520F8
:10148000FFF765FAFF20FFF77FFFFF28F7D1102055
:101490000249091F0860002010BD00001408014027
:1014A0002DE9F04105460E461746214800780628EA
:1014B00000D06D02012E0CD1012229461820FFF721
:1014C0006DFF04466CBBFE213846FFF7A5FF0446BE
:1014D00027E017480078012809D001220021372091
:1014E000FFF75CFF012231461720FFF757FF01226B
:1014F00029461920FFF752FF044694B900BFFC218A
:101500003846FFF789FF044607F50077701EC0B222
:10151000060001D0002CF2D0FD210020FFF77CFF57
:1015200004461020034908600020BDE8F081000057
:101530001D0000201008014021B1028842F0400245
:10154000028004E002884FF6BF731A4002807047A1
:101550001AB183880B43838002E083888B438380A6
:1015600070470246002013890B400BB1012000E0B8
:10157000002070478181704710B50022028802F474
:1015800041520B884C8823438C882343CC882343C7
:101590000C8923434C8923438C892343CC892343DF
:1015A0001A430280838B4FF2FF74234083830B8A9C
:1015B000038210BD2DE9F04107460C4615461E4634
:1015C0002A2000F0F9F8384600F002F9284600F029
:1015D000FFF82B2000F0F0F8204600F0F9F8304634
:1015E00000F0F6F82C2000F0E7F8BDE8F0810000EC
:1015F00010B5FFF741FB4FF461516548FFF7D8FB89
:101600004FF40060634908603220FFF7A0F94FF4FF
:1016100000606049091F08603220FFF798F9082030
:101620005C49091F0860362000F0C6F8002000F071
:10163000F1F83A2000F0C0F8052000F0EBF8B220F5
:1016400000F0BAF80C2000F0E5F80C2000F0E2F809
:10165000002000F0DFF8332000F0DCF8332000F049
:10166000D9F8B72000F0A8F8352000F0D3F8BB2057
:1016700000F0A2F8192000F0CDF8C02000F09CF88E
:101680002C2000F0C7F8C22000F096F8012000F0EE
:10169000C1F8C32000F090F8122000F0BBF8C4207D
:1016A00000F08AF8202000F0B5F8C62000F084F899
:1016B0000F2000F0AFF8D02000F07EF8A42000F05A
:1016C000A9F8A12000F0A6F8E02000F075F8D020DD
:1016D00000F0A0F8042000F09DF80D2000F09AF82A
:1016E000112000F097F8132000F094F82B2000F060
:1016F00091F83F2000F08EF8542000F08BF84C2039
:1017000000F088F8182000F085F80D2000F082F82D
:101710000B2000F07FF81F2000F07CF8232000F061
:1017200079F8E12000F048F8D02000F073F80420A8
:1017300000F070F80C2000F06DF8112000F06AF84D
:10174000132000F067F82C2000F064F83F2000F030
:1017500061F8442000F05EF8512000F05BF82F2083
:1017600000F058F81F2000F055F81F2000F052F844
:10177000202000F04FF8232000F04CF8212000F04A
:101780001BF8112000F018F8292000F015F810BD02
:10179000980000201408014010B504462146054871
:1017A000FFF7E8FE00BF02210248FFF7DAFE00283B
:1017B000F9D010BD0038004010B504464FF48050F9
:1017C000024908602046FFF7E7FF10BD14080140FA
:1017D00010B504464FF480500C49086021120C48A3
:1017E000FFF7C8FE00BF02210948FFF7BAFE002834
:1017F000F9D021460648FFF7BDFE00BF022104488C
:10180000FFF7AFFE0028F9D010BD0000100801401E
:101810000038004010B504464FF480500649086077
:1018200021460648FFF7A6FE00BF02210348FFF746
:1018300098FE0028F9D010BD100801400038004083
:101840007047000000B587B001218803FFF79AFBBD
:1018500001210420FFF796FB18208DF817004FF4A4
:101860000070ADF8140003208DF8160005A921487A
:10187000FFF790F848208DF817004FF48060ADF81E
:10188000140003208DF8160005A91A48FFF782F806
:101890004FF4612001900020ADF810000C20ADF84D
:1018A0000E000020ADF80C00ADF80A00ADF80800FD
:1018B00001A9114800F0B0F9012240F225510E486B
:1018C00000F084F94FF4A060FFF730FB25208DF87D
:1018D000180001208DF81B008DF819008DF81A00F2
:1018E00006A8FFF7EBFA0121034800F02CF907B036
:1018F00000BD0000000801400038014010B504465A
:101900002146054800F0F9F900BF8021024800F0A7
:1019100026F90028F9D010BD0038014010B500F0BC
:1019200001F810BD0CB5002001900090334800680C
:1019300040F480303149086000BF3048006800F44E
:10194000003000900198401C0190009818B901984F
:10195000B0F5A06FF1D12948006800F4003010B153
:101960000120009001E0002000900098012843D160
:101970002348006840F010002149086008460068CC
:1019800020F0030008600846006840F0020008608C
:101990001A48406819494860084640684860084647
:1019A000406840F4806048600846406820F47C103D
:1019B00048600846406840F4E810486008460068FF
:1019C00040F08070086000BF0C48006800F00070B4
:1019D0000028F9D00948406820F003000749486012
:1019E0000846406840F00200486000BF0348406875
:1019F00000F00C000828F9D10CBD000000100240D6
:101A0000002002407047000010B51348006840F005
:101A100001001149086008464068104908400E4915
:101A20004860084600680E4908400B4908600846AF
:101A3000006820F4802008600846406820F4FE001A
:101A400048604FF41F008860FFF768FF4FF00060A8
:101A50000449086010BD0000001002400000FFF8BB
:101A6000FFFFF6FE08ED00E010B540F225512748D3
:101A700000F082F8012848D1244800F039F9C4B2B6
:101A80002348007868B9762C30D12248007868BBAA
:101A900001201F4908702048047001201F49087068
:101AA00024E01B48007801280FD10D2C03D102201F
:101AB000174908701AE0184818490978445417481B
:101AC0000078401C1549087010E011480078022881
:101AD0000CD10A2C0AD100200D49087000210E48B3
:101AE0000E4A1278815401200A4908700C48007887
:101AF00028B903200A49087000200A49087040F2FA
:101B00002551024800F010F800BF10BD0038014018
:101B10001B0000201A000020340000201C000020C0
:101B2000210000202C00002010B50022002340F6E8
:101B30006A14A14200D100BF0A1201249440A3B24A
:101B4000DC43048010BD21B1828942F400528281BD
:101B500004E082894DF6FF731A4082817047024685
:101B60000020B1F5007F00D100BF13880B400BB1FE
:101B7000012000E00020704770B5024600240023D9
:101B80000025002040F66A16B14200D100BFC1F323
:101B9000421501F01F03012606FA03F3012D02D1BD
:101BA0009689334006E0022D02D1168A334001E0C7
:101BB000968A33400C12012606FA04F41688344043
:101BC00013B10CB1012000E0002070BDF0B5034658
:101BD000002400260025002040F66A17B94200D1F3
:101BE00000BF1846C1F3421401F01F06012707FA8F
:101BF00006F5012C01D10C3004E0022C01D110308B
:101C000000E014301AB107682F43076002E007684C
:101C1000AF430760F0BD00002DE9F04786B00546F0
:101C20000E460024A24600BFA1460027B08900B19D
:101C300000BF2F462C8A4CF6FF700440F088044306
:101C40002C82AC894EF6F3100440B08831890843E9
:101C5000718908430443AC81AC8A4FF6FF400440CD
:101C6000B0890443AC8201A8FFF79CF91F48874262
:101C700002D1DDF810A001E0DDF80CA0A88900F485
:101C8000004040B10AEBCA0000EB0A10316849007D
:101C9000B0FBF1F807E00AEBCA0000EB0A1031686C
:101CA0008900B0FBF1F86420B8FBF0F004012009D2
:101CB000642101FB1089A88900F4004040B1322062
:101CC00000EBC900B0FBF1F000F00700044308E0AE
:101CD000322000EB09106421B0FBF1F000F00F009E
:101CE00004432C8106B0BDE8F087000000380140B5
:101CF00001468888C0F308007047C1F3080282805B
:101D0000704700BFFEE7000070B505460024294675
:101D100020A000F05BF801222946214800F0D4FD04
:101D2000204908700846007878BB01201E490870D9
:101D30001BE01E4B4FF461521D49194800F0F3FEA1
:101D4000C4EB04101E2202EB4003C4EB041041005C
:101D5000F0220020FEF7ACFE601CC4B2082C00DBB1
:101D600000241148007800B90AE00D4840690C4988
:101D7000C968884201D1012000E000200028D8D0A5
:101D800000BF074800F052FD03E0FFE709A000F0A4
:101D90001DF870BD6E616D653A25730D0A00000077
:101DA000083B0020210000202C00002028000020FB
:101DB00098000020E68993E5BC80E69687E4BBB6F0
:101DC000E5A4B1E8B4A5EFBC810D0A000FB4054B42
:101DD00010B503A9044A029800F018F810BC5DF889
:101DE00014FB0000D72E00083000002002E008C8D5
:101DF000121F08C1002AFAD170477047002001E085
:101E000001C1121F002AFBD1704700002DE9FF4FCE
:101E10008BB09A460F460446002606E025280BD0D4
:101E200052460D999047641C761C20780028F5D105
:101E30000FB03046BDE8F08F0025A94601227D494C
:101E400000E0054314F8013F203B02FA03F008428A
:101E5000F7D120782E2817D114F8010F45F004058A
:101E60002A280ED06FF02F022078A0F13001092926
:101E70000AD809EB890102EB410100EB0109641C5E
:101E8000F2E757F8049B641C20786C280DD004DC22
:101E90004C2812D06A2811D104E074280DD07A2879
:101EA0000CD10AE045F4001507E0617845F480158F
:101EB000814202D1641C05F58015641C20786928D4
:101EC0003ED006DC0028B3D063280BD0642804D1B0
:101ED00036E0732810D075285CD052460D99904793
:101EE000761CA5E017F8040B8DF8000000208DF893
:101EF0000100E846012003E057F8048B4FF0FF3063
:101F000069074FF0000501D40AE06D1C4D450DDA5C
:101F10008542FADB18F805100029F6D106E06D1CA1
:101F20008542FCDB18F805100029F8D12E4404E0A6
:101F300018F8010B52460D9990476D1EF8D277E0C4
:101F400000200A90C5F302504FF00A0B02280CD073
:101F500001CFC117021E71F100020CDA0023D0EB91
:101F6000030063EB01012D2208E0FF1D27F00707A6
:101F7000F7E80201EEE72A0504D52B228DF824208C
:101F8000012203E0EA070FD02022F7E70DF1200835
:101F9000089218E000200A90C5F302504FF00A0B97
:101FA000022803D001CF00210022EFE7FF1D27F018
:101FB0000707F7E80201F7E75A460A9BFEF788F998
:101FC000303208F8012D50EA0102F5D1ADEB0800DE
:101FD00000F1200B680701D44FF00109D94502DD5B
:101FE000A9EB0B0000E000208146002506E009A8CF
:101FF0005246405D0D9990476D1C761C08988542AD
:10200000F5DB04E0302052460D999047761CB9F17B
:102010000001A9F10109F5DC05E018F8010B5246B1
:102020000D999047761CBBF10001ABF1010BF4DC7C
:10203000641CFAE6092801002DE9F04104468846AF
:1020400000202071401EE0624146204601F050FA17
:1020500010B10420BDE8F08104F22E2001F049F80F
:10206000074694F83050EB2D03D0E92D01D0E82D30
:1020700043D14AF65520874208D1082223A104F112
:102080008200FEF78BF808B90020E3E704F13B007B
:1020900001F02FF806463D20055D701E304060BB04
:1020A000B6F5007F29DBB6F5007F26DC2DB3681E70
:1020B000284010BB04F13E0001F01BF8E8B14020BD
:1020C000005D401E012818D804F1410001F011F80C
:1020D00098B104F1430001F00CF8802806DA04F10D
:1020E000500000F0FAFFB0F5803F06D304F146003F
:1020F00000F0FFFF08B10020ACE74AF65520874208
:1021000001D10220A6E70320A4E700004641543392
:102110003220202000000000F0B503460D461E6866
:10212000986A021D680A7789B0FBF7F400BF02CAFB
:1021300009B90020F0BD8C4200D202E0641A121DE1
:10214000F5E700BF10682044F4E70246891E506995
:10215000801E884201D8002070475389906A03FB93
:102160000100F9E72DE9F04782468846DAF8004099
:10217000B8F1000F06D1E76817B16069B84215D809
:10218000012713E04146504600F0ADFE0546022D02
:1021900002D20120BDE8F087681C08B92846F9E79B
:1021A0006069A84201D92846F4E74746206908B982
:1021B0000020EFE70026474518D17E1C6069B04239
:1021C00000D802263146504600F08DFE0546012D0E
:1021D00001D0681C08B92846DCE73DB1E568022D4E
:1021E00003D36069A84200D92F460026E6B93E46CF
:1021F00000BF761C6069B04204D80226BE4201D9F5
:102200000020C7E73146504600F06DFE054605B98F
:1022100009E0012D01D0681C08B92846BAE7BE4282
:10222000E7D10020B6E700BF4FF0FF32314620462D
:1022300001F078F98146B9F1000F08D1B8F1000F2B
:1022400005D032464146204601F06CF98146B9F18D
:10225000000F0FD1E6602069A0B1D4E90410801E00
:1022600081420FD82069401E2061607940F0010052
:10227000607107E0B9F1010F02D14FF0FF3000E0CB
:1022800001200646304685E72DE9F35F8946D9F8F7
:102290000080009800F1200520220B212846FDF740
:1022A00053FF0020074606464FF0080B00BF30469C
:1022B000761C18F80040202C00DC4AE02F2C01D0BE
:1022C0005C2C0AD100E0761C18F806002F28FAD002
:1022D00018F806005C28F6D03BE02E2C01D05F45B4
:1022E0000BD3BBF10B0F01D02E2C02D00620BDE882
:1022F000FC9F08274FF00B0BD9E7204600F04AF867
:10230000A8B13046761C18F800A0504600F05CF8E2
:1023100018B1ABF10100B84201D80620E7E7384612
:102320007F1C2C5438467F1C05F800A010E0214685
:1023300014A0FDF71BFF08B10620D8E7612C04DBD1
:102340007A2C02DCA4F12000C4B238467F1C2C5445
:10235000ADE700BF08EB0600C9F800000FB9062082
:10236000C5E72878E52801D105202870202C03DD59
:1023700018F80600202801DC042000E00020E872A4
:102380000020B4E72A2B2C3A3B3C3D3E5B5D7C228F
:102390003F7F000001460B48007888420FDC094867
:1023A0004078884201DB01207047064880788842E7
:1023B00005DC0448C078884201DB0120F4E70020F6
:1023C000F2E70000583800080146104800798842BA
:1023D00019DC0E484079884201DB012070470B4828
:1023E0008079884205DC0948C079884201DB0120F8
:1023F000F4E70648007A884205DC0448407A8842BF
:1024000001DB0120EAE70020E8E700005838000877
:102410002DE9F04104460E46D4F800800021204604
:1024200000F04BF90546EDB9002700BF4046A16911
:1024300001F05EF8054605B113E0E0690078E52893
:1024400002D0E069007820B9781C0746B04201D17B
:1024500007E000270121204600F06FF80546002D17
:10246000E4D000BF042D00D107252846BDE8F08147
:102470002DE9F04704468946204601F0A9F910B13C
:102480000120BDE8F08749462046FFF75EFE06467C
:10249000E6624FF4007104F13000FDF75CFE04F1D8
:1024A00030080127002500E03D446089A84207D993
:1024B000721960783B46414600F09EF90028F3D03F
:1024C0006089A84201D00120DBE70020D9E72DE98F
:1024D000F041044627680021204600F0EEF805464A
:1024E00015B12846BDE8F08100BF3846A16900F06B
:1024F000FFFF054605B11DE0E06906780EB9042529
:1025000018E0E069C07A00F03F00A071E069C07A8D
:1025100000F0080038B90B2204F12001E069FDF752
:102520003DFE00B906E00021204600F006F8054611
:10253000002DDAD000BF2846D4E72DE9F04104464B
:1025400088462768206900F12006B6F5001F01D3F0
:102550000020A061A06910B90420BDE8F081C6F395
:102560000800002845D1A069401CA061606938B905
:102570003889B0EB561F3CD80020A0610420ECE75E
:102580007889401E00EA562098BB2046616900F019
:10259000AAFC0546012D01D80220DEE7681C08B917
:1025A0000120DAE77869A8421DD8B8F1000F03D1FD
:1025B0000020A0610420D0E720466169FFF7D2FD2A
:1025C00005460DB90720C8E7012D01D10220C4E757
:1025D000681C08B90120C0E729463846FFF748FFC4
:1025E00008B10120B9E7656129463846FFF7ADFD1E
:1025F000A0612661C6F3080107F130000844E061DC
:102600000020AAE72DE9F047044688460425D4F8BF
:10261000009027E04846A16900F06AFF054605B131
:1026200023E0E06906780EB904251EE0E069C07A6F
:1026300000F03F07A771E52E0DD02E2E0BD00F2FE7
:1026400009D027F02000082801D1012000E0002057
:10265000404500D109E000212046FFF76EFF054606
:1026600005B102E0A0690028D4D100BF0DB100205F
:10267000A0612846BDE8F08770B5044626680121B0
:102680002046FFF7C5FE0546ADB93046A16900F00A
:102690002FFF05467DB92021E069FDF75CFDE0696B
:1026A000216A0160616A4160218D018194F82A10DC
:1026B000817201203071284670BD2DE9F041044639
:1026C0000D462668B5F5001F02D205F01F0010B1B7
:1026D0000220BDE8F0812561A7681FB93078032882
:1026E00000DB776A47B93089B0EB551F01D802206B
:1026F000EFE7706AA0611CE070894FEA402811E0A2
:102700003946204600F0EFFB0746781C08B9012047
:10271000DFE7022F02D37069B84201D80220D8E760
:10272000A5EB08054545EBD239463046FFF70DFDD0
:10273000A0616761A06908B90220CAE7A06900EB3F
:102740005520A061C5F3080106F130000844E0619E
:102750000020BEE770B5044600251CB9FEF7E2FC78
:10276000284670BD0120FCE72DE9F04106460D46E4
:1027700014460027DEB9052D15D2DFE805F0030960
:102780000D110700FEF776FE00270CE000270AE097
:10279000FEF772FC206006E0FEF7A9FC206002E074
:1027A0000820206000BF00BF3846BDE8F08104204B
:1027B000FBE72DE9F04706460F4690461C464FF0D2
:1027C000000914B90420BDE8F08756B9E1B23A46D1
:1027D0004046FEF79BFD05460DB14FF00109484606
:1027E000F1E70420EFE7024600211AB90121002198
:1027F000084670470120FCE72DE9F04706460F46E2
:1028000090461C464FF0000914B90420BDE8F0873B
:1028100056B9E1B23A464046FEF742FE05460DB1D2
:102820004FF001094846F1E70420EFE738B50546C7
:10283000284600F075FA04463CB96946284600F07F
:10284000ECFF04460CB900202860204638BD38B59E
:1028500004466946204600F0E0FF05460DB9002019
:102860002060284638BD0000F7B582B016460398B0
:10287000019001A800F0F5FB0446002C02DA0B20C1
:1028800005B0F0BD0F4850F8245025B100200D4987
:1028900041F824002870029840B102994C70002041
:1028A000029908700749029841F824000EB90020E7
:1028B000E6E7002202A903A800F0C8FC0746384654
:1028C000DEE70000140000202DE9F74F8EB004462B
:1028D00016461CB9092011B0BDE8F08F06F03F067E
:1028E000324602A90FA800F0B1FC0546002D70D1B8
:1028F0000298039003A80F9900F09EFA05462DB99F
:102900009DF8370000F0800000B1062506F01C009D
:10291000002856D045B1042D03D103A8FFF7ACFE23
:10292000054646F008060AE09DF8120000F0110086
:1029300008B1072503E006F0040000B10825002DCA
:1029400051D106F0080000284DD000F03DFB019069
:102950000A9901F10E00019900F0DFFE0A9901F1D8
:102960001600019900F0D9FE0A99029800F0A2FB26
:10297000814620200A99C87200220A99029800F024
:10298000BAFE0A9901F11C00002100F0C6FE0120E8
:1029900002990871B9F1000F25D00298D0F82CA047
:1029A0000022494603A800F059FE0546DDB951460C
:1029B000029800F09DFD0546A9F101000299C8604A
:1029C00011E085B99DF8120000F0100010B1042547
:1029D00009E05FE006F0020028B19DF8120000F067
:1029E000010000B107254DB906F0080008B146F016
:1029F00040060298C06A20620A986062002D57D192
:102A00000A99029800F056FBA0600A9901F11C0097
:102A100000F063FBE0600020A06202982060029852
:102A2000C088A080267400206074E06160614FF46B
:102A3000007104F12C00FDF78EFB06F0200048B376
:102A4000E06838B3E0686061029840894FEA402B43
:102A5000A768D4F80C800CE03946204600F043FA11
:102A60000746012F00D80225781C00B90125A8EBE4
:102A70000B080DB9D845EFD8A7615DB9C8F30800B8
:102A800040B139460298FFF760FB8246BAF1000F69
:102A900001D102250CE00AEB5820E061E2690299BD
:102AA0004878012304F12C01FFF783FE00B10125D2
:102AB0000DB10020206028460DE733B581B00446F3
:102AC0000CB909203EBD0022694602A800F0BEFBF9
:102AD00005461DBB009820602046029900F0ACF925
:102AE0000546C5B92B20005D00F0800050B9A079E3
:102AF00000F0100028B1E169009800F0DBFAA06056
:102B000000E005253DB90098C088A080002120463E
:102B1000FFF7D3FD0546042D00D105250DB100209A
:102B200020602846CEE72DE9FF4F85B004461546C4
:102B30009A46DDF818B00020CAF8000003A9204624
:102B400000F06BFE0490049810B9607C049018B1FA
:102B5000049809B0BDE8F08F207C00F0010008B9AE
:102B60000720F6E76169E068401A01900198854204
:102B700000D9019DA8E0A08AC0F30800002874D104
:102B800003984089401E616900EA5129B9F1000F9C
:102B90001FD1606910B9A06802900CE0A06A28B14A
:102BA00020466169FFF7B8FA029004E02046A16967
:102BB00000F099F902900298022802D20220607473
:102BC000C7E70298401C10B901206074C1E7029861
:102BD000A061A1690398FFF7B8FA064616B902206A
:102BE0006074B6E74E444FEA5528B8F1000F29D07B
:102BF00009EB080003994989884203D90398408961
:102C0000A0EB090803994878434632465946FFF736
:102C1000D0FD10B1012060749BE7207C00F08000A3
:102C200068B1E069801B404509D2E169891B0BEB63
:102C300041204FF4007204F12C01FDF773FA4FEAC2
:102C4000482737E0E069B04220D0207C00F08000C7
:102C500080B1E26903994878012304F12C01FFF760
:102C6000CBFD18B10120607473E710E0207C00F008
:102C70007F002074039948780123324604F12C0127
:102C8000FFF797FD10B10120607462E7E661A08A4A
:102C9000C0F30800C0F50077AF4200D92F46A08AE4
:102CA000C0F3080204F12C0011183A465846FDF70B
:102CB00039FA00BFED1BDAF800003844CAF800000A
:102CC000BB44606938446061002D7FF454AF00203C
:102CD0003FE7F8B506460D466946304600F09DFDD3
:102CE0000446DCB92DB900213046FFF7E6FC044666
:102CF00014E000213046FFF785FC0446042C00D187
:102D000000245CB92946304600F062F900213046C3
:102D1000FFF713FC0446042C00D100242046F8BD24
:102D2000F8B504466946204600F077FD0646002EB9
:102D300044D1207C00F0400000283FD0207C00F0EF
:102D4000800070B1E26900994878012304F12C01F8
:102D5000FFF752FD08B10120F8BD207C00F07F0094
:102D6000207400F031F90746216A009800F0C0FB9A
:102D700006461EBB656AE87A40F02000E8722946E4
:102D8000A268206800F0B7FC05F11C00E16800F0C3
:102D9000C4FC394605F1160000F0BFFC002105F126
:102DA000120000F0C6FC012000990871009800F0A4
:102DB000C7FC0646207C00F0BF0020743046CBE7FD
:102DC0002DE9FF4107460D4600213846FFF734F94B
:102DD0000646022E06D0032E00D21DB9304604B09E
:102DE000BDE8F08100BF00240AE007F5F77101EBB0
:102DF000041101F1080000F070F94DF82400641C82
:102E0000042CF2D30DB1681E00E00020044600BF80
:102E10005DF8240028B15DF824103846FFF70CF95E
:102E200000E0032006462DB9022E03D3601C0446A1
:102E30000428EDD33046D2E72DE9F3410446276854
:102E400002E00198401C0190019800782F28F8D0EA
:102E5000019800785C28F4D00020A06001980078E8
:102E6000202808D280212B20015500212046FFF781
:102E700024FC05462CE000BF01A92046FFF704FA18
:102E8000054605B123E02046FFF721FB05462B2030
:102E9000065D3DB1042D04D100BF06F0040000B969
:102EA000052514E006F0040000B110E0A07900F060
:102EB000100008B905250AE0208AC0F3080207F1CE
:102EC00030001118384600F0F5F8A060D4E700BFD4
:102ED0002846BDE8FC8170B504460D46E0B2FEF719
:102EE0000DFD204670BD2DE9F04781460C46D9F80E
:102EF0000050022C02D36869A04202D84FF00108AA
:102F00005EE04FF0FF382878012804D002282CD04A
:102F1000032851D13CE0264606EB5606286A00EB12
:102F20005621284600F0E4FA00B148E03046761C0D
:102F3000C0F3080105F13000475C286A00EB562118
:102F4000284600F0D5FA00B139E0C6F3080105F1D2
:102F50003000405C47EA002704F0010008B138095E
:102F600001E0C7F30B00804629E0286A00EB14213A
:102F7000284600F0BDFA00B121E040F2FF1101EA5D
:102F8000440205F13001501800F0B3F8804616E015
:102F9000286A00EBD411284600F0AAFA00B10EE02E
:102FA00040F2FF1101EA840205F13001501800F0EF
:102FB00094F820F0704802E04FF0010800BF00BF15
:102FC0004046BDE8F08700000048704700608A5A1C
:102FD0002DE9F04105460C4600206072A86908B949
:102FE000BDE8F081002637461CE03046761CEA69D1
:102FF00012F80080B8F1200F00D113E0B8F1050FEE
:1030000001D14FF0E508092E05D12E2238467F1C4C
:1030100004F109010A5438467F1C04F1090101F842
:10302000008000BF0B2EE0D3002104F10900C15540
:10303000E869C07A00F03F002072E96901F11C00E4
:1030400000F04BF82060E96901F1160000F051F83A
:10305000E080E96901F1180000F04BF8A08000BFA2
:10306000BEE730B5044620680146024611B94FF06C
:10307000FF3030BD00BF12F8013B212B01D33A2BAA
:10308000F9D13A2B14D101250878302808DB0878CB
:10309000392805DC881C904202D10878A0F130055F
:1030A000012D02DB4FF0FF30E3E722602846E0E726
:1030B0000020DEE770B505460C4604F11A0000F06A
:1030C00018F806462878032805D104F1140000F00A
:1030D00010F846EA0046304670BD0146C8788A7846
:1030E00042EA00204A7842EA00200A7842EA0020B8
:1030F0007047014648780A7842EA0020704700008D
:1031000086B0FEF79FFBFEF773FA4FF4FA70FDF7F7
:103110001EFC29A0FEF75AFE01222AA12A48FFF729
:10312000A3FB2A4908700846007828B108460178B0
:1031300027A0FEF74BFE02E02DA0FEF747FE33A0CE
:10314000FDF7D4FC36E032480078012832D1002067
:103150002F49087001AA2FA13148FDF72DF831A1A0
:1031600001A8FDF70DF840B9012216A10020FFF7D4
:103170007BFB2EA0FEF72AFE1BE032A101A8FCF784
:10318000FFFF98B901220FA10F48FFF76DFB0F4910
:1031900008700846007828B1084601780CA0FEF7B0
:1031A00015FE06E012A0FEF711FE02E001A8FEF7F0
:1031B000ABFD00BFC7E7000053657269616C206F0B
:1031C0006B210D0A00000000D838002020000020EC
:1031D000E68C82E8BDBDE5A4B1E8B4A5EFBC81E909
:1031E0009499E8AFAFE7A0813A2025640D0A00006A
:1031F000E69687E4BBB6E7B3BBE7BB9FE68C82E805
:10320000BDBDE68890E58A9F0D0A00002F000000F2
:103210001A000020252A5B5E3D5D3D2573000000FD
:103220003400002044454C4159000000E69687E4F4
:10323000BBB6E58DB8E8BDBDE68890E58A9F0D0A6E
:10324000000000004C4F4144000000002DE9F74F02
:1032500084B00021059801600498FFF702FF0390F5
:103260000398002803DA0B2007B0BDE8F08F9A49D5
:10327000039851F820400CB90C20F5E7059804603C
:10328000069800F0FE000690207878B16078FFF78D
:10329000AAFA074607F0010040B9069820B107F0E6
:1032A000040008B10A20DFE70020DDE700202070DD
:1032B0006078FFF74FFA074607F0010008B10320D6
:1032C000D2E7069820B107F0040008B10A20CBE746
:1032D00000212046FFF774FD0546042D01D1012091
:1032E000C2E7022D01D30D20BEE7D4F82C9004F1E3
:1032F0003B00FFF7FEFEB0F5007F01D00D20B3E7E5
:1033000004F14600FFF7F5FE064626B904F1540025
:10331000FFF7E3FE0646A6614020005DE070E0781E
:10332000012804D0E078022801D00D209CE7E07845
:1033300046433D20005D6081608918B16089411E6F
:10334000084008B10D208FE704F14100FFF7D1FEDE
:103350002081207A00F00F0008B10D2084E704F1ED
:103360004300FFF7C6FE8246BAF1000F04D104F114
:103370005000FFF7B2FE824604F13E00FFF7B9FEAF
:103380008346BBF1000F01D10D206DE70BEB06006A
:10339000218900EB111002900298824501D20D2084
:1033A00062E70298AAEB00006189B0FBF1F8B8F17E
:1033B000000F01D10D2057E700254848804500D86F
:1033C00003254FF6F570804500D8022540F6F570CC
:1033D000804500D801250DB90D2045E708F1020010
:1033E0006061C4F81C9009EB0B002062029848440D
:1033F000A062032D13D104F15A00FFF77AFE08B141
:103400000D2031E7208908B10D202DE704F15C0083
:10341000FFF763FE606260698000019014E020891C
:1034200008B90D2020E7206A30446062022D02D1E5
:103430006069400007E0207D00F00100616901EB58
:10344000410100EB51000190A169019800F2FF10C9
:10345000B1EB502F01D20D2006E74FF0FF30206175
:10346000E06080206071032D2CD104F16000FFF733
:1034700040FE012826D109F10101204600F038F86C
:1034800000BB0020607104F13000FFF726FE1449F4
:10349000884217D104F50570FFF71FFE11498842D5
:1034A00010D104F50B70FFF718FE0F49884209D1BF
:1034B00004F50670FFF711FE206104F50770FFF7B1
:1034C0000CFEE060257009480088401C80B2074966
:1034D0000880E0800020C7E614000020F5FFFF0F01
:1034E0005252614172724161000055AA18000020D9
:1034F00070B504460D460026E06AA84210D020466A
:1035000000F066F906465EB9607801232A4604F1A8
:103510003001FFF74EF910B14FF0FF350126E5629B
:10352000304670BD2DE9F04704460D4616464FF073
:103530000209022D74D36069A84271D9207801284C
:1035400004D0022849D003280DD15EE02F4607EBB6
:103550005707206A00EB57212046FFF7C9FF814635
:10356000B9F1000F00D075E038467F1CC0F30801A8
:1035700004F1300001EB000805F0010028B1F1B2C0
:1035800098F8000061F31F1000E0304688F8000052
:1035900001202071206A00EB57212046FFF7A8FF89
:1035A0008146B9F1000F00D054E0C7F3080104F1DF
:1035B000300001EB000805F0010010B1C6F3071060
:1035C00006E098F8000000F0F000C6F3032108437D
:1035D00088F80000012020713CE0206A00EB1521F2
:1035E0002046FFF785FF8146B9F1000F00D031E09A
:1035F000B1B240F2FF1202EA450304F1300298181A
:1036000000F097F80120207124E0206A00EBD5112A
:103610002046FFF76DFF8146B9F1000F01D019E098
:1036200019E040F2FF1101EA850204F1300150185F
:10363000FFF753FD66F31B00064640F2FF1101EA57
:10364000850204F130015018314600F066F801207F
:10365000207100BF00BF4846BDE8F0872DE9F04764
:1036600081460E4617464FF00008D9F80040022E5A
:1036700002D36069B04202D80220BDE8F08767B18A
:1036800000BF4FF0FF3239462046FFF74BFF804620
:10369000B8F1000F01D04046EFE700BF3146484681
:1036A000FFF721FC054605B922E0012D01D10220DA
:1036B000E3E7681C08B90120DFE700223146204615
:1036C000FFF730FF8046B8F1000F01D04046D4E745
:1036D000D4E90410801E814206D22069401C20617A
:1036E000607940F0010060712E466069B042D5D823
:1036F00000BF0020C1E770B506460C461546A9B2CA
:1037000004F11A0000F015F83078032804D1290CD0
:1037100004F1140000F00DF870BD00F8011B090A57
:1037200000F8011B090A00F8011B090A00F8011B37
:10373000704700F8011B091200F8011B70470000D8
:1037400070B50446204600F043F80546002D37D1F9
:10375000607901282DD1002060712078032828D1BC
:103760004FF4007104F13000FCF7F5FC154904F149
:103770003000FFF7D2FF144904F50570FFF7CDFFC5
:1037800004F506702169FFF7C8FF04F50770E168CA
:10379000FFF7C3FF0D4904F50B70FFF7BEFFE169AA
:1037A000491C0A46E1626078012304F13001FFF709
:1037B00023F8607800221146FEF7D6FF00B10125FC
:1037C000284670BD5252614172724161000055AA93
:1037D00070B5044600252079E8B16078012304F132
:1037E0003001E26AFFF708F8A0B900202071216AD1
:1037F000E06A401AA16988420DD2E07802280AD115
:10380000A369E16ACA186078012304F13001FEF768
:10381000F3FF00E00125284670BD70B504460D4653
:1038200009268CB1206878B12068007860B1A08842
:103830002168C988884207D121684878FEF7D3FFFC
:1038400000F0010000B900260EB9206800E0002059
:103850002860304670BD000081FE0000407E80FE82
:103860000000010004001000400000010002000000
:103870000100020004000800100020000000000009
:103880000700000000000000000000000000000031
:10389000DDDDDDDDDCBBBBDDDDDDDDDDDDDDDDDD9D
:1038A00098888888888888887777777777888888DD
:1038B0008555555666666666666666666668888875
:1038C0008333333222222222222222222228888D6E
:1038D000F03800080000002034000000EC1D000853
:1038E000243900083400002004410000FC1D0008B9
:1038F0000000000001020304010203040607080996
:103900000204060800000000000000000000FF00A4
:1039100000000000000000000000000000000000A7
:0439200000000000A3
:04000005080000ED02
:00000001FF
