:020000040800F2
:10000000B008002001010008D91500081D120008E1
:10001000BB14000895100008B72400080000000079
:10002000000000000000000000000000D51F0008D4
:10003000AD100008000000007D1D00089921000897
:100040001B0100081B0100081B0100081B01000820
:100050001B0100081B0100081B0100081B01000810
:100060001B0100081B0100081B0100081B01000800
:100070001B0100081B0100081B0100081B010008F0
:100080001B0100081B0100081B0100081B010008E0
:100090001B0100081B0100081B0100081B010008D0
:1000A0001B0100081B0100081B0100081B010008C0
:1000B000FD2100081B0100081B0100081B010008AE
:1000C0001B0100081B0100081B0100081B010008A0
:1000D0001B0100083D2200081B0100081B0100084D
:1000E0001B0100081B0100081B010008DFF80CD0F1
:1000F00000F06EFC004800472F2E0008B0080020DA
:100100000648804706480047FEE7FEE7FEE7FEE7B1
:10011000FEE7FEE7FEE7FEE7FEE7FEE79D210008BB
:10012000ED000008CAB2401E10F8011F8A4202D03A
:100130000029F9D100207047F0B480EA0102D40F01
:100140004200B2EB410F02D20246084611464A0075
:1001500042D0C30DDDB2C1F3C752AD1A202D35DA3E
:10016000C1F3160141F4000204B15242C5F1200668
:1001700002FA06F12A411044B3EBD05F23D0C4B198
:10018000012DA0EBC35009DCF0BC4FF0004202EAA5
:10019000C352DBB200F5000000F00DBB400000F1DF
:1001A000807000EBC350A0F1807040EAD17049002C
:1001B00009E0490841EAC071A0EBC35000F5000016
:1001C000400800EBC350F0BC00F0ECBA61420122E1
:1001D00002EB4101001BF6E7F0BC704781F00041E3
:1001E000AAE780F00040A7E780EA010210B502F01C
:1001F0000043400022D04A001FD0010E01EB1261E3
:10020000C0F35600C2F3560240F4000042F400026C
:10021000A0FB022000047F39140400D0401C50EAE7
:10022000124001D44000491EC2B20C0604EBD010AB
:10023000401C4008802A02D003E0002010BD20F0BE
:100240000100002900DA0020184310BD2DE9FE4FFF
:10025000804681EA0300C00F0C46009021F0004167
:1002600023F00045B8EB0200A94105D240462146E3
:1002700090461C460B46024623F00040104347D0F0
:10028000270DC7F30A00C3F30A510290401A0190E8
:1002900040286BDAC3F3130040F4801B00989246A9
:1002A00020B10023D2EB030A63EB0B0B01985946F4
:1002B000C0F14002504600F006FA06460D46504690
:1002C0005946019A00F00EFA10EB08006141002433
:1002D00087EA115284EAE7731A4340D0009A62B366
:1002E000019A012A4FEA075215DC001B61EB02015B
:1002F0004FF0004202EA0752CDE90042001C41F5EE
:10030000801132462B4600F093FA03B0BDE8F08F1F
:1003100040462146F9E7001B61EB0201001C41F554
:10032000801300185B412018A2F5001747EB03016A
:1003300040EAD570B6196D4111E06D084FEA3606F6
:1003400045EAC0754FEA0752001B61EB0201001C31
:1003500041F5801149084FEA3000001951413246F9
:100360002B4603B0BDE8F04F00F053BA00980122CD
:1003700040000023D0EB020263EBE07300982146BB
:100380004FEAE074B8EB000061EB0401E9E783F0A9
:1003900000435BE781F0004158E72DE9FE4F81EA19
:1003A000030404F0004421F0004100944FF0000BDE
:1003B00023F0004350EA01045ED052EA03045BD00C
:1003C000C3F30A54C1F30A552C44A4F2F334019444
:1003D000A0FB0254C1F3130141F48011C3F31303D2
:1003E00043F4801301FB024400FB034E840A970A86
:1003F00044EA815447EA8357A4FB076802958D0AB3
:1004000005FB07854FEA932C04FB0C542705029D3E
:100410004FEA065847EA1637B5EB08056EEB070CAE
:10042000870E920E47EA811742EA8312A7FB020168
:10043000B6EB0B0164EB00042B0D43EA0C335E18A2
:1004400044EB1C50DA465146E7FB0201C5F31304A6
:100450004FEA0B3343EA14534FEA0432019C43EA58
:100460000603A4F10C040294009CCDE900B400F052
:10047000DFF903B0BDE8F08F00200146F9E72DE970
:10048000F04D81EA030404F0004B21F000451446CE
:100490004FF0000A23F0004150EA050220D054EA50
:1004A00001021DD0C5F30A570246C5F31303C1F379
:1004B0001300C1F30A5640F4801543F48013A7EBF0
:1004C0000608101BD64608F2FD3873EB050002D370
:1004D00008F1010801E092185B41B8F1000F03DA5E
:1004E00000200146BDE8F08D00204FF48011064643
:1004F00084460EE0171B73EB050705D3121B63EB55
:10050000050306434CEA010C49084FEA30009218F3
:100510005B4150EA0107EDD152EA030012D082EAB2
:10052000040083EA0501084305D0101BAB4106D245
:100530000122002306E000224FF0004302E06FF0AA
:10054000010253101AEB06004CEB085110EB0A00A5
:1005500041EB0B01BDE8F04D00F05BB90EB540F288
:10056000334102910021CDE900110A460B4600F00B
:100570005FF903B000BD00F0004220F00040C10D63
:10058000C0F3160040F400007F2901DA0020704714
:10059000962903DCC1F19601C84001E096398840F4
:1005A000002AF4D04042704700F0004230F0004092
:1005B0000AD0C10D01F56071C0F3160042EA015185
:1005C000C2084007114370470020014670470000F1
:1005D00030B5041E71F1000404DB4FF000444042CA
:1005E00064EB0101141E73F1000405DB1C464FF09F
:1005F0000043524263EB04038B4208BF824230BD8A
:1006000001F0004330B421F0004150EA010206D06D
:100610000A0DA2F56072C1F31301002A02DC30BC9E
:1006200000207047440F44EAC104C100E01830BC08
:1006300000EBC25000F0B6B830B50B4601460020C2
:100640002022012409E021FA02F59D4205D303FA94
:1006500002F5491B04FA02F52844151EA2F1010215
:10066000F1DC30BD2DE9F05F0546002092469B4647
:1006700088460646814640241BE0284641464746B8
:10068000224600F0B7F953465A46C01A914110D39A
:1006900011461846224600F016F82D1A67EB01089D
:1006A0004F4622460120002100F00DF817EB00090B
:1006B0004E41201EA4F10104DFDC484631462A46A3
:1006C0004346BDE8F09F202A04DB203A00FA02F1FD
:1006D000002070479140C2F1200320FA03F3194330
:1006E00090407047202A06DBCB17203A41FA02F0EF
:1006F00043EAE07306E041FA02F3D040C2F120027F
:1007000091400843194670470FB4002300B589B0E3
:100710000CA900910B996FF00042CB601E4B069321
:100720001E4B07930423CDE901321D4A089202466D
:100730006B46002000F0F4F909B05DF814FB70B5C9
:1007400086B006464FF0FF300091CDE90101002050
:1007500015460C4604903246694604A8FFF7D4FFBC
:1007600003460498211825B108B10A4600E0224644
:100770002A6000280DD0002B02DD0098884208D0A6
:10078000081B0094CDE901043246694604A8FFF72E
:10079000BBFF06B070BD0000590D0008770D0008C2
:1007A000150A00080029A8BF7047401C490008BF6F
:1007B00020F00100704710B4B0FA80FC00FA0CF091
:1007C00050EA010404BF10BC704749B1CCF12004C9
:1007D00021FA04F411FA0CF118BF01212143084356
:1007E000A3EB0C01CB1D4FEA00614FEA102042BF82
:1007F000002010BC704700EBC35010440029A4BF78
:1008000010BC7047401C490008BF20F0010010BC1C
:10081000704710B5141E73F1000408DA401C41F152
:10082000000192185B411A4301D120F0010010BD74
:100830002DE9F04D92469B4611B1B1FA81F202E0EA
:10084000B0FA80F220329046FFF73DFF04460F4693
:1008500040EA0A0041EA0B0153465A46084313D0C6
:10086000114653EA010019D0C8F14002504600F089
:10087000C1F805460E46504659464246FFF723FF4B
:10088000084305D0012004E020463946BDE8F08D3C
:100890000020054346EAE0762C4337430A98630577
:1008A000E40AA0EB08000022FD0A44EA47540A309B
:1008B00002D500200146E9E7010510196941DDE98B
:1008C000084500196941BDE8F04DA2E72DE9F04D5A
:1008D00000231A461B1A8A4103DB00200146BDE8AB
:1008E000F08DC1F30A52C1F3130141F480154FF0AA
:1008F000000BD10702D100186D41521E002704469B
:1009000040F2FF11384601EB620A3E46804602463D
:1009100000204FF4801100F06DF8C2197141BB182E
:1009200046EB0100B4EB030C75EB000C04D3E41AA6
:1009300065EB000517460E46241908F101006D41CC
:1009400080463428E3DDF91946EB0600091BA8416F
:1009500003D24FF0FF32134601E0002213461BEB97
:10096000070046EB0A51BDE8F04DFFF752BFC1F357
:100970000A52C1F3130140F2FF3341F480119A424D
:1009800002DA00200146704740F233439A42A2F255
:10099000334202DC524200F02DB8FFF794BE000053
:1009A00030B5041E71F1000404DB4FF000444042F6
:1009B00064EB0101141E73F1000405DB1C464FF0CB
:1009C0000043524263EB0403994208BF904230BD9A
:1009D000064C074D06E0E06840F0010394E807008C
:1009E00098471034AC42F6D3FFF784FBC4370008B5
:1009F000E4370008202A04DB203A21FA02F0002123
:100A0000704721FA02F3D040C2F12002914008431E
:100A100019467047C0B24FF4F05100F0BDB9000064
:100A20002DE9FF4F087881B09946FF2805D0491C71
:100A30002D2804D00024002308E000230BE001242B
:100A4000F9E703EB830300EB4303491C0878FF2815
:100A5000F7D104B15B4200200090147801462D2CA0
:100A600001D02B2C04D1521C2D2C12D00024009428
:100A700000251678FF2E0ED00A24A0FB04C801FB27
:100A80000481002700FB0711521C16EB0C00694182
:100A9000EFE70124EBE7994450EA01020ED000246D
:100AA000AA4D2646DFF8A88200F08AF982468B46D6
:100AB000B9F1000009DAC9F100071BE00198002133
:100AC000C0E9001105B0BDE8F08F074612E0F80755
:100AD00007D022462B4630464146FFF75EFC0646CD
:100AE000884622462B4610461946FFF756FC044618
:100AF0000D467F10002FEAD1B9F1000F3246434670
:100B00005046594602DAFFF7BAFC01E0FFF745FC10
:100B1000009A0AB181F00041019AC2E90001D1E7CF
:100B20002DE9FF4F1F468DB0D7E901464FF0FF3842
:100B30002E2045464FF000090B90B9696D1C0E98A8
:100B40008847396A824688470028F6D1BAF1FF3FC4
:100B50000AD024F4D064002E11DDBAF12B0F08D096
:100B6000BAF12D0F0BD102E0404611B0ABE744F4CF
:100B70008064B9696D1C0E9888478246761E694666
:100B8000600501D52D2000E02B208DF8000001F13B
:100B9000010B0DF1200809E0B9696D1C0E9888471A
:100BA00082460F9844F40074761E0560002E02DD24
:100BB000BAF1300FF0D00B998A453ED144F0800451
:100BC00006E00F99681CA9F1010944F4007408605B
:100BD000B9696D1C761E0E98884782463028F0D081
:100BE0002BE00B998A4505D1200603D444F08004FC
:100BF000761E18E0504601F053FD08B30DF11301C5
:100C0000761E44F400748B4508D2AAF130000BF82C
:100C1000010B200607D5A9F1010003E0200602D44C
:100C200009F101008146A00502D50F99681C0860F2
:100C3000B9696D1C0E9888478246002ED1DC53E0BE
:100C4000002E51DDBAF1650F02D0BAF1450F4BD13C
:100C5000A00549D5B9696D1C24F44074761E0E9820
:100C600088478246002E0CDD2B2804D0BAF12D0FC8
:100C700007D144F48074B9696D1C0E988847824688
:100C8000761EE00501D52D2100E02B2108F8011B7F
:100C9000CDF82C8021E00DF12901761E44F400747A
:100CA00088450CD2AAF1300010F0FF0088F800004F
:100CB00002D10B99884509D908F1010806E0E00541
:100CC00001D5244801E042F20F708146B9696D1CDC
:100CD0000E98884782460F980560002E04DD504626
:100CE00001F0DEFC0028D6D1F9690E988847FF2074
:100CF0008BF8000088F800000020069007904B4613
:100D00006A4608A906A8FFF78BFEA00502D46FF07B
:100D100001002AE714F0240F0AD0E00714D1DDE91E
:100D200006123868031D3B600068C0E900120BE042
:100D3000DDE90601FFF764FC0146E00704D13868ED
:100D4000021D3A600068016028460EE7000024405A
:100D50000000F03FF1D8FFFF426842B1016811F88E
:100D6000013B23B1521EC0E9001218467047012111
:100D7000C160881E704742685AB1C368016843B9B0
:100D800083688B4205D0491E521CC0E90012002026
:100D900070474FF0FF3070477F2801D9002208E0EC
:100DA000064A02EB5002C007127800D1120902F085
:100DB0000F0201209040084070470000843700086F
:100DC0000EB540F2334202920022CDE900221346D2
:100DD000FFF72EFD03B000BD21B1826842F0010291
:100DE000826003E0826822F001028260704701465F
:100DF00000208A6802F004020AB1012000E000200D
:100E000070470146C86C80B27047024600201368E4
:100E10000B400BB1012000E000207047014600208C
:100E20008A6802F008020AB1012000E00020704741
:100E300030B502460020002350680F4C20400D7949
:100E40000C6844EA05242043506090680B4C204015
:100E5000D1E902542C434D7944EA45042043906083
:100E6000D06A20F470000C7C641EE4B2234340EA94
:100E70000350D06230BD0000FFFEF0FFFDF7F1FF30
:100E8000F0B504460D4600200021092D11DDE06873
:100E9000A5F10A0606EB4607072606FA07F188437E
:100EA000A5F10A0606EB460603FA06F10843E060E0
:100EB0000CE0206905EB4507072606FA07F1884391
:100EC00005EB450603FA06F108432061072A0FDA0D
:100ED000606B561E06EB86071F2606FA07F188434D
:100EE000561E06EB860605FA06F10843606322E00B
:100EF0000D2A0FDA206BD61F06EB86071F2606FA8F
:100F000007F18843D61F06EB860605FA06F108436B
:100F1000206310E0E06AA2F10D0606EB86071F26AB
:100F200006FA07F18843A2F10D0606EB860605FADC
:100F300006F10843E062F0BD816841F0080181607C
:100F4000704721B1826842F4A002826003E08268A7
:100F500022F4A00282607047816841F00401816040
:100F60007047000010B501210648FFF7EAFF00BFF7
:100F700002210448FFF749FF0028F9D00148FFF794
:100F800040FF10BD0024014000B587B00121480298
:100F900000F012FF0121042000F00EFF4FF400408A
:100FA00000F0EEFE00208DF81B000220ADF81800C6
:100FB00003208DF81A0006A9194800F09BF80523B4
:100FC000012211461748FFF75BFF002001900490B3
:100FD0004FF46020039000208DF809008DF8080080
:100FE00001208DF8140001A90E48FFF721FF01210F
:100FF0000C48FFF7F1FE0B48FFF79EFF00BF0948C2
:10100000FFF70CFF0128FAD00648FFF7A5FF00BF45
:101010000448FFF7ECFE0128FAD007B000BD00003D
:10102000000801400024014070B51548008840F6D2
:10103000B831884217DA13480078A0B91048008800
:10104000401C0F49088010480068FFF7ADFA0446BD
:101050000E4A0F4BFFF7BCFA11D200F027FD01201A
:10106000084908700BE00648008840F6B83188420D
:1010700005DD0448007810B900200149088070BDE2
:101080003800002028000020240000209A99999917
:101090009999094000BFFEE710B54FF480710248EE
:1010A00000F0B3F810BD0000000C0140704700B51F
:1010B000034603E04FF47A7000F005F81800A3F13E
:1010C0000103F7D100BD00EBC001C9004FF0E022E1
:1010D0005161002191610521116100BF4FF0E021B4
:1010E000096901F480310029F8D004214FF0E02291
:1010F000116170472DE9F0410246002500260020CD
:1011000000230024002791F803C00CF00F0591F88C
:1011100003C00CF0100CBCF1000F03D091F802C01A
:101120004CEA050591F800C0BCF1000F31D01468FD
:1011300000202BE04FF0010C0CFA00F3B1F800C0D6
:101140000CEA03069E4220D183004FF00F0C0CFAEC
:1011500003F7BC4305FA03FC4CEA040491F803C00E
:10116000BCF1280F06D14FF0010C0CFA00FCC2F8BC
:1011700014C00AE091F803C0BCF1480F05D14FF04C
:10118000010C0CFA00FCC2F810C0401C0828D1D396
:101190001460B1F800C0BCF1FF0F34DD54680020CA
:1011A0002EE000F1080C4FF0010808FA0CF3B1F83A
:1011B00000C00CEA03069E4221D183004FF00F0CC1
:1011C0000CFA03F7BC4305FA03FC4CEA040491F85B
:1011D00003C0BCF1280F05D100F1080C08FA0CF887
:1011E000C2F8148091F803C0BCF1480F07D100F198
:1011F000080C4FF0010808FA0CF8C2F81080401CE7
:101200000828CED35460BDE8F08141617047016188
:1012100070470AB1016100E04161704700BFFEE71D
:1012200070B502460024002500230020958A138B08
:101230001B0445EA030626F07F4404EA01068E42B9
:1012400001D1012000E0002070BD21B1028842F0F0
:101250000102028004E002884FF6FE731A40028009
:10126000704721B1028842F48072028004E0028853
:101270004FF6FF631A400280704721B1028842F4A2
:101280000072028004E002884FF6FF531A40028089
:10129000704700002DE9F04385B004460D46002656
:1012A000B1460427DFF8CC80A6884FF6C070064010
:1012B000684600F091FDDDF808802F48B8FBF0F09B
:1012C0001FFA80F946EA0906A68020884FF6FE71CB
:1012D0000840208000262949286888420CD82868C0
:1012E0004000B8FBF0F087B2042F00DA04273E4339
:1012F00009F10100208427E0E8884BF6FF7188425D
:1013000006D1286800EB4000B8FBF0F087B209E096
:10131000286800EBC00101EB0010B8FBF0F087B2C9
:1013200047F48047C7F30B0008B947F0010747F4BB
:10133000004006434FF4967009FB00F04FF47A71B9
:1013400090FBF1F0401C2084A683208840F001002F
:10135000208026884FF6F5300640A8886989084322
:1013600006432680A88929890843208105B0BDE865
:10137000F083000000127A0040420F00A0860100B6
:1013800012B141F0010102E04FF6FE7319400182F3
:10139000704701827047000008B50121082000F065
:1013A0000BFD10208DF803004FF44070ADF80000E5
:1013B00003208DF8020069460148FFF79BFE08BD37
:1013C000000C01402DE9F04F8BB082465046FFF7EC
:1013D000C5F8804600221D4BFEF7DFFF06460022BF
:1013E0001B4BFFF74CF80446FFF70AF90990194820
:1013F0000999FEF7F3FE4FF081410190FEF7F4FEEC
:101400008346FFF7D1F80646134A144BFEF7C5FF93
:10141000134A144BCDE90201FEF7BCFFCDE90401EC
:1014200001F01BFD8046104A104BFEF70FFF0A4AE1
:101430000F4BCDE90601FFF722F80446FFF7E0F86D
:10144000089008980BB0BDE8F08F000000B8B040DD
:101450000000E04000007A44B13385CE6BEC42BF1F
:101460006F6636C0B38C2E4087A757CA32440FC070
:101470006BEC52BF10B500F023F800F07DF880202F
:1014800000F084F8C12000F081F800F07AF810BD77
:1014900070B500F071F8012000F078F8FF2000F03E
:1014A00075F80446FF2000F071F8054600F069F871
:1014B000E00140EA6506304670BD00BFFEE700006F
:1014C00000B587B00121042000F076FC012108035B
:1014D00000F072FC18208DF81B00A020ADF8180059
:1014E00003208DF81A0006A92148FFF703FE1020FB
:1014F0008DF81B00ADF8180003208DF81A0006A91E
:101500001B48FFF7F7FD48208DF81B004020ADF881
:10151000180003208DF81A0006A91548FFF7EAFD08
:101520002820ADF810000120ADF80C000220ADF825
:101530000A000720ADF814000020ADF80800ADF84F
:101540000400ADF812004FF48270ADF806004FF4BD
:101550000070ADF80E0001A9064800F01DFD012144
:10156000044800F0FFFC012000F02CF807B000BD9B
:10157000000801400030014010B5002000F022F8C2
:1015800010BD10B5012000F01DF810BD10B50446C7
:1015900000BF02210A4800F0F1FC0128F9D12146E0
:1015A000074800F0F7FC00BF0121054800F0E6FC09
:1015B0000128F9D1024800F0EAFCC0B210BD0000D9
:1015C0000030014010B50446224610210148FFF7C3
:1015D00020FE10BD000801407047000070B50021DA
:1015E00000230F22C47804B3154C246804F4E0648B
:1015F000C4F5E064210AC1F10403CA40447804FA46
:1016000003F184781440214309010E4C0678A1555A
:10161000047804F01F050124AC4005786D11AD007D
:1016200005F1E025C5F8004109E0047804F01F0544
:101630000124AC40044D0678761145F8264070BD73
:101640000CED00E000E400E080E100E0024901432D
:10165000024A1160704700000000FA050CED00E03E
:101660002DE9F04304460D4616461F46284630E055
:10167000234629E04FEAE07C00EB5C7C4FEAEC0C6F
:10168000DFF8588008EBCC1C1CF803C002464FEA78
:10169000E07800EB58784FEAE808A0EBC8094FF073
:1016A000010808FA09F82CEA080C01464FEAE0782C
:1016B00000EB58784FEAE808DFF8209009EBC818EB
:1016C00008F803C0591CCBB2A1199942D2DC411CC5
:1016D000C8B2E9198142CBDCBDE8F0834C000020A0
:1016E00000B585B00121880500F056FB01210820D6
:1016F00000F062FB1C208DF813004FF44060ADF841
:10170000100003208DF8120004A93548FFF7F2FC01
:101710000020ADF80400334800904BF6FF70ADF8A0
:1017200006004FF48060ADF80A000001ADF80C002F
:101730000020ADF8080069462B48FFF7ABFD0121FA
:101740002948FFF782FD6420FFF7B1FCAE2000F0CE
:101750003BF9D52000F038F9802000F035F9A820B9
:1017600000F032F93F2000F02FF9D32000F02CF9DF
:10177000002000F029F9402000F026F9A12000F017
:1017800023F9C82000F020F9DA2000F01DF912201A
:1017900000F01AF9812000F017F9CF2000F014F9B9
:1017A000D92000F011F9F12000F00EF9DB2000F053
:1017B0000BF9302000F008F9A42000F005F9A6206C
:1017C00000F002F98D2000F0FFF8142000F0FCF882
:1017D000AF2000F0F9F86420FFF769FC05B000BD08
:1017E000000C0140801A06000058004070B5044605
:1017F0000D4645F0B00000F0E7F804F00F0000F0EF
:10180000E3F8102141EA241000F0DEF870BD00007A
:10181000F8B506460F4614461D46062D0ED1A4F116
:10182000200000EB40000D4901EB40000823062298
:1018300039460090304600F015F80DE0082D0BD128
:10184000A4F12000064901EB0010102308223946BC
:101850000090304600F006F8F8BD0000963400080D
:10186000A62E00082DE9F04707460C4690469946FB
:10187000DDF820A04B46424621463846FFF7F0FEF1
:10188000002655E03D464DE02046E21704EB52723B
:1018900006EBE2022C4B03EBC212525D2146E3172A
:1018A00004EB5373DB10A4EBC30308FB065CACEB47
:1018B000070C1AF80CC00CFA03FC42EA0C02E317FE
:1018C00004EB537306EBE303DFF87CC00CEBC313AC
:1018D0005A55E21704EB527206EBE202521C6346C1
:1018E00003EBC212525DE31704EB5373DB10A4EB5E
:1018F000C303C3F1080308FB065CACEB070C1AF842
:101900000CC04CFA03FC42EA0C02E31704EB5373DD
:1019100006EBE3035B1CDFF830C00CEBC3135A5536
:10192000681CC5B207EB0800A842ADDC701CC6B24B
:10193000A9F10100C11700EB5171012202EBE10195
:10194000B1429FDCBDE8F0874C0000202DE9F0415A
:101950000646884615461F46002409E02A5D04FB1A
:101960000761C8B23B464146FFF752FF601CC4B254
:10197000285D0028F2D1BDE8F081000010B50024F8
:101980000BE021460020FFF731FF054901EBC410B1
:10199000802100F049F8601CC4B2082CF1DB10BDB6
:1019A0004C00002070B505460E4642F2107402E06D
:1019B000641E04B905E031462846FFF731FC0128D2
:1019C000F6D100BF70BD000010B5044601211348D8
:1019D000FFF747FC12491148FFF7E4FF0022782186
:1019E0000E48FFF7CDFC0F490C48FFF7DBFF002145
:1019F0000A48FFF7CEFC0B49891E0848FFF7D2FFC3
:101A000021460648FFF7C5FC0649891C0348FFF735
:101A1000C9FF01210148FFF730FC10BD005800400C
:101A2000010003008200070070B505460E46012143
:101A30001648FFF716FC16491448FFF7B3FF0022BB
:101A400078211248FFF79CFC12491048FFF7AAFFC3
:101A500040210E48FFF79DFC00240AE00D49891E35
:101A60000A48FFF79FFF295D0848FFF792FC601CBA
:101A7000C4B2B442F2DB0749891C0448FFF792FF65
:101A800001210248FFF7F9FB70BD0000005800403B
:101A9000010003008200070010B54FF48071024876
:101AA000FFF7B5FB10BD0000000C014010B54FF46E
:101AB00000710248FFF7ABFB10BD0000000C0140B5
:101AC0002DE9F0410446214801682046FEF789FBD4
:101AD0001F4908601F4801681D480068FEF77EFB2B
:101AE00080461D4801684046FEF77EFB06461848C2
:101AF00001681A480068FEF777FB07463146FEF793
:101B00001BFB0546FEF737FD00B215490880084665
:101B1000B0F90000C82802DDC820088007E010489E
:101B2000B0F90000002802DA00200D4908800C48B6
:101B3000B0F90000C0F1C80000B20A4908800448AA
:101B4000006804490860BDE8F08100002C00002016
:101B5000400000203C000020200000201800002051
:101B6000340000203600002010B509480068FFF757
:101B7000A7FFFFF791FF0748B0F90000FFF797FABA
:101B8000FFF78AFA0448B0F90000FFF790FA10BD99
:101B900030000020340000203600002010B506235D
:101BA00012A200210846FFF7D1FE062310A20A2147
:101BB0000020FFF7CBFE06230EA214210020FFF722
:101BC000C5FE06230CA21E210020FFF7BFFE062340
:101BD0000CA228210020FFF7B9FE06230CA2322117
:101BE0000020FFF7B3FEFFF7C9FE10BD4B703D00AC
:101BF0004B693D004B643D0054656D705365743A0C
:101C00000000000054656D704E6F773A00000000D0
:101C1000766F6C746167653A000000002DE9F0474B
:101C200088B048480068FEF7BFFC47A2CDE9000134
:101C3000142103A800F052FC062303AA002112205D
:101C4000FFF784FE42480068FEF7AEFC3EA2CDE9F5
:101C50000001142103A800F041FC062303AA0A2175
:101C60001220FFF773FE3B480068FEF79DFC36A28A
:101C7000CDE90001142103A800F030FC062303AADB
:101C800014211220FFF762FE33480068FEF78CFC37
:101C900032A2CDE90001142103A800F01FFC0623A5
:101CA00003AA1E213220FFF751FEFFF7F1FB044685
:101CB000FFF788FB2B49086008460068FEF774FCB4
:101CC000044622460B4628A000F0F8FB2548006891
:101CD000FEF76AFC21A2CDE90001142103A800F05F
:101CE000FDFB062303AA28213220FFF72FFEFFF772
:101CF00039F98246FEF732FC064600221C4BFEF7FD
:101D0000BEFB04464FF066321A4BFEF746FB804698
:101D1000FEF776FC1849086008460068FEF744FCA8
:101D20000EA2CDE90001142103A800F0D7FB062381
:101D300003AA32210846FFF709FEFFF71FFE08B08D
:101D4000BDE8F08718000020252E34660000000052
:101D50001C000020200000202C000020252E3266D0
:101D60000000000030000020252E32660A0000002E
:101D700000FEAF4066661A40240000207047000055
:101D800001460020034A506820F440400843506058
:101D9000704700000010024029B1064AD269024390
:101DA000044BDA6104E0034AD2698243014BDA61F1
:101DB000704700000010024029B1064A92690243B0
:101DC000044B9A6104E0034A92698243014B9A6191
:101DD000704700000010024030B5002100220024AE
:101DE00000232D4D6D6805F00C0121B1042905D0AB
:101DF000082923D105E0294D056022E0274D056023
:101E00001FE0254D6D6805F47012234D6D6805F4D3
:101E10008034022505EB92421CB9214D55430560E3
:101E20000BE01D4D6D6805F400351DB11C4D55438B
:101E3000056002E0194D5543056002E0174D05604D
:101E400000BF00BF144D6D6805F0F0010909154D84
:101E50006B5C0568DD4045600F4D6D6805F4E06121
:101E6000090A104D6B5C4568DD4085600A4D6D6860
:101E700005F46051C90A0B4D6B5C4568DD40C560D7
:101E8000054D6D6805F44041890B074D6B5CC568D5
:101E9000B5FBF3F5056130BD0010024000127A0079
:101EA00000093D0000000020100000202DE9F04155
:101EB0001E480078012837D13D211D48FEF732F930
:101EC000054635B1681C00F095FF0646FEF798FB05
:101ED000044617480078702805D11648046016A0FB
:101EE00000F0ECFA1CE012480078692805D114488B
:101EF000046014A000F0E2FA12E00D4800786428B3
:101F000005D11248046012A000F0D8FA08E0084891
:101F10000078742804D11048046010A000F0CEFAB4
:101F200000200249087000BFBDE8F08114000020C5
:101F30004C040020180000204B705F4F4B0A00003B
:101F40001C0000204B695F4F4B0A0000200000205E
:101F50004B645F4F4B0A00002C0000204B745F4F16
:101F60004B0A000021B1028842F04002028004E0E6
:101F700002884FF6BF731A40028070470246002065
:101F800013890B400BB1012000E00020704701468F
:101F9000888970478181704710B50022028802F459
:101FA00041520B884C8823438C882343CC8823439D
:101FB0000C8923434C8923438C892343CC892343B5
:101FC0001A430280838B4FF2FF74234083830B8A72
:101FD000038210BD7047000000B587B0012188035F
:101FE000FFF7EAFE01210420FFF7E6FE18208DF836
:101FF00017004FF40070ADF8140003208DF81600A0
:1020000005A92148FFF776F848208DF817004FF40E
:102010008060ADF8140003208DF8160005A91A4859
:10202000FFF768F84FF4E13001900020ADF81000A0
:102030000C20ADF80E000020ADF80C00ADF80A0041
:10204000ADF8080001A9114800F0C0F9012240F2E2
:1020500025510E4800F094F94FF4A060FFF7F6FA0E
:1020600025208DF8180001208DF81B008DF819002F
:102070008DF81A0006A8FFF7B1FA0121034800F015
:102080003CF907B000BD00000008014000380140E5
:1020900010B504462146054800F009FA00BF80212A
:1020A000024800F036F90028F9D010BD0038014090
:1020B00010B500F001F810BD0CB5002001900090A3
:1020C0003348006840F480303149086000BF304830
:1020D000006800F4003000900198401C01900098C6
:1020E00018B90198B0F5A06FF1D12948006800F443
:1020F000003010B10120009001E000200090009815
:10210000012843D12348006840F0100021490860AD
:102110000846006820F0030008600846006840F0A8
:10212000020008601A48406819494860084640683B
:1021300048600846406840F480604860084640684F
:1021400020F47C1048600846406840F4E81048607D
:102150000846006840F08070086000BF0C480068C6
:1021600000F000700028F9D00948406820F0030012
:10217000074948600846406840F00200486000BFD8
:102180000348406800F00C000828F9D10CBD00009D
:1021900000100240002002407047000010B51348B4
:1021A000006840F001001149086008464068104985
:1021B00008400E494860084600680E4908400B492F
:1021C00008600846006820F48020086008464068DF
:1021D00020F4FE0048604FF41F008860FFF768FF9E
:1021E0004FF000600449086010BD0000001002407C
:1021F0000000FFF8FFFFF6FE08ED00E010B501213A
:10220000880700F00AF8012803D10121800700F0B7
:1022100001F810BDCA430282704730B50246002063
:1022200000230024158A05EA0103958905EA0104C3
:1022300013B10CB1012000E0002030BD10B540F218
:102240002551214800F072F801283CD11E4800F0C9
:1022500029F9C4B21D48007858B94B2C2DD11C481F
:10226000007850BB012019490870002019490870F6
:1022700023E01648007801280FD10D2C03D102204D
:102280001249087019E01448124909784454114859
:102290000078401C0F4908700FE00C4800780228B5
:1022A0000BD10A2C09D10020084908700A49094AB3
:1022B0001278885401200649087040F225510248DE
:1022C00000F00CF800BF10BD0038014015000020E0
:1022D00014000020160000204C04002010B500223D
:1022E000002340F66A14A14200D100BF0A12012463
:1022F0009440A3B2DC43048010BD21B1828942F432
:102300000052828104E082894DF6FF731A40828177
:10231000704702460020B1F5007F00D100BF13884E
:102320000B400BB1012000E00020704770B5024661
:10233000002400230025002040F66A16B14200D197
:1023400000BFC1F3421501F01F03012606FA03F393
:10235000012D02D19689334006E0022D02D1168A62
:10236000334001E0968A33400C12012606FA04F449
:102370001688344013B10CB1012000E0002070BD7C
:10238000F0B50346002400260025002040F66A1719
:10239000B94200D100BF1846C1F3421401F01F0634
:1023A000012707FA06F5012C01D10C3004E0022CBC
:1023B00001D1103000E014301AB107682F430760D4
:1023C00002E00768AF430760F0BD00002DE9F04769
:1023D00086B005460E460024A24600BFA14600274F
:1023E000B08900B100BF2F462C8A4CF6FF70044024
:1023F000F08804432C82AC894EF6F3100440B08878
:1024000031890843718908430443AC81AC8A4FF693
:10241000FF400440B0890443AC8201A8FFF7DCFC14
:102420001F48874202D1DDF810A001E0DDF80CA0C2
:10243000A88900F4004040B10AEBCA0000EB0A1082
:1024400031684900B0FBF1F807E00AEBCA0000EB85
:102450000A1031688900B0FBF1F86420B8FBF0F095
:1024600004012009642101FB1089A88900F40040BF
:1024700040B1322000EBC900B0FBF1F000F00700E2
:10248000044308E0322000EB09106421B0FBF1F0B6
:1024900000F00F0004432C8106B0BDE8F087000077
:1024A0000038014001468888C0F308007047C1F336
:1024B00008028280704700BFFEE700000FB4054BA2
:1024C00010B503A9044A029800F0F2F810BC5DF8B8
:1024D00014FB00001F2E0008440000200FB41CB5A0
:1024E0000A46521ECDE9000207A9054B6A46069826
:1024F00000F0DEF8009A002111701CBC5DF814FB9E
:10250000DF2D0008014800687047000048000020E7
:1025100002E008C8121F08C1002AFAD170477047AC
:10252000002001E001C1121F002AFBD1704700000A
:102530000149086070470000480000202DE9FF5F56
:10254000DDE90220010DDDF838B0024318D044F671
:102550001050A1F2FF3141430D140F98012820D0F3
:10256000A5EB0B00401C5FEA000A4FF00004474E49
:10257000DFF81C91A046504616D5CAF1000728E0A6
:102580000F98012443A2012808D0002100980F9B36
:10259000C0E90021C0E90243BDE8FF9F6FEA0B01DB
:1025A000F4E7CBF10000DEE7074612E0F80707D0BA
:1025B0002246334640464946FDF7EFFE80468946AF
:1025C0002246334610461946FDF7E7FE04460E46FE
:1025D0007F10002FEAD1DDE90201BAF1000F424677
:1025E0004B4602DAFDF7D9FE01E0FDF748FF04464D
:1025F0000E460022284BFEF7D3F903D84FF0FF30E8
:10260000014607E00022254B20463146FDF71EFE1D
:10261000FEF7ADF9102409E0002C0ADB0A220023A2
:10262000FEF720F8019B30321A55641E50EA010271
:10263000F2D1641C019AC4F1110314440F9A012AC7
:1026400003D0012208430DD10AE0084304D0002042
:102650004FF0110B0F9080E7A3EB0B056D1E0DE003
:102660005B4504DD4FF0000205F1010504E003DAEB
:102670004FF00002A5F10105002AECD000980F9957
:10268000C0E90231C0E9004586E7000000002440AF
:102690000000F03F300000000000F0430000E03F89
:1026A00030380A2801D2012070470020704700000E
:1026B0002DE9FF4F95B09B468946064600250FE25F
:1026C000252877D100242746F84A0121059400E007
:1026D000044316F8013F203B01FA03F01042F7D102
:1026E00030782A2811D06FF02F033078A0F1300213
:1026F000092A16D8059A44F0020402EB820203EB81
:1027000042021044761C0590EFE759F8042B05921D
:10271000002A03DA504244F40054059044F00204C5
:10272000761C30782E2816D116F8010F44F00404D8
:102730002A280DD06FF02F023078A0F13003092B3A
:1027400009D807EB870302EB4303C718761CF3E7AE
:1027500059F8047B761C30786C280FD006DC4C28A6
:1027600017D068280DD06A2814D104E0742810D03E
:102770007A280FD10DE044F400140AE044F48014E8
:1027800001E044F440147278824202D104F58014CE
:10279000761C761C307866280BD013DC582877D04E
:1027A00009DC002875D04528F6D04628F4D0472803
:1027B0001AD19DE118E0632835D0642879D06528C6
:1027C00012D195E1702873D008DC6728F1D0692810
:1027D0006FD06E280DD06F2806D1B5E073282CD0AD
:1027E000752875D0782874D05A46179990476D1C73
:1027F00075E1C4F30250022809D003280DD0D9F89E
:10280000001004280DD00D6009F1040967E1D9F822
:102810000010EA17C1E90052F6E7D9F800100D8060
:10282000F2E70D70F0E719F8041B8DF80010002096
:102830008DF80100EA46012003E059F804AB4FF09F
:10284000FF3061074FF0000102D40DE008F10101F3
:102850008846B9420FDA8045F8DB1AF808100029DB
:10286000F4D108E008F1010188468142FADB1AF848
:1028700008100029F6D105985B46A0EB0807214611
:102880003846179A00F094FA284400EB080507E050
:102890004DE029E10DE01AF8010B5A4617999047CF
:1028A000B8F10108F7D25B4621463846179A13E182
:1028B00042E00A220092C4F302524FF0000A022AB8
:1028C00008D059F804CB032A4FEAEC710AD00DE086
:1028D00029E02AE009F1070121F00702F2E802C12C
:1028E000914609E00FFA8CFC4FEAEC71042A03D1FF
:1028F0004FFA8CFC4FEAEC71002907DA0A460021F6
:10290000DCF1000C61EB02012D2202E0220504D56E
:102910002B228DF80420012203E0E20701D02022BF
:10292000F7E7904659E00A2102E010220DE010215D
:102930004FF0000A00910BE010224FF0000A44F023
:1029400004040827009203E008224FF0000A0092D6
:10295000C4F30252022A05D059F804CB0021032AFD
:1029600008D009E009F1070121F00702F2E802C1ED
:10297000914605E01FFA8CFC042A01D10CF0FF0CF3
:102980004FF00008220728D5702806D0009B83F05E
:10299000100353EA0A0305D00EE040228DF804200C
:1029A000012208E05CEA010206D030228DF8042002
:1029B0008DF8050002229046009B83F0080353EA3D
:1029C0000A030AD15CEA010201D1620705D530226F
:1029D0008DF804204FF001087F1E582804D034A041
:1029E00003900EA802900DE036A0F9E7534660462A
:1029F000009AFDF737FE84460398825C0298401ED9
:102A0000029002705CEA0100F0D1029806A9081A4F
:102A100000F1200A600702D524F4803400E0012789
:102A2000574502DDA7EB0A0000E0002000EB0A0199
:102A3000009005984144401A0590E00306D45B4697
:102A40002146179A059800F0B3F90544002706E0DF
:102A500001A85A46C05D179990476D1C7F1C4745D9
:102A6000F6DBE0030CD55B462146179A059800F08B
:102A70009FF9054404E030205A46179990476D1C91
:102A80000099481E00900029F5DC08E002980299A0
:102A90005A460078491C0291179990476D1CBAF16B
:102AA0000001AAF1010AF1DC65E10000092801003A
:102AB00030313233343536373839616263646566B4
:102AC0000000000030313233343536373839414276
:102AD000434445460000000000F058F90544761CC8
:102AE000307800287FF4ECAD19B02846BDE8F08FAF
:102AF000620700D4062709F1070222F0070CFCE860
:102B00000223E14603F000485FEA080C02D00FF20E
:102B1000702C0DE05FEA045C02D50FF2682C07E030
:102B20005FEAC47C02D00FF2602C01E0AFF2700CBF
:102B30004FF0FF3823F00043CDF850C065280CD08B
:102B400006DC452809D046281DD047283DD13DE068
:102B5000662818D067287ED138E00021112F01DBCC
:102B6000112000E0781CCDE9000106A90EA8FFF7AE
:102B7000E5FCDDE90F010E9A03910021009207F1B7
:102B8000010A04914DE04FF000400097CDE901109B
:102B900006A90EA8FFF7D2FCDDE90F0203920E9BF7
:102BA00011990022DDF80CA00093049211B9791C50
:102BB00000EB010AB7EB0A0004D4C0F1FF3007F1C3
:102BC000010A0490AAEB0700019044E0012F00DA0B
:102BD00001270021112F01DD112000E03846CDE949
:102BE000000106A90EA8FFF7A9FCDDE90F010E9A66
:102BF0000391002104910092BA4621070CD4039955
:102C0000514500DA8A46BAF1010F05DD009AAAF1B2
:102C10000101515C302908D0B84202DA10F1040FEA
:102C200006DA0121CDE9011015E0AAF10101E9E779
:102C3000002805DC049901440491AAEB000102E09C
:102C4000411C514500DD8A460499401A401C019000
:102C50004FF000400290200704D40198504501DB5A
:102C6000CDF8048000208DF84F0002980DF14F0739
:102C7000B0F1004F25D02B200E9002984FF00208A3
:102C800000280CDA404202902D200E9007E00A2125
:102C90000298FDF7D1FC3031029007F8011DB8F120
:102CA0000001A8F10108F2DC02980028EFD1791E9A
:102CB0000E980870307800F0200040F0450007F8CA
:102CC000020D12A8C01B00F107081498007800B18B
:102CD000012000EB0A01019801EBE07105984144E5
:102CE000401A401E0590E00306D45B462146179A21
:102CF000059800F05DF805441498007818B15A461C
:102D0000179990476D1CE00324D55B462146179A1E
:102D1000059800F04DF805441CE00498002807DBF6
:102D2000DDE90301884203DD0098405C179901E06A
:102D3000179930205A469047049805F10105401C28
:102D400004900198401E019004D12E205A461799F4
:102D500090476D1CBAF10001AAF1010ADDDC05E023
:102D600017F8010B5A46179990476D1CB8F10001EE
:102D7000A8F10108F4DC5B462146179A0598ABE6FA
:102D80002D0000002B000000200000002DE9F04184
:102D9000044600251E461746880404D405E039463B
:102DA0002020B0476D1C641EF9D52846BDE8F0818F
:102DB0002DE9F041044600251E469046C80301D582
:102DC000302700E02027880404D505E04146384636
:102DD000B0476D1C641EF9D52846BDE8F0814A68ED
:102DE000002A06D00A68531C0B6010704868401E09
:102DF0004860704730B583B00446FFF783FB054653
:102E00000020CDE90000024621466846FDF797FC08
:102E10002846FFF78DFBDDE9000103B030BD70B53A
:102E200004460D46E0B2FFF733F9204670BDFEF7C9
:102E3000B3FAFEF7A9F8FFF7CFF8FEF71BFBFEF792
:102E40004FFCFEF7ABFE07E0FFF730F8FEF7E6FEBB
:102E5000FEF7EAF8FEF788FEF6E72DE9F0410646B0
:102E60000F46FDF733FD04000D4618BF012028432F
:102E700020F00040C0F17F6000F1E040C00F0ED0B4
:102E8000301C18BF0120384320F00040C0F17F60A3
:102E900000F1E040C00F04BF0120FFF749FB2046CE
:102EA0002946BDE8F081000000000000000000009D
:102EB000000000000000000000F80000000000001A
:102EC00000333000000000160E00160E0000000057
:102ED00000000000000040C07840C0784000043F7F
:102EE00004043F040400007088FC0830000000184F
:102EF00020FF211E0000F008F000E0180000002173
:102F00001C031E211E0000F00888700000001E2116
:102F1000232419272110000000160E0000000000D5
:102F2000000000000000000000E0180402000000A3
:102F300000071820400000020418E00000000040D4
:102F4000201807000000404080F08040400002024E
:102F5000010F01020200000000F00000000001016A
:102F6000011F01010100000000000000000000B08E
:102F700070000000000000000000000000000001E0
:102F8000010101010101000000000000000000300B
:102F900030000000000000000000806018040060A5
:102FA00018060100000000E010080810E000000F03
:102FB000102020100F00001010F80000000000206A
:102FC000203F2020000000700808088870000030B2
:102FD000282422213000003008888848300000185A
:102FE000202020110E000000C02010F80000000773
:102FF0000424243F240000F80888880808000019E9
:10300000212020110E0000E0108888180000000F19
:10301000112020110E0000380808C83808000000F0
:10302000003F000000000070880808887000001C45
:10303000222121221C0000E010080810E0000000FE
:10304000312222110F00000000C0C000000000006B
:10305000003030000000000000C0C0000000000090
:1030600080B07000000000008040201008000001C7
:10307000020408102000404040404040400004044A
:103080000404040404000008102040800000002014
:10309000100804020100007048080808F000000051
:1030A000003036010000C030C828E810E0000718E2
:1030B000272423140B000000C038E0000000203C4F
:1030C00023020227382008F8888888700000203FF3
:1030D000202020110E00C03008080808380007180A
:1030E00020202010080008F808080810E000203F01
:1030F000202020100F0008F88888E8081000203FE2
:1031000020202320180008F88888E8081000203FB5
:10311000200003000000C03008080838000007182D
:103120002020221E020008F808000008F808203FAE
:10313000210101213F20000808F8080800000020B4
:10314000203F2020000000000808F8080800C08088
:1031500080807F00000008F888C028180800203F01
:1031600020012638200008F8080000000000203F59
:1031700020202020300008F8F800F8F80800203F50
:10318000003F003F200008F830C00008F808203F4A
:10319000200007183F00E01008080810E0000F109A
:1031A000202020100F0008F808080808F000203F31
:1031B000210101010000E01008080810E0000F18CC
:1031C000242438504F0008F8888888887000203FF1
:1031D0002000030C302000708808080838000038F0
:1031E000202121221C00180808F8080818000000F7
:1031F000203F2000000008F808000008F808001F21
:10320000202020201F000878880000C8380800000F
:1032100007380E010000F80800F80008F800033C29
:103220000700073C030008186880806818082030F1
:103230002C03032C30200838C800C83808000000D0
:10324000203F2000000010080808C8380800203877
:10325000262120201800000000FE020202000000CB
:10326000007F40404000000C30C000000000000023
:1032700000010638C00000020202FE00000000400B
:1032800040407F00000000201008040810200000CB
:10329000000000000000000000000000000080802E
:1032A0008080808080800002040800000000000010
:1032B00000000000000000008080808000000019F5
:1032C000242222223F2008F8008080000000003FD6
:1032D000112020110E000000008080800000000EF0
:1032E000112020201100000000808088F800000ECE
:1032F000112020103F200000808080800000001FEF
:10330000222222221300008080F088888818002062
:10331000203F202000000000808080808000006B23
:1033200094949493600008F8008080800000203F0F
:10333000210000203F20008098980000000000201D
:10334000203F20200000000000809898000000C06E
:103350008080807F000008F8000080808000203F8F
:1033600024022D302000000808F800000000002092
:10337000203F202000008080808080808000203FCF
:1033800020003F20003F008080008080000000205F
:103390003F2100203F200000808080800000001F2F
:1033A000202020201F00808000808000000080FFFF
:1033B000A12020110E000000008080808000000EFF
:1033C000112020A0FF80808080008080800020204D
:1033D0003F212000010000008080808080000033B9
:1033E000242424241900008080E080800000000054
:1033F000001F202000008080000000808000001F4F
:10340000202020103F2080808000008080800001EC
:103410000E300806010080800080008080800F3020
:103420000C030C300F0000808000808080000020A2
:10343000312E0E31200080808000008080808081CD
:103440008E7018060100008080808080800000213E
:10345000302C2221300000000000807C020200009D
:103460000000003F404000000000FF00000000009E
:103470000000FF0000000002027C8000000000400D
:10348000403F0000000000804040800000800000BD
:103490000000000101000000000000000000002FFB
:1034A000000000000700070000147F147F140024B0
:1034B0002A7F2A12002313086462003649552250DD
:1034C00000000007000000001C2241000000412213
:1034D0001C000014083E08140008083E08080000FC
:1034E00000A06000000808080808000060600000F4
:1034F000002010080402003E5149453E0000427F72
:103500004000004261514946002141454B310018BD
:1035100014127F10002745454539003C4A4949307F
:103520000001710905030036494949360006494939
:10353000291E000036360000000056360000000844
:103540001422410000141414141400004122140821
:10355000000201510906003E4955592E007C121106
:10356000127C007F49494936003E41414122007F9B
:103570004141221C007F49494941007F0909090155
:10358000003E4149497A007F0808087F0000417FDA
:103590004100002040413F01007F08142241007F8C
:1035A00040404040007F020C027F007F0408107FF3
:1035B000003E4141413E007F09090906003E41515C
:1035C000215E007F09192946004649494931000119
:1035D000017F0101003F4040403F001F2040201F6D
:1035E000003F4038403F0063140814630007087030
:1035F000080700615149454300007F414100000236
:1036000004081020000041417F0000040201020470
:10361000004040404040000001020400002054549B
:103620005478007F484444380038444444200038EB
:103630004444487F00385454541800087E0901025D
:103640000018A4A4A47C007F080404780000447D32
:103650004000004080847D00007F1028440000006E
:10366000417F4000007C04180478007C0804047842
:1036700000384444443800FC24242418001824242E
:1036800018FC007C0804040800485454542000042A
:103690003F444020003C4040207C001C2040201C37
:1036A000003C4030403C004428102844001CA0A0AE
:1036B000A07C004464544C440000087F410000009A
:1036C000007F00000000417F080000080408100887
:1036D000E4BDA000008060F8074020180F08C8086B
:1036E00008281800010000FF00100C0340807F0034
:1036F00001061800E5A5BD001010F01F10F00080B5
:103700008282E2928A8680004022150816610000BB
:1037100040807F0000000000E4B89600202020FEDA
:103720002020FF202020FF20202020000000007FFC
:10373000404047444444474040400000E7958C00E7
:10374000000000FE929292FE929292FE0000000013
:1037500008080484621E010001FE02040408080037
:1037600000000000FFFFFFFFFFFFFFFFFFFFFFFF65
:10377000FFFFFFFFFFFFFFFFFFFFFFFFFFFFFFFF59
:10378000FFFFFFFFDDDDDDDDDCBBBBDDDDDDDDDD26
:10379000DDDDDDDD98888888888888887777777789
:1037A0007788888885555556666666666666666655
:1037B0006668888883333332222222222222222200
:1037C0002228888DE4370008000000204C0000000B
:1037D00010250008303800084C0000206408000064
:1037E0002025000800000000010203040102030478
:1037F0000607080902040608000000000000C03F98
:10380000000000000000403F000000000000000039
:103810000000C8420000000000000000000000009E
:103820000000000000000000000000000000000098
:04000005080000ED02
:00000001FF
