:020000040800F2
:10000000680400200101000855030008AB02000845
:100010002503000849010008390800080000000015
:10002000000000000000000000000000CD050008F6
:100030004D0100080000000057030008B906000841
:100040001B0100081B0100081B0100081B01000820
:100050001B0100081B0100081B0100081B01000810
:100060001B0100081B0100081B0100081B01000800
:100070001B0100081B0100081B0100081B010008F0
:100080001B0100081B0100081B0100081B010008E0
:100090001B0100081B0100081B0100081B010008D0
:1000A0001B0100081B0100081B0100081B010008C0
:1000B0001B0100081B0100081B0100081B010008B0
:1000C0001B0100081B0100081B0100081B010008A0
:1000D0001B0100081D0700081B0100081B01000888
:1000E0001B0100081B0100081B010008DFF80CD0F1
:1000F00000F018F8004800475B080008680400207A
:100100000648804706480047FEE7FEE7FEE7FEE7B1
:10011000FEE7FEE7FEE7FEE7FEE7FEE7BD060008B6
:10012000ED000008064C074D06E0E06840F00103D2
:1001300094E8070098471034AC42F6D3FFF7DAFF93
:10014000B4080008D408000800BFFEE7704700B5F7
:10015000034603E04FF47A7000F005F81800A3F1AD
:100160000103F7D100BD00EBC001C9004FF0E02250
:100170005161002191610521116100BF4FF0E02123
:10018000096901F480310029F8D004214FF0E02200
:10019000116170472DE9F04102460025002600203C
:1001A00000230024002791F803C00CF00F0591F8FC
:1001B00003C00CF0100CBCF1000F03D091F802C08A
:1001C0004CEA050591F800C0BCF1000F31D014686D
:1001D00000202BE04FF0010C0CFA00F3B1F800C046
:1001E0000CEA03069E4220D183004FF00F0C0CFA5C
:1001F00003F7BC4305FA03FC4CEA040491F803C07E
:10020000BCF1280F06D14FF0010C0CFA00FCC2F82B
:1002100014C00AE091F803C0BCF1480F05D14FF0BB
:10022000010C0CFA00FCC2F810C0401C0828D1D305
:100230001460B1F800C0BCF1FF0F34DD5468002039
:100240002EE000F1080C4FF0010808FA0CF3B1F8A9
:1002500000C00CEA03069E4221D183004FF00F0C30
:100260000CFA03F7BC4305FA03FC4CEA040491F8CA
:1002700003C0BCF1280F05D100F1080C08FA0CF8F6
:10028000C2F8148091F803C0BCF1480F07D100F107
:10029000080C4FF0010808FA0CF8C2F81080401C56
:1002A0000828CED35460BDE8F08100BFFEE770B5EA
:1002B0000646EF231A460021084600F05DF80024A8
:1002C0000AE0002504E0304600F066F9681C85B2BB
:1002D000F02DF8DB601C84B2F02CF2DB70BD2DE950
:1002E000F04704460D4616461F46DDF820A03B4663
:1002F00032462946204600F03FF8A0460EE0A946C7
:1003000006E0504600F048F909F101001FFA80F9B3
:10031000B945F6DB08F101001FFA80F8B045EEDBC5
:10032000BDE8F08700BFFEE708B50121042000F01A
:1003300013F810208DF80300F820ADF8000003201A
:100340008DF8020069460248FFF724FF08BD00004F
:10035000000801407047704729B1064A926902437C
:10036000044B9A6104E0034A92698243014B9A610B
:100370007047000000100240F0B507460C461546D5
:100380001E462A2000F0FCF8384600F005F9284601
:1003900000F002F92B2000F0F3F8204600F0FCF802
:1003A000304600F0F9F82C2000F0EAF8F0BD00002B
:1003B00010B5FFF7B9FF2020624908604020091DF1
:1003C00008603220FFF7C3FE40205E4908603220FB
:1003D000FFF7BDFE08205B490860362000F0D0F82A
:1003E000002000F0E7F83A2000F0CAF8052000F0FD
:1003F000E1F8B22000F0C4F80C2000F0DBF80C208B
:1004000000F0D8F8002000F0D5F8332000F0D2F842
:10041000332000F0CFF8B72000F0B2F8352000F01C
:10042000C9F8BB2000F0ACF8192000F0C3F8C020D8
:1004300000F0A6F82C2000F0BDF8C22000F0A0F8D3
:10044000012000F0B7F8C32000F09AF8122000F065
:10045000B1F8C42000F094F8202000F0ABF8C620DA
:1004600000F08EF80F2000F0A5F8D02000F088F8FA
:10047000A42000F09FF8A12000F09CF8E02000F0FC
:100480007FF8D02000F096F8042000F093F80D20BB
:1004900000F090F8112000F08DF8132000F08AF899
:1004A0002B2000F087F83F2000F084F8542000F063
:1004B00081F84C2000F07EF8182000F07BF80D2029
:1004C00000F078F80B2000F075F81F2000F072F8AB
:1004D000232000F06FF8E12000F052F8D02000F067
:1004E00069F8042000F066F80C2000F063F8112091
:1004F00000F060F8132000F05DF82C2000F05AF8AE
:100500003F2000F057F8442000F054F8512000F04C
:1005100051F82F2000F04EF81F2000F04BF81F205C
:1005200000F048F8202000F045F8232000F042F8C1
:10053000212000F025F8112000F022F8292000F0F9
:100540001FF810BD10080140002114E020220B4BC1
:100550001A6000F080021AB180221B1F1A6002E0AC
:100560008022064B1A602022044B1B1F1A60420691
:10057000100E4A1CD1B20829E8DB7047140801406C
:1005800010B504461020034908602046FFF7DCFF41
:1005900010BD00001408014010B5044610200449A5
:1005A00008602012FFF7D0FFE0B2FFF7CDFF10BDCB
:1005B0001008014010B50446102003490860204689
:1005C000FFF7C2FF10BD000010080140704710B5D2
:1005D00000F002F810BD00000CB500200190009062
:1005E0003348006840F480303149086000BF30482B
:1005F000006800F4003000900198401C01900098C1
:1006000018B90198B0F5A06FF1D12948006800F43D
:10061000003010B10120009001E00020009000980F
:10062000012843D12348006840F0100021490860A8
:100630000846006820F0030008600846006840F0A3
:10064000020008601A484068194948600846406836
:1006500048600846406840F480604860084640684A
:1006600020F47C1048600846406840F4E810486078
:100670000846006840F08070086000BF0C480068C1
:1006800000F000700028F9D00948406820F003000D
:10069000074948600846406840F00200486000BFD3
:1006A0000348406800F00C000828F9D10CBD000098
:1006B00000100240002002407047000010B51348AF
:1006C000006840F001001149086008464068104980
:1006D00008400E494860084600680E4908400B492A
:1006E00008600846006820F48020086008464068DA
:1006F00020F4FE0048604FF41F008860FFF767FF9A
:100700004FF000600449086010BD00000010024076
:100710000000FFF8FFFFF6FE08ED00E010B540F224
:100720002551214800F059F801283CD11E4800F01D
:100730007EF8C4B21D48007858B94B2C2DD11C4806
:10074000007850BB01201949087000201949087031
:1007500023E01648007801280FD10D2C03D1022088
:100760001249087019E01448124909784454114894
:100770000078401C0F4908700FE00C4800780228F0
:100780000BD10A2C09D10020084908700A49094AEE
:100790001278885401200649087040F22551024819
:1007A00000F00CF800BF10BD00380140010000202F
:1007B00000000020020000200400002010B50022EC
:1007C000002340F66A14A14200D100BF0A1201249E
:1007D0009440A3B2DC43048010BD70B502460024EF
:1007E00000230025002040F66A16B14200D100BF68
:1007F000C1F3421501F01F03012606FA03F3012D90
:1008000002D19689334006E0022D02D1168A334088
:1008100001E0968A33400C12012606FA04F4168889
:10082000344013B10CB1012000E0002070BD01463E
:100830008888C0F30800704700BFFEE702E008C8E0
:10084000121F08C1002AFAD170477047002001E04A
:1008500001C1121F002AFBD1704708B500BFFFF786
:10086000A7FD0020FFF723FD3220FFF770FC20E0FA
:100870004FF6FF70F0231A46002100900846FFF75C
:100880002EFD0020F0231A4601460090FFF727FDB9
:100890001F20F0231A46002100900846FFF71FFD95
:1008A0004FF61F00F0231A46002100900846FFF77C
:1008B00016FDDDE7D4080008000000200400000059
:1008C0003C080008D8080008040000206404000068
:0808D0004C08000800000000C4
:04000005080000ED02
:00000001FF
