:020000040800F2
:10000000800400200101000801040008E10200084A
:10001000E502000875010008930A000800000000CE
:10002000000000000000000000000000F1050008D2
:10003000790100080000000089040008B5070008E5
:100040001B0100081B0100081B0100081B01000820
:100050001B0100081B0100081B0100081B01000810
:100060001B0100081B0100081B0100081B01000800
:100070001B0100081B0100081B0100081B010008F0
:100080001B0100081B0100081B0100081B010008E0
:100090001B0100081B0100081B0100081B010008D0
:1000A0001B0100081B0100081B0100081B010008C0
:1000B0001B0100081B0100081B0100081B010008B0
:1000C0001B0100081B0100081B0100081B010008A0
:1000D0001B010008190800081B0100081B0100088B
:1000E0001B0100081B0100081B010008DFF80CD0F1
:1000F00000F02EF800480047890C0008800400201A
:100100000648804706480047FEE7FEE7FEE7FEE7B1
:10011000FEE7FEE7FEE7FEE7FEE7FEE7B9070008B9
:10012000ED00000830B50B460146002020220124D6
:1001300009E021FA02F59D4205D303FA02F5491BB5
:1001400004FA02F52844151EA2F10102F1DC30BDCB
:10015000064C074D06E0E06840F0010394E8070014
:1001600098471034AC42F6D3FFF7C4FFDC0C00080C
:10017000FC0C000800BFFEE7704700B5034603E033
:100180004FF47A7000F005F81800A3F10103F7D1DD
:1001900000BD00EBC001C9004FF0E0225161002119
:1001A00091610521116100BF4FF0E021096901F45F
:1001B00080310029F8D004214FF0E022116170470E
:1001C0002DE9F041024600250026002000230024EE
:1001D000002791F803C00CF00F0591F803C00CF054
:1001E000100CBCF1000F03D091F802C04CEA0505D9
:1001F00091F800C0BCF1000F31D0146800202BE052
:100200004FF0010C0CFA00F3B1F800C00CEA030641
:100210009E4220D183004FF00F0C0CFA03F7BC4331
:1002200005FA03FC4CEA040491F803C0BCF1280F62
:1002300006D14FF0010C0CFA00FCC2F814C00AE021
:1002400091F803C0BCF1480F05D14FF0010C0CFA36
:1002500000FCC2F810C0401C0828D1D31460B1F8CB
:1002600000C0BCF1FF0F34DD546800202EE000F127
:10027000080C4FF0010808FA0CF3B1F800C00CEAC2
:1002800003069E4221D183004FF00F0C0CFA03F7B6
:10029000BC4305FA03FC4CEA040491F803C0BCF12A
:1002A000280F05D100F1080C08FA0CF8C2F81480E8
:1002B00091F803C0BCF1480F07D100F1080C4FF0D2
:1002C000010808FA0CF8C2F81080401C0828CED3A8
:1002D0005460BDE8F0810AB1016100E041617047FE
:1002E00000BFFEE700BFFEE700B587B00121042094
:1002F00000F0CCF80121080300F0C8F818208DF8B0
:100300001B00A020ADF8180003208DF81A0006A9E4
:100310002148FFF755FF10208DF81B00ADF818009D
:1003200003208DF81A0006A91B48FFF749FF482053
:100330008DF81B004020ADF8180003208DF81A003E
:1003400006A91548FFF73CFF2820ADF81000002053
:10035000ADF80C00ADF80A000720ADF8140000203D
:10036000ADF80800ADF80400ADF812004FF482704B
:10037000ADF806004FF40070ADF80E0001A9074873
:1003800000F018F90121054800F0FAF8012000F00A
:100390002DF807B000BD000000080140003001400A
:1003A00010B5002000F022F810BD10B5012000F0BB
:1003B0001DF810BD10B5044600BF02210A4800F028
:1003C000EBF80128F9D12146074800F0F1F800BF09
:1003D0000121054800F0E0F80128F9D1024800F0B9
:1003E000E4F8C0B210BD00000030014010B5044672
:1003F000224610210148FFF76EFF10BD00080140A2
:100400007047000070B5002100230F22C47804B3A8
:10041000154C246804F4E064C4F5E064210AC1F1D9
:100420000403CA40447804FA03F184781440214359
:1004300009010E4C0678A155047804F01F0501242B
:10044000AC4005786D11AD0005F1E025C5F800411F
:1004500009E0047804F01F050124AC40044D06783F
:10046000761145F8264070BD0CED00E000E400E098
:1004700080E100E002490143024A11607047000038
:100480000000FA050CED00E07047000029B1064AB3
:1004900092690243044B9A6104E0034A92698243E1
:1004A000014B9A61704700000010024030B50021F6
:1004B0000022002400232D4D6D6805F00C0121B1B0
:1004C000042905D0082923D105E0294D056022E043
:1004D000274D05601FE0254D6D6805F47012234D12
:1004E0006D6805F48034022505EB92421CB9214D5C
:1004F000554305600BE01D4D6D6805F400351DB1D9
:100500001C4D5543056002E0194D5543056002E05E
:10051000174D056000BF00BF144D6D6805F0F00178
:100520000909154D6B5C0568DD4045600F4D6D6830
:1005300005F4E061090A104D6B5C4568DD4085609B
:100540000A4D6D6805F46051C90A0B4D6B5C456836
:10055000DD40C560054D6D6805F44041890B074DD0
:100560006B5CC568B5FBF3F5056130BD001002405A
:1005700000127A0000093D00000000201000002059
:1005800021B1028842F04002028004E002884FF666
:10059000BF731A40028070470246002013890B4047
:1005A0000BB1012000E000207047014688897047A8
:1005B0008181704710B50022028802F441520B88F5
:1005C0004C8823438C882343CC8823430C892343C2
:1005D0004C8923438C892343CC8923431A430280CB
:1005E000838B4FF2FF74234083830B8A038210BDF9
:1005F0007047000000B587B001218803FFF746FF70
:1006000001210420FFF742FF18208DF817004FF456
:100610000070ADF8140003208DF8160005A92148DC
:10062000FFF7CEFD48208DF817004FF48060ADF83D
:10063000140003208DF8160005A91A48FFF7C0FD25
:100640004FF4E13001900020ADF810000C20ADF81F
:100650000E000020ADF80C00ADF80A00ADF808005F
:1006600001A9114800F0A0F9012240F225510E48DD
:1006700000F074F94FF4A060FFF7FCFE25208DF820
:10068000180001208DF81B008DF819008DF81A0054
:1006900006A8FFF7B7FE0121034800F01CF907B0D8
:1006A00000BD0000000801400038014010B50446BC
:1006B0002146054800F0E9F900BF8021024800F01A
:1006C00016F90028F9D010BD0038014010B500F02F
:1006D00001F810BD0CB5002001900090334800686F
:1006E00040F480303149086000BF3048006800F4B1
:1006F000003000900198401C0190009818B90198B2
:10070000B0F5A06FF1D12948006800F4003010B1B5
:100710000120009001E0002000900098012843D1C2
:100720002348006840F0100021490860084600682E
:1007300020F0030008600846006840F002000860EE
:100740001A484068194948600846406848600846A9
:10075000406840F4806048600846406820F47C109F
:1007600048600846406840F4E81048600846006861
:1007700040F08070086000BF0C48006800F0007016
:100780000028F9D00948406820F003000749486074
:100790000846406840F00200486000BF03484068D7
:1007A00000F00C000828F9D10CBD00000010024038
:1007B000002002407047000010B51348006840F068
:1007C00001001149086008464068104908400E4978
:1007D0004860084600680E4908400B490860084612
:1007E000006820F4802008600846406820F4FE007D
:1007F00048604FF41F008860FFF768FF4FF000600B
:100800000449086010BD0000001002400000FFF81D
:10081000FFFFF6FE08ED00E010B540F2255121483B
:1008200000F072F801283CD11E4800F029F9C4B24A
:100830001D48007858B94B2C2DD11C48007850BB6E
:1008400001201949087000201949087023E0164852
:10085000007801280FD10D2C03D102201249087015
:1008600019E0144812490978445411480078401C92
:100870000F4908700FE00C48007802280BD10A2CB1
:1008800009D10020084908700A49094A1278885499
:1008900001200649087040F22551024800F00CF88A
:1008A00000BF10BD003801401500002014000020DA
:1008B000160000201C00002010B50022002340F686
:1008C0006A14A14200D100BF0A1201249440A3B2CD
:1008D000DC43048010BD21B1828942F40052828140
:1008E00004E082894DF6FF731A4082817047024608
:1008F0000020B1F5007F00D100BF13880B400BB181
:10090000012000E00020704770B50246002400235B
:100910000025002040F66A16B14200D100BFC1F3A5
:10092000421501F01F03012606FA03F3012D02D13F
:100930009689334006E0022D02D1168A334001E049
:10094000968A33400C12012606FA04F416883440C5
:1009500013B10CB1012000E0002070BDF0B50346DA
:10096000002400260025002040F66A17B94200D175
:1009700000BF1846C1F3421401F01F06012707FA11
:1009800006F5012C01D10C3004E0022C01D110300D
:1009900000E014301AB107682F43076002E00768CF
:1009A000AF430760F0BD00002DE9F04786B0054673
:1009B0000E460024A24600BFA1460027B08900B120
:1009C00000BF2F462C8A4CF6FF700440F088044389
:1009D0002C82AC894EF6F3100440B088318908436C
:1009E000718908430443AC81AC8A4FF6FF40044050
:1009F000B0890443AC8201A8FFF758FD1F48874225
:100A000002D1DDF810A001E0DDF80CA0A88900F407
:100A1000004040B10AEBCA0000EB0A1031684900FF
:100A2000B0FBF1F807E00AEBCA0000EB0A103168EE
:100A30008900B0FBF1F86420B8FBF0F00401200954
:100A4000642101FB1089A88900F4004040B13220E4
:100A500000EBC900B0FBF1F000F00700044308E030
:100A6000322000EB09106421B0FBF1F000F00F0020
:100A700004432C8106B0BDE8F08700000038014037
:100A800001468888C0F308007047C1F308028280DD
:100A9000704700BFFEE710B5FFF726FC10BD2DE93B
:100AA000F04104460E461746FFF77AFC0320FFF795
:100AB00081FCC4F30740FFF77DFCC4F30720FFF778
:100AC00079FCE0B2FFF776FC002504E0FF20FFF799
:100AD00071FC70556D1CBD42F8D3FFF766FCBDE894
:100AE000F08100000FB4054B10B503A9044A029829
:100AF00000F018F810BC5DF814FB0000790C000839
:100B00001800002002E008C8121F08C1002AFAD10C
:100B100070477047002001E001C1121F002AFBD17D
:100B2000704700002DE9FF4F89B09B460446002521
:100B300006E025280BD05A460B999047641C6D1C83
:100B400020780028F5D10DB02846BDE8F08F0027A9
:100B5000B8460122474900E0074314F8013F203B13
:100B600002FA03F00842F7D120782E2819D114F8A0
:100B7000010F47F004072A280ED06FF02F022078CB
:100B8000A0F1300109290CD808EB880102EB4101E2
:100B900000EB0108641CF2E70A98641C50F8048B0F
:100BA0000A9020780028CED0642808D0692806D082
:100BB00075281ED05A460B9990476D1C58E00A992B
:100BC0004FF00A0901C90A91002802DA40422D219A
:100BD00002E0390504D52B218DF82010012103E016
:100BE000F90704D02021F7E78A4608AE0DE000217E
:100BF000FAE70A994FF00A0901C90A91F7E749464D
:100C0000FFF790FA303106F8011D0028F7D1ADEB5F
:100C1000060000F12009780701D44FF00108C8450B
:100C200002DDA8EB090000E000208046002706E076
:100C300008A85A46C05D0B9990476D1C7F1C57450C
:100C4000F6DB04E030205A460B9990476D1CB8F152
:100C50000001A8F10108F5DC05E016F8010B5A4681
:100C60000B9990476D1CB9F10001A9F10109F4DC61
:100C7000641C65E70928010070B504460D46E0B222
:100C8000FFF714FD204670BDE4B0002403E032A855
:100C90000455601CC4B2C82CF9DBFFF7FCFEC82267
:100CA00069460020FFF7FBFEFFF7A4FC10E00024DC
:100CB00009E01DF8041007A0FFF714FF0120FFF75B
:100CC0005CFA601CC4B2C82CF3DB6420FFF755FA51
:100CD000EDE700004E756D3A25640A00FC0C000833
:100CE000000000201C000000040B0008180D000884
:100CF0001C00002064040000140B00080000000029
:100D0000010203040102030406070809020406089D
:080D10000000000000000000DB
:04000005080000ED02
:00000001FF
