:020000040800F2
:100000006804002001010008C5030008B5020008CB
:100010002F030008490100089508000800000000AF
:100020000000000000000000000000002906000899
:100030004D01000800000000C70300081507000874
:100040001B0100081B0100081B0100081B01000820
:100050001B0100081B0100081B0100081B01000810
:100060001B0100081B0100081B0100081B01000800
:100070001B0100081B0100081B0100081B010008F0
:100080001B0100081B0100081B0100081B010008E0
:100090001B0100081B0100081B0100081B010008D0
:1000A0001B0100081B0100081B0100081B010008C0
:1000B0001B0100081B0100081B0100081B010008B0
:1000C0001B0100081B0100081B0100081B010008A0
:1000D0001B010008790700081B0100081B0100082C
:1000E0001B0100081B0100081B010008DFF80CD0F1
:1000F00000F018F800480047B7080008680400201E
:100100000648804706480047FEE7FEE7FEE7FEE7B1
:10011000FEE7FEE7FEE7FEE7FEE7FEE71907000859
:10012000ED000008064C074D06E0E06840F00103D2
:1001300094E8070098471034AC42F6D3FFF7DAFF93
:10014000200900084009000800BFFEE7704700B51D
:10015000034603E04FF47A7000F005F81800A3F1AD
:100160000103F7D100BD00EBC001C9004FF0E02250
:100170005161002191610521116100BF4FF0E02123
:10018000096901F480310029F8D004214FF0E02200
:10019000116170472DE9F04102460025002600203C
:1001A00000230024002791F803C00CF00F0591F8FC
:1001B00003C00CF0100CBCF1000F03D091F802C08A
:1001C0004CEA050591F800C0BCF1000F31D014686D
:1001D00000202BE04FF0010C0CFA00F3B1F800C046
:1001E0000CEA03069E4220D183004FF00F0C0CFA5C
:1001F00003F7BC4305FA03FC4CEA040491F803C07E
:10020000BCF1280F06D14FF0010C0CFA00FCC2F82B
:1002100014C00AE091F803C0BCF1480F05D14FF0BB
:10022000010C0CFA00FCC2F810C0401C0828D1D305
:100230001460B1F800C0BCF1FF0F34DD5468002039
:100240002EE000F1080C4FF0010808FA0CF3B1F8A9
:1002500000C00CEA03069E4221D183004FF00F0C30
:100260000CFA03F7BC4305FA03FC4CEA040491F8CA
:1002700003C0BCF1280F05D100F1080C08FA0CF8F6
:10028000C2F8148091F803C0BCF1480F07D100F107
:10029000080C4FF0010808FA0CF8C2F81080401C56
:1002A0000828CED35460BDE8F0810AB1016100E0B6
:1002B0004161704700BFFEE770B50646EF231A465E
:1002C0000021084600F090F800240AE0002504E030
:1002D000304600F094F9681C85B2F02DF8DB601C04
:1002E00084B2F02CF2DB70BD2DE9F04704460D46D8
:1002F00016461F46DDF820A03B46324629462046DA
:1003000000F072F8A0460EE0A94606E0504600F064
:1003100076F909F101001FFA80F9B945F6DB08F119
:1003200001001FFA80F8B045EEDBBDE8F08700BFA2
:10033000FEE7000008B50121042000F045F8102078
:100340008DF80300F820ADF8000003208DF80200BE
:1003500069460248FFF71EFF08BD00000008014083
:1003600010B50446224608210148FFF79EFF10BD44
:100370000008014010B50446224610210148FFF74D
:1003800094FF10BD0008014010B5044622464021EC
:100390000148FFF78AFF10BD0008014010B5044670
:1003A000224620210148FFF780FF10BD00080140D0
:1003B00010B50446224680210148FFF776FF10BDA4
:1003C000000801407047704729B1064A926902430C
:1003D000044B9A6104E0034A92698243014B9A619B
:1003E00070470000001002402DE9F04107460C461E
:1003F00015461E462A2000F0F9F8384600F0FFF8AE
:10040000284600F0FCF82B2000F0F0F8204600F021
:10041000F6F8304600F0F3F82C2000F0E7F8BDE8DD
:10042000F08110B5FFF786FF0120FFF7B7FF00202E
:10043000FFF7AAFF1420FFF78AFE0120FFF7A4FFB1
:100440001420FFF784FE0120FFF78AFF362000F01A
:10045000CDF8002000F0DFF83A2000F0C7F80520C2
:1004600000F0D9F8B22000F0C1F80C2000F0D3F869
:100470000C2000F0D0F8002000F0CDF8332000F080
:10048000CAF8332000F0C7F8B72000F0AFF83520E5
:1004900000F0C1F8BB2000F0A9F8192000F0BBF86B
:1004A000C02000F0A3F82C2000F0B5F8C22000F026
:1004B0009DF8012000F0AFF8C32000F097F812205B
:1004C00000F0A9F8C42000F091F8202000F0A3F873
:1004D000C62000F08BF80F2000F09DF8D02000F02F
:1004E00085F8A42000F097F8A12000F094F8E0200F
:1004F00000F07CF8D02000F08EF8042000F08BF89B
:100500000D2000F088F8112000F085F8132000F08D
:1005100082F82B2000F07FF83F2000F07CF8542078
:1005200000F079F84C2000F076F8182000F073F80D
:100530000D2000F070F80B2000F06DF81F2000F087
:100540006AF8232000F067F8E12000F04FF8D0208F
:1005500000F061F8042000F05EF80C2000F05BF879
:10056000112000F058F8132000F055F82C2000F06E
:1005700052F83F2000F04FF8442000F04CF8512092
:1005800000F049F82F2000F046F81F2000F043F853
:100590001F2000F040F8202000F03DF8232000F05C
:1005A0003AF8212000F022F8112000F01FF829204D
:1005B00000F01CF810BD70B50446002513E00020C3
:1005C000FFF7ECFE04F0800018B10120FFF7F0FE09
:1005D00002E00020FFF7ECFE0120FFF7DFFE6006DF
:1005E000040E681CC5B2082DE9DB70BD10B50446C9
:1005F0000020FFF7BFFE2046FFF7DDFF10BD10B55E
:1006000004460120FFF7B6FE2012FFF7D4FFE0B248
:10061000FFF7D1FF10BD10B504460120FFF7AAFE79
:100620002046FFF7C8FF10BD704710B500F002F874
:1006300010BD00000CB50020019000903348006808
:1006400040F480303149086000BF3048006800F451
:10065000003000900198401C0190009818B9019852
:10066000B0F5A06FF1D12948006800F4003010B156
:100670000120009001E0002000900098012843D163
:100680002348006840F010002149086008460068CF
:1006900020F0030008600846006840F0020008608F
:1006A0001A4840681949486008464068486008464A
:1006B000406840F4806048600846406820F47C1040
:1006C00048600846406840F4E81048600846006802
:1006D00040F08070086000BF0C48006800F00070B7
:1006E0000028F9D00948406820F003000749486015
:1006F0000846406840F00200486000BF0348406878
:1007000000F00C000828F9D10CBD000000100240D8
:10071000002002407047000010B51348006840F008
:1007200001001149086008464068104908400E4918
:100730004860084600680E4908400B4908600846B2
:10074000006820F4802008600846406820F4FE001D
:1007500048604FF41F008860FFF767FF4FF00060AC
:100760000449086010BD0000001002400000FFF8BE
:10077000FFFFF6FE08ED00E010B540F225512148DC
:1007800000F059F801283CD11E4800F07EF8C4B2B0
:100790001D48007858B94B2C2DD11C48007850BB0F
:1007A00001201949087000201949087023E01648F3
:1007B000007801280FD10D2C03D1022012490870B6
:1007C00019E0144812490978445411480078401C33
:1007D0000F4908700FE00C48007802280BD10A2C52
:1007E00009D10020084908700A49094A127888543A
:1007F00001200649087040F22551024800F00CF82B
:1008000000BF10BD003801400100002000000020A2
:10081000020000200400002010B50022002340F652
:100820006A14A14200D100BF0A1201249440A3B26D
:10083000DC43048010BD70B502460024002300256F
:10084000002040F66A16B14200D100BFC1F3421544
:1008500001F01F03012606FA03F3012D02D1968948
:10086000334006E0022D02D1168A334001E0968A19
:1008700033400C12012606FA04F41688344013B1F2
:100880000CB1012000E0002070BD01468888C0F353
:100890000800704700BFFEE702E008C8121F08C149
:1008A000002AFAD170477047002001E001C1121FF1
:1008B000002AFBD1704708B50024FFF7B2FD0020E5
:1008C000FFF7FAFC3220FFF742FC27E064231A46C8
:1008D0000A2132200094FFF707FD4FF6FF70001B3E
:1008E000C8236422652100903220FFF7FDFC04F547
:1008F000004080B2652396220A2100901846FFF737
:10090000F3FCC4F5004080B2C82396226521009014
:100910000846FFF7E9FC04F10A0084B2D6E70000BC
:1009200040090008000000200400000098080008AA
:10093000440900080400002064040000A80800081E
:0409400000000000B3
:04000005080000ED02
:00000001FF
